:020000040800F2
:1000000000000120A1910008AD8A0008B58A00080F
:10001000C98A0008D18A0008D98A000800000000B7
:10002000000000000000000000000000E18A00085D
:10003000ED8A000800000000F98A0008058B00081E
:10004000E9910008E9910008E9910008358B000862
:10005000E9910008E9910008E9910008E991000898
:10006000E9910008E9910008E9910008498B00082E
:10007000E99100085D8B0008E9910008718B000888
:10008000E9910008E9910008E9910008E991000868
:10009000E9910008E9910008E9910008858B0008C2
:1000A000E9910008E9910008E9910008E991000848
:1000B000E9910008E9910008E9910008E991000838
:1000C000E9910008E9910008E9910008E991000828
:1000D000E9910008C98B0008E9910008498C0008E3
:1000E000E9910008E9910008E9910008000000008A
:1000F0000000000000000000000000000000000000
:100100000000000000000000E9910008E9910008EB
:10011000E9910008E9910008E9910008E9910008D7
:10012000E9910008E9910008E9910008E9910008C7
:10013000E99100080000000000000000E9910008BB
:10014000E9910008E9910008E9910008E9910008A7
:10015000000000000000000000000000000000009F
:10016000000000000000000000000000000000008F
:10017000000000000000000000000000000000007F
:10018000000000000000000000000000000000006F
:10019000000000000000000000000000000000005F
:1001A000000000000000000000000000000000004F
:1001B000000000000000000000000000000000003F
:1001C000000000000000000000000000000000002F
:1001D000000000000000000000000000000000001F
:0401E0005FF8E0F1F3
:1001E80010B5054C237833B9044B13B10448AFF369
:1001F80000800123237010BDA00000200000000033
:10020800C806010808B5034B1BB103490348AFF3FF
:10021800008008BD00000000A4000020C8060108F6
:1002280081F0004102E000BF83F0004330B54FEA9F
:1002380041044FEA430594EA050F08BF90EA020F0C
:100248001FBF54EA000C55EA020C7FEA645C7FEA9F
:10025800655C00F0E2804FEA5454D4EB5555B8BFC2
:100268006D420CDD2C4480EA020281EA030382EA33
:10027800000083EA010180EA020281EA0303362DC5
:1002880088BF30BD11F0004F4FEA01314FF4801C98
:100298004CEA113102D0404261EB410113F0004FAA
:1002A8004FEA03334CEA133302D0524263EB430361
:1002B80094EA050F00F0A780A4F10104D5F1200EFF
:1002C8000DDB02FA0EFC22FA05F2801841F100015A
:1002D80003FA0EF2801843FA05F359410EE0A5F12E
:1002E80020050EF1200E012A03FA0EFC28BF4CF05F
:1002F800020C43FA05F3C01851EBE37101F0004515
:1003080007D54FF0000EDCF1000C7EEB00006EEB21
:100318000101B1F5801F1BD3B1F5001F0CD34908AB
:100328005FEA30004FEA3C0C04F101044FEA445202
:1003380012F5800F80F09A80BCF1004F08BF5FEA89
:10034800500C50F1000041EB045141EA050130BD69
:100358005FEA4C0C404141EB0101013C28BFB1F57B
:10036800801FE9D291F0000F04BF01460020B1FAC6
:1003780081F308BF2033A3F10B03B3F120020CDA99
:100388000C3208DD02F1140CC2F10C0201FA0CF077
:1003980021FA02F10CE002F11402D8BFC2F1200CDC
:1003A80001FA02F120FA0CFCDCBF41EA0C01904092
:1003B800E41AA2BF01EB0451294330BD6FEA0404DB
:1003C8001F3C1CDA0C340EDC04F11404C4F12002C6
:1003D80020FA04F001FA02F340EA030021FA04F3D8
:1003E80045EA030130BDC4F10C04C4F1200220FA2F
:1003F80002F001FA04F340EA0300294630BD21FA6D
:1004080004F0294630BD94F0000F83F4801306BF32
:1004180081F480110134013D4EE77FEA645C18BF26
:100428007FEA655C29D094EA050F08BF90EA020FBD
:1004380005D054EA000C04BF1946104630BD91EAB5
:10044800030F1EBF0021002030BD5FEA545C05D1B8
:100458004000494128BF41F0004130BD14F58004F7
:100468003CBF01F5801130BD01F0004545F0FE416B
:1004780041F470014FF0000030BD7FEA645C1ABFA0
:10048800194610467FEA655C1CBF0B46024650EAD7
:10049800013406BF52EA033591EA030F41F4002103
:1004A80030BD00BF90F0000F04BF0021704730B589
:1004B8004FF4806404F132044FF000054FF000015E
:1004C80050E700BF90F0000F04BF0021704730B51F
:1004D8004FF4806404F1320410F0004548BF4042F4
:1004E8004FF000013EE700BF42004FEAE2014FEA49
:1004F80031014FEA02701FBF12F07F4393F07F4F24
:1005080081F06051704732F07F4208BF704793F026
:100518007F4F04BF41F40021704730B54FF4607439
:1005280001F0004521F000411CE700BF50EA01023C
:1005380008BF704730B54FF000050AE050EA0102E5
:1005480008BF704730B511F0004502D5404261EB55
:1005580041014FF4806404F132045FEA915C3FF496
:10056800D8AE4FF003025FEADC0C18BF03325FEA33
:10057800DC0C18BF033202EBDC02C2F1200300FAE4
:1005880003FC20FA02F001FA03FE40EA0E0021FA09
:1005980002F11444BDE600BF70B54FF0FF0C4CF4F7
:1005A800E06C1CEA11541DBF1CEA135594EA0C0FA9
:1005B80095EA0C0F00F0DEF82C4481EA030621EAE4
:1005C8004C5123EA4C5350EA013518BF52EA03351F
:1005D80041F4801143F4801338D0A0FB02CE4FF0D1
:1005E8000005E1FB02E506F00042E0FB03E54FF001
:1005F8000006E1FB03569CF0000F18BF4EF0010EF9
:10060800A4F1FF04B6F5007F64F5407404D25FEAF4
:100618004E0E6D4146EB060642EAC62141EA5551A7
:100628004FEAC52040EA5E504FEACE2EB4F1FD0CE9
:1006380088BFBCF5E06F1ED8BEF1004F08BF5FEA67
:10064800500E50F1000041EB045170BD06F0004619
:1006580046EA010140EA020081EA0301B4EB5C04C6
:10066800C2BFD4EB0C0541EA045170BD41F48011BE
:100678004FF0000E013C00F3AB8014F1360FDEBFE3
:10068800002001F0004170BDC4F10004203C35DABF
:100698000C341BDC04F11404C4F1200500FA05F342
:1006A80020FA04F001FA05F240EA020001F00042E3
:1006B80021F0004110EBD37021FA04F642EB060159
:1006C8005EEA430E08BF20EAD37070BDC4F10C0483
:1006D800C4F1200500FA04F320FA05F001FA04F247
:1006E80040EA020001F0004110EBD37041F1000133
:1006F8005EEA430E08BF20EAD37070BDC4F120053E
:1007080000FA05F24EEA020E20FA04F301FA05F2A5
:1007180043EA020321FA04F001F0004121FA04F24D
:1007280020EA020000EBD3705EEA430E08BF20EA1D
:10073800D37070BD94F0000F0FD101F00046400057
:1007480041EB010111F4801F08BF013CF7D041EAD9
:10075800060195F0000F18BF704703F000465200DD
:1007680043EB030313F4801F08BF013DF7D043EAAE
:100778000603704794EA0C0F0CEA135518BF95EA64
:100788000C0F0CD050EA410618BF52EA4306D1D1EB
:1007980081EA030101F000414FF0000070BD50EA0A
:1007A800410606BF1046194652EA430619D094EA94
:1007B8000C0F02D150EA013613D195EA0C0F05D17E
:1007C80052EA03361CBF104619460AD181EA0301D2
:1007D80001F0004141F0FE4141F470014FF000008A
:1007E80070BD41F0FE4141F4780170BD70B54FF025
:1007F800FF0C4CF4E06C1CEA11541DBF1CEA1355A5
:1008080094EA0C0F95EA0C0F00F0A7F8A4EB050486
:1008180081EA030E52EA03354FEA013100F088807D
:100828004FEA03334FF0805545EA131343EA126346
:100838004FEA022245EA111545EA10654FEA0026FB
:100848000EF000419D4208BF964244F1FD0404F5B4
:10085800407402D25B084FEA3202B61A65EB030510
:100868005B084FEA32024FF480104FF4002CB6EBCD
:10087800020E75EB030E22BFB61A754640EA0C004D
:100888005B084FEA3202B6EB020E75EB030E22BF8D
:10089800B61A754640EA5C005B084FEA3202B6EBCE
:1008A800020E75EB030E22BFB61A754640EA9C008D
:1008B8005B084FEA3202B6EB020E75EB030E22BF5D
:1008C800B61A754640EADC0055EA060E18D04FEA1B
:1008D800051545EA16754FEA06164FEAC30343EABB
:1008E80052734FEAC2025FEA1C1CC0D111F4801F88
:1008F8000BD141EA00014FF000004FF0004CB6E781
:1009080011F4801F04BF01430020B4F1FD0C88BF1F
:10091800BCF5E06F3FF6AFAEB5EB030C04BFB6EB2A
:10092800020C5FEA500C50F1000041EB045170BD1D
:100938000EF0004E4EEA113114EB5C04C2BFD4EB4A
:100948000C0541EA045170BD41F480114FF0000ECE
:10095800013C90E645EA060E8DE60CEA135594EA4A
:100968000C0F08BF95EA0C0F3FF43BAF94EA0C0F4D
:100978000AD150EA01347FF434AF95EA0C0F7FF4C2
:1009880025AF104619462CE795EA0C0F06D152EA16
:1009980003353FF4FDAE1046194622E750EA4106FA
:1009A80018BF52EA43067FF4C5AE50EA41047FF40B
:1009B8000DAF52EA43057FF4EBAE12E74FF0FF3C70
:1009C80006E000BF4FF0010C02E000BF4FF0010C41
:1009D8004DF804CD4FEA410C7FEA6C5C4FEA430CBA
:1009E80018BF7FEA6C5C1BD001B050EA410C0CBF09
:1009F80052EA430C91EA030F02BF90EA020F00206B
:100A0800704710F1000F91EA030F58BF994208BFD1
:100A180090422CBFD8176FEAE37040F0010070478E
:100A28004FEA410C7FEA6C5C02D150EA013C07D1E5
:100A38004FEA430C7FEA6C5CD6D152EA033CD3D030
:100A48005DF8040B704700BF8446104662468C462A
:100A58001946634600E000BF01B5FFF7B7FF00285D
:100A680048BF10F1000F01BD4DF808EDFFF7F4FF86
:100A78000CBF012000205DF808FB00BF4DF808ED11
:100A8800FFF7EAFF34BF012000205DF808FB00BF34
:100A98004DF808EDFFF7E0FF94BF012000205DF856
:100AA80008FB00BF4DF808EDFFF7CEFF94BF01200B
:100AB80000205DF808FB00BF4DF808EDFFF7C4FF04
:100AC80034BF012000205DF808FB00BF4A0011D2A6
:100AD80012F5001211D20DD56FF47873B3EB625290
:100AE8000ED44FEAC12343F0004343EA505323FA9C
:100AF80002F070474FF00000704750EA013002D111
:100B08004FF0FF3070474FF0000070474FEA410246
:100B1800B2F1E04324BFB3F5001CDCF1FE5C0DD953
:100B280001F0004C4FEAC0024CEA5070B2F1004F9D
:100B380040EB830008BF20F00100704711F0804FA0
:100B480021D113F13872BCBF01F00040704741F465
:100B580080114FEA5252C2F11802C2F1200C10FA69
:100B68000CF320FA02F018BF40F001004FEAC1234D
:100B78004FEAD32303FA0CFC40EA0C0023FA02F3F1
:100B88004FEA4303CCE77FEA625307D150EA0133C7
:100B98001EBF4FF0FE4040F44000704701F0004097
:100BA80040F0FE4040F40000704700BF80F0004075
:100BB80002E000BF81F0004142001FBF5FEA41032D
:100BC80092EA030F7FEA226C7FEA236C6AD04FEA2D
:100BD8001262D2EB1363C1BFD21841404840414072
:100BE800B8BF5B42192B88BF704710F0004F40F424
:100BF800000020F07F4018BF404211F0004F41F440
:100C0800000121F07F4118BF494292EA030F3FD00B
:100C1800A2F1010241FA03FC10EB0C00C3F120031E
:100C280001FA03F100F0004302D5494260EB4000AD
:100C3800B0F5000F13D3B0F1807F06D340084FEA18
:100C4800310102F10102FE2A51D2B1F1004F40EB0D
:100C5800C25008BF20F0010040EA03007047490075
:100C680040EB0000013A28BFB0F5000FEDD2B0FA12
:100C780080FCACF1080CB2EB0C0200FA0CF0AABF35
:100C880000EBC25052421843BCBFD04018437047D3
:100C980092F0000F81F4000106BF80F400000132D9
:100CA800013BB5E74FEA41037FEA226C18BF7FEAB0
:100CB800236C21D092EA030F04D092F0000F08BFF2
:100CC8000846704790EA010F1CBF0020704712F0D9
:100CD8007F4F04D1400028BF40F00040704712F118
:100CE80000723CBF00F50000704700F0004343F07D
:100CF800FE4040F4000070477FEA226216BF0846B3
:100D08007FEA23630146420206BF5FEA412390EA75
:100D1800010F40F4800070474FF0000304E000BF6B
:100D280010F0004348BF40425FEA000C08BF70471C
:100D380043F0964301464FF000001CE050EA0102E0
:100D480008BF70474FF000030AE000BF50EA0102F5
:100D580008BF704711F0004302D5404261EB4101E2
:100D68005FEA010C02BF84460146002043F0B64307
:100D780008BFA3F18053A3F50003BCFA8CF2083A2C
:100D8800A3EBC25310DB01FA02FC634400FA02FC35
:100D9800C2F12002BCF1004F20FA02F243EB02003C
:100DA80008BF20F00100704702F1200201FA02FC9E
:100DB800C2F1200250EA4C0021FA02F243EB020091
:100DC80008BF20EADC7070474FF0FF0C1CEAD052D5
:100DD8001EBF1CEAD15392EA0C0F93EA0C0F6FD096
:100DE8001A4480EA010C400218BF5FEA41211ED074
:100DF8004FF0006343EA501043EA5111A0FB013160
:100E08000CF00040B1F5000F3EBF490041EAD37134
:100E18005B0040EA010062F17F02FD2A1DD8B3F1B0
:100E2800004F40EBC25008BF20F00100704790F01F
:100E3800000F0CF0004C08BF49024CEA502040EA71
:100E480051207F3AC2BFD2F1FF0340EAC250704737
:100E580040F400004FF00003013A5DDC12F1190F75
:100E6800DCBF00F000407047C2F10002410021FAE7
:100E780002F1C2F1200200FA02FC5FEA310040F1FF
:100E8800000053EA4C0308BF20EADC70704792F078
:100E9800000F00F0004C02BF400010F4000F013AB0
:100EA800F9D040EA0C0093F0000F01F0004C02BFAB
:100EB800490011F4000F013BF9D041EA0C018FE71A
:100EC8000CEAD15392EA0C0F18BF93EA0C0F0AD020
:100ED80030F0004C18BF31F0004CD8D180EA010046
:100EE80000F00040704790F0000F17BF90F0004FDF
:100EF800084691F0000F91F0004F14D092EA0C0FC1
:100F080001D142020FD193EA0C0F03D14B0218BF53
:100F1800084608D180EA010000F0004040F0FE4099
:100F280040F40000704740F0FE4040F44000704735
:100F38004FF0FF0C1CEAD0521EBF1CEAD15392EAB4
:100F48000C0F93EA0C0F69D0A2EB030280EA010CA4
:100F580049024FEA402037D04FF0805343EA11113D
:100F680043EA10130CF000408B4238BF5B0042F19B
:100F78007D024FF4000C8B4224BF5B1A40EA0C0040
:100F8800B3EB510F24BFA3EB510340EA5C00B3EB72
:100F9800910F24BFA3EB910340EA9C00B3EBD10F60
:100FA80024BFA3EBD10340EADC001B0118BF5FEAB2
:100FB8001C1CE0D1FD2A3FF650AF8B4240EBC250DB
:100FC80008BF20F0010070470CF0004C4CEA50209C
:100FD8007F32C2BFD2F1FF0340EAC250704740F4EB
:100FE80000004FF00003013A37E792F0000F00F0DD
:100FF800004C02BF400010F4000F013AF9D040EA5B
:101008000C0093F0000F01F0004C02BF490011F4EE
:10101800000F013BF9D041EA0C0195E70CEAD153E6
:1010280092EA0C0F08D142027FF47DAF93EA0C0FCD
:101038007FF470AF084676E793EA0C0F04D14B02B1
:101048003FF44CAF08466EE730F0004C18BF31F063
:10105800004CCAD130F000427FF45CAF31F000435D
:101068007FF43CAF5FE700BF4FF0FF3C06E000BFF6
:101078004FF0010C02E000BF4FF0010C4DF804CD19
:101088004FEA40024FEA41037FEA226C18BF7FEA29
:10109800236C11D001B052EA530C18BF90EA010F2B
:1010A80058BFB2EB030088BFC81738BF6FEAE170BA
:1010B80018BF40F0010070477FEA226C02D15FEA56
:1010C800402C05D17FEA236CE4D15FEA412CE1D0C2
:1010D8005DF8040B704700BF844608466146FFE789
:1010E8000FB5FFF7C9FF002848BF10F1000F0FBD6B
:1010F8004DF808EDFFF7F4FF0CBF012000205DF864
:1011080008FB00BF4DF808EDFFF7EAFF34BF0120E8
:1011180000205DF808FB00BF4DF808EDFFF7E0FF81
:1011280094BF012000205DF808FB00BF4DF808EDD2
:10113800FFF7D2FF94BF012000205DF808FB00BF35
:101148004DF808EDFFF7C8FF34BF012000205DF817
:1011580008FB00BF4FEA40024FEA41037FEA226CD6
:1011680002D15FEA402C08D17FEA236C02D15FEA02
:10117800412C02D14FF0000070474FF0010070473A
:101188004FEA4002B2F1FE4F0FD34FF09E03B3EB8C
:1011980012620DD94FEA002343F0004310F0004FCC
:1011A80023FA02F018BF404270474FF00000704722
:1011B80012F1610F01D1420205D110F0004008BFC1
:1011C8006FF0004070474FF00000704742000ED2A9
:1011D800B2F1FE4F0BD34FF09E03B3EB126209D46A
:1011E8004FEA002343F0004323FA02F070474FF020
:1011F8000000704712F1610F01D1420202D14FF095
:10120800FF3070474FF00000704700BF7BB972B9DC
:101218000029BEBF00204FF0004106E008BF0028AB
:101228001CBF6FF000414FF0FF3000F0D7B9ADF1AF
:10123800080C6DE904CE002909DB002B1ADB00F04D
:101248004DF8DDF804E0DDE9022304B070474042C0
:1012580061EB4101002B1BDB00F040F8DDF804E0F6
:10126800DDE9022304B0404261EB4101524263EBE5
:1012780043037047524263EB430300F02FF8DDF855
:1012880004E0DDE9022304B0404261EB410170470C
:10129800524263EB430300F021F8DDF804E0DDE996
:1012A800022304B0524263EB4303704753B94AB96F
:1012B800002908BF00281CBF4FF0FF314FF0FF3056
:1012C80000F08CB9ADF1080C6DE904CE00F006F819
:1012D800DDF804E0DDE9022304B070472DE9F047AA
:1012E800089D8E4604468846002B4AD18A421746F6
:1012F80062D9B2FA82F64EB1C6F1200301FA06F8B5
:1013080020FA03F3B74043EA0808B4404FEA174EFF
:10131800B8FBFEF11FFA87FC0EFB118801FB0CF2EB
:10132800230C43EA08439A4209D9FB1801F1FF301C
:1013380080F0EB809A4240F2E88002393B449A1AE6
:10134800B2FBFEF00EFB102200FB0CFCA3B243EA3A
:1013580002439C4509D9FB1800F1FF3280F0D78081
:101368009C4540F2D4803B44023840EA01400021C9
:10137800A3EB0C031DB10022F340C5E90032BDE820
:10138800F0878B4205D90DB1C5E900010021084657
:10139800F5E7B3FA83F1002946D1734502D38242B7
:1013A80000F20881841A6EEB030201209046002D9A
:1013B800E5D0C5E90048E2E7002A00F09180B2FADA
:1013C80082F6002E40F0A5808A1A0121030C4FEA0C
:1013D800174E80B2BCB2B2FBFEFC0EFB1C2243EAE5
:1013E800024304FB0CF29A4207D9FB180CF1FF38B0
:1013F80002D29A4200F2E380C4469B1AB3FBFEF283
:101408000EFB123302FB04F440EA03439C4207D963
:10141800FB1802F1FF3002D29C4200F2CD80024656
:101428001B1B42EA0C40A5E7C1F120068B4022FABB
:1014380006F71F432EFA06FA4FEA1749BAFBF9F8DE
:101448000EFA01FE20FA06F309FB18AA1FFA87FC18
:1014580043EA0E0300FA01FE08FB0CF01C0C44EAF8
:101468000A44A04202FA01F20AD93C1908F1FF3AEB
:1014780080F09E80A04240F29B80A8F102083C4484
:10148800241A98B2B4FBF9F309FB134403FB0CFCD0
:1014980040EA0444A44509D93C1903F1FF3080F01F
:1014A8008580A44540F28280023B3C4443EA0840E0
:1014B800A4EB0C04A0FB028C64454346E14664D3CC
:1014C80061D05DB1BEEB030264EB090404FA06F6D1
:1014D80022FA01F31E43CC40C5E9006400214EE71F
:1014E800B1FBF2FC010C41EA0E4180B240EA014234
:1014F8003B46B1FBF7F138463C46B846BE46202687
:10150800A2EB080241EA0C4165E7014617E71046DD
:101518002BE7C6F120012EFA01FCB7400EFA06FEB1
:1015280020FA01F141EA0E014FEA174EBCFBFEF822
:10153800BCB20EFB18CC08FB04F90A0C42EA0C42B8
:10154800B04091454FEA104380B23ED9BA1808F12D
:10155800FF3C01D291451FD8A2EB0902B2FBFEF96C
:1015680009FB04F80EFB192A8AB242EA0A424245EC
:1015780029D2BA1809F1FF31C2D24245C0D2A9F125
:1015880002013A44BCE7C6459BD2B8EB02036CEBB8
:10159800070C0138E14694E7A7EB09094A44B2FB76
:1015A800FEF9A8F1020C09FB04F8DBE703467DE726
:1015B800D04665E70846FAE63B44023A30E7ACF124
:1015C800020C3B4419E749469AE7A2EB0902B2FB31
:1015D800FEF9C44609FB04F8C4E700BF704700BF22
:1015E80080B400AFBFF34F8F00BF064BDB6803F436
:1015F800E0620449044B1343CB60BFF34F8F00BF35
:1016080000BFFDE700ED00E00400FA0580B483B0F8
:1016180000AF03460A46FB711346BB71FB791BB248
:101628001B021AB2BB791BB213431BB29BB21846FA
:101638000C37BD4680BC704780B485B000AF034608
:10164800B9607A60FB81FB891B0A9BB2DAB2BB687E
:101658001A70FB89DAB27B681A7000BF1437BD466E
:1016680080BC704780B487B000AFF860B96013469B
:10167800FB8000237B611AE07B695B001A46FB68EC
:1016880013441B781BB21B021AB27B695B0001333F
:10169800F9680B441B781BB2134319B27B695B00D2
:1016A800BA6813448AB21A807B6901337B61FB886C
:1016B8005B089BB21A467B699342DDDB00BF00BF23
:1016C8001C37BD4680BC704780B487B000AFF86057
:1016D800B9601346FB8000237B611CE07B695B00DB
:1016E800FA68134419887B695B000133BA681344AC
:1016F800CAB21A707B695B00FA6813441B881B0A1C
:101708009AB27B695B001946BB680B44D2B21A7067
:101718007B6901337B61FB885B089BB21A467B6956
:101728009342DBDB00BF00BF1C37BD4680BC70475F
:1017380080B485B000AF78600B467B804FF6FF73AE
:10174800FB810023BB8122E0BB897A6813441B78A4
:101758001A46FB895340FB810023FB7211E0FB8989
:1017680003F00103002B06D0FB895B089AB20D4BEE
:101778005340FB8102E0FB895B08FB81FB7A013364
:10178800FB72FB7A072BEAD9BB890133BB81BA8983
:101798007B889A42D8D3FB8918461437BD4680BC4B
:1017A800704700BF01A0FFFF80B588B000AF786028
:1017B80039602D4BBB614FF00003FB612B4B7B6104
:1017C8003B68002B17D12A4BFB612A497868FFF741
:1017D800B7FC0346002B02D0264B7B6025E04FF078
:1017E80000017868FFF78EFC0346002B1DD04FF0F0
:1017F80000037B6019E03B68102B16D11E4BFB6180
:101808001E497868FFF79CFC0346002B02D01B4B4F
:101818007B600AE04FF000017868FFF773FC03462D
:10182800002B02D04FF000037B60F9697868FFF75E
:101838007FFB03463B61B9693869FFF779FB0346CB
:1018480079691846FFF7C0FA03461846FFF7BEFC49
:101858000346FB60FB6800223968094808F079FBF9
:1018680000BF2037BD4680BD3333534000F07F456D
:101878000000C04000007041D7A350400000204144
:10188800F84F00202DE9F0438DB002AF002387F810
:1018980027308B4B1B785A2B40F0F280884B5B78B3
:1018A800A52B40F0ED806B461E46854B9B78033395
:1018B80087F8263097F82630814AD35C5A2B2CD1EA
:1018C80097F8263003337E4AD35C832B25D197F8CB
:1018D800263002337A4AD35C033387F82630784BB4
:1018E8009B780333FB74FB7C3B620BE0FB7C3A6A1E
:1018F800D31A73493A6A0A441178714AD1543B6A37
:1019080001333B62FA7C97F8263013443A6A9A42CC
:10191800ECDB6C49002005F077F8694B9B78023BBB
:10192800D9B20B46013BFB60CBB2002298469146E8
:101938004FF000024FF000034FEAC90343EA58731F
:101948004FEAC802CBB200221C4615464FF00002EF
:101958004FF00003EB0043EA5473E2000B460733F1
:10196800DB08DB00ADEB030D02AB0033BB600023EB
:10197800FB610BE0FB690333514AD05CBA68FB6931
:10198800134402461A70FB690133FB614C4B9B7888
:10199800023BFA699A42EDDB0B461946B868FFF735
:1019A800C7FE0346FB8097F82630013B444AD25CC9
:1019B80097F82630023B4249CB5C19461046FFF7A0
:1019C80025FE0346BB80FA88BB889A424FD13C4B20
:1019D800DB78822B02D1022387F82730384BDB785B
:1019E800832B4BD1364B1B79354A52791146184611
:1019F800FFF70CFE03467B807B8849F29A7293427C
:101A08003CD07B88842B39D07B88B3F5E44F35D024
:101A18002B4B1B791A462A4B5B792B49002004F083
:101A2800F3FF002007F040FC0023BB6115E0BB6911
:101A38005A1CBB695B0007332149CB5C1846BB695C
:101A480004335B001E49CB5C009303461F4900200A
:101A580004F0DAFFBB690133BB61194B9B791A4665
:101A6800BB699342E3DB032387F8273006E0184974
:101A7800002004F0C9FF012387F82730B54618E095
:101A88001449002004F0C0FF134B01221A700023F0
:101A98007B610BE00A4A7B69134419780F4A7B691A
:101AA80013440A461A707B6901337B617B69132BE7
:101AB800F0DD97F8273018462C37BD46BDE8F0838F
:101AC800A84C0020E0060108F80601082C070108C8
:101AD80044070108540701084A4700204C470020E2
:101AE80080B586B000AFF860B9607A60134ABB6809
:101AF8001360134AFB681360124A7B681360642200
:101B08001149F8680DF061F90346FB7500233B6144
:101B1800FB681B681B683B61FB681B685B683B6173
:101B28003B69FB681B68DA68FB681B6842F01002B7
:101B3800DA60FB7D18461837BD4680BD704F00201F
:101B4800744F0020784F00200C4D00202DE9F047FD
:101B58008CB000AF78600B467B8013467B706B4679
:101B68009A46002387F82F307B785B08FB77FB7F4A
:101B780003F10806731EBB6132460023904699465E
:101B88004FF000024FF000034FEAC90343EA5873CD
:101B98004FEAC8023246002314461D464FF00002A1
:101BA8004FF00003EB0043EA5473E2003346073377
:101BB800DB08DB00ADEB030D6B4600337B617B6913
:101BC8005A221A707B69A5225A707B6906229A707C
:101BD8007B698322DA707B881B0A9BB2FB747B8843
:101BE800BB747B69FA7C1A717B69BA7C5A717B6910
:101BF800FA7F9A710323BB620CE0BB6A033B7969E5
:101C0800BA6A0A44127830333B4403F8282CBB6A7A
:101C18000133BB62BB6A062BEFDD07F10803042121
:101C28001846FFF785FD03463B823B8ADAB27B699B
:101C3800DA713B8A1B0A9BB2DAB27B691A720023FB
:101C480087F827306422002133480EF065F8334BBB
:101C580000221A70324B1B68B2B2796918460DF02F
:101C68007FF897F82730013387F8273007F012FB01
:101C7800F86000BF294B1B78012B06D007F00AFB40
:101C88000246FB68D31A0A2BF4D907F003FB024675
:101C9800FB68D31A0A2B28D897F82730032B24D8A7
:101CA800FFF7F0FD034687F82F3097F82F30032B06
:101CB80016D100233B620AE03B6ADA1D3B6A796869
:101CC8000B4415498A5C1A703B6A01333B62FB7FFF
:101CD8005B003A6A9A42EFDB104B00221A7013E05D
:101CE8001049002004F090FEACE797F82730032B4A
:101CF80004D80D49002004F087FEA3E7074B002213
:101D08001A70064B00225A7097F82F30D54618469D
:101D18003037BD46BDE8F087A84C00207C4F002036
:101D2800744F0020680701087C07010890B5F1B0DE
:101D380000AF024607F5E073A3F5DD731A8007F5D7
:101D4800E073A3F5C07307F5B8721A6007F5E0737E
:101D5800A3F5C07307F59C725A6007F5E073A3F505
:101D6800C07307F580729A6007F5E073A3F5C07336
:101D780007F1C802DA6007F5E073A3F5C07307F14D
:101D880090021A6107F5E073A3F5C07307F15802D2
:101D98005A6107F5E073A3F5C47345F6A5221A80C6
:101DA80007F5E073A3F5C47308225A8007F5E073BA
:101DB800A3F5C4730222DA800023C7F8BC315AE0C5
:101DC800D7F8BC319BB21B029BB201339AB207F51C
:101DD800E073A3F5C4739A8007F138030822B02191
:101DE800184600F0C9FE322007F05EFA07F5E073E6
:101DF800A3F5DC73184630231A4600210DF08CFF3A
:101E080007F108033022B4211846FFF79FFE00238C
:101E1800C7F8B83126E0D7F8B8315B0007F5E072AB
:101E2800A2F5DC72D05CD7F8B8315B00013307F556
:101E3800E072A2F5DC72D15C07F5E073A3F5C0731C
:101E4800D7F8BC2153F82220D7F8B83104335B0007
:101E5800D418FFF7DBFB03462380D7F8B8310133EA
:101E6800C7F8B831D7F8B831172BD4D9D7F8BC315F
:101E78000133C7F8BC31D7F8BC31052BA0DD0023EE
:101E8800C7F8B4313AE007F5E073A3F5C073D7F8A3
:101E9800B42153F8223045F6A5221A80D7F8B43178
:101EA8009BB21B029AB207F5E073A3F5C073D7F88B
:101EB800B41153F821300433013292B21A8007F575
:101EC800E073A3F5C073D7F8B42153F82230063372
:101ED80003221A8007F5E073A3F5C073D7F8B4217D
:101EE80053F822301C3307F5E072A2F5DD72128830
:101EF8001A80D7F8B4310133C7F8B431D7F8B43100
:101F0800052BC0DD0823C7F8B0313BE00023C7F834
:101F1800AC312EE007F5E073A3F5C073D7F8AC2118
:101F280053F822300233D7F8B02192B21A8007F55D
:101F3800E073A3F5C073D7F8AC2153F82230083307
:101F4800D7F8B02192B21A8007F5E073A3F5C073F1
:101F5800D7F8AC2153F822303822B021184600F0C7
:101F68000BFE322007F0A0F9D7F8AC310133C7F8DF
:101F7800AC31D7F8AC31052BCCDDD7F8B031013313
:101F8800C7F8B031D7F8B031172BBFDD0023C7F839
:101F9800A8312AE007F5E073A3F5C073D7F8A821A4
:101FA80053F82230023318221A8007F5E073A3F59C
:101FB800C073D7F8A82153F82230083318221A80A2
:101FC80007F5E073A3F5C073D7F8A82153F82230BA
:101FD8003822B021184600F0CFFD322007F064F90E
:101FE800D7F8A8310133C7F8A831D7F8A831032B9F
:101FF800D0DD00BF00BF07F5E277BD4690BD000009
:1020080080B582B000AF0346FB80FB88032B1BD84A
:1020180001A252F823F000BF31200008392000083F
:1020280041200008492000080720FFF77FFE0BE049
:102038003020FFF77BFE07E03120FFF777FE03E053
:102048003920FFF773FE00BF00BF0837BD4680BDCB
:1020580090B585B000AF0446084611461A46234697
:10206800FB800346BB800B467B8013463B80BB88C6
:102078003B817B887B813B88BB81FB88053399B298
:1020880007F108030622184600F076FD00BF143752
:10209800BD4690BD80B582B000AF0346FB80FB888B
:1020A800032B00F2CF8101A252F823F0C5200008CB
:1020B800A7210008892200086B23000843F2017356
:1020C800362235214FF48E40FFF7C2FF43F20173E9
:1020D8003622352144F20A70FFF7BAFF43F2017342
:1020E8004D224B2144F21470FFF7B2FF43F2017303
:1020F8003622352144F21E70FFF7AAFF43F201731E
:102108004122402144F23270FFF7A2FF43F20173EB
:102118004222402144F23C70FFF79AFF43F20173D8
:102128004322402144F24670FFF792FF43F20173C5
:102138004422402144F25070FFF78AFF43F20173B2
:102148004622402144F25A70FFF782FF43F201739E
:102158004522402144F26470FFF77AFF43F201738D
:102168004722402144F26E70FFF772FF43F2017379
:102178005022402144F27870FFF76AFF43F201735E
:102188004922492144F28270FFF762FF43F201734A
:102198004822482144F28C70FFF75AFF52E143F27B
:1021A8000173362235214FF48E40FFF751FF43F279
:1021B80001733622352144F20A70FFF749FF43F6CE
:1021C80001233C223A2144F21470FFF741FF43F205
:1021D80001733622352144F21E70FFF739FF43F6AA
:1021E80001234F22612144F23270FFF731FF43F699
:1021F80001235022612144F23C70FFF729FF43F686
:1022080001235122612144F24670FFF721FF43F672
:1022180001235222612144F25070FFF719FF43F65F
:1022280001235322612144F25A70FFF711FF43F64C
:1022380001235422612144F26470FFF709FF43F639
:1022480001235522612144F26E70FFF701FF43F626
:1022580001235622612144F27870FFF7F9FE43F614
:1022680001236222622144F28270FFF7F1FE43F2F9
:1022780001736022602144F28C70FFF7E9FEE1E00F
:1022880043F60123372236214FF48E40FFF7E0FE54
:1022980043F601233722362144F20A70FFF7D8FEAD
:1022A80043F601234E224C2144F21470FFF7D0FE6E
:1022B80043F601233722362144F21E70FFF7C8FE89
:1022C80043F601235722612144F23270FFF7C0FE22
:1022D80043F601235822612144F23C70FFF7B8FE0F
:1022E80043F601235922612144F24670FFF7B0FEFC
:1022F80043F601235A22612144F25070FFF7A8FEE9
:1023080043F601235B22612144F25A70FFF7A0FED5
:1023180043F601235C22612144F26470FFF798FEC2
:1023280043F601235D22612144F26E70FFF790FEAF
:1023380043F601235E22612144F27870FFF788FE9C
:1023480043F601236322632144F28270FFF780FE83
:1023580043F601235F225F2144F28C70FFF778FE79
:1023680070E043F60123752274214FF48E40FFF785
:102378006FFE43F601237522742144F20A70FFF7B9
:1023880067FE43F601237322712144F21470FFF7AC
:102398005FFE43F601237522742144F21E70FFF795
:1023A80057FE43F601237622612144F23270FFF78B
:1023B8004FFE43F601237722612144F23C70FFF778
:1023C80047FE43F601237822612144F24670FFF765
:1023D8003FFE43F601237922612144F25070FFF752
:1023E80037FE43F601237A22612144F25A70FFF73F
:1023F8002FFE43F601237B22612144F26470FFF72C
:1024080027FE43F601237C22612144F26E70FFF718
:102418001FFE43F601237D22612144F27870FFF705
:1024280017FE43F601236422642144F28270FFF709
:102438000FFE43F601236022602144F28C70FFF7FF
:1024480007FE00BF00BF0837BD4680BD90B599B0F4
:1024580000AF0346FB800B467B7113467B8045F635
:10246800A523A7F85430FB88A7F856307B799BB290
:102478001B029BB202339BB2A7F858300223A7F87D
:102488005A3007F154030822B021184600F074FBB3
:10249800322006F009FF07F13403202200211846F4
:1024A8000DF03AFC07F134032022B4211846FFF757
:1024B8004DFB07F10C032822002118460DF02CFCD7
:1024C80045F6A523BB81FB88FB817B799BB21B0268
:1024D8009BB202339BB23B8203237B820023FB65C2
:1024E8001BE0FB6D5B0060333B4413F82C2CFB6D49
:1024F8005B00013360333B4413F82C1CFB6D1C1D3F
:102508001046FFF783F803461A46630060333B44DE
:1025180023F8542CFB6D0133FB65FB6D0F2BE0D9C1
:102528007B88FB8507F10C032822B021184600F0B0
:1025380023FB322006F0B8FE00BF6437BD4690BDCD
:1025480090B5A9B000AF0446084611461A4623467E
:10255800FB8003467B710B463B711346FB7045F6C7
:10256800A523A7F89430FB88A7F896307B799BB20F
:102578001B029BB206339BB2A7F898300223A7F838
:102588009A3007F194030822B021184600F0F4FAB3
:10259800322006F089FE07F1540340220021184634
:1025A8000DF0BAFB07F154034022B4211846FFF797
:1025B800CDFA45F6A523BB81FB88FB817B799BB2CD
:1025C8001B029BB206339BB23B8203237B82002310
:1025D800C7F89C3020E0D7F89C305B00A0333B4420
:1025E80013F84C2CD7F89C305B000133A0333B44E4
:1025F80013F84C1CD7F89C301C1D1046FFF706F842
:1026080003461A466300A0333B4423F8942CD7F8BA
:102618009C300133C7F89C30D7F89C301F2BDAD98F
:102628003B8D1BB223F0FF031AB23B791BB2134355
:102638001BB29BB23B85FB789BB21B029AB297F800
:10264800B0309BB213439BB27B857B8F1BB223F0C8
:10265800FF031AB297F8B4301BB213431BB29BB2F4
:102668007B8707F10C034822B021184600F084FA52
:10267800322006F019FE00BFA437BD4690BD80B5D4
:1026880084B002AF0346FB80FB88022B1AD13523A6
:1026980001934623009332230B2200211920FFF7D0
:1026A8004FFF642006F000FE352301934623009374
:1026B80032230B2201213220FFF742FF642006F06B
:1026C800F3FD37E0FB88032B1AD01A230193462326
:1026D800009323230F2200211920FFF731FF6420E4
:1026E80006F0E2FD1A230193342300931A230F22E4
:1026F80001213220FFF724FF642006F0D5FD19E000
:10270800382301934623009332230A2200211920FB
:10271800FFF716FF642006F0C7FD38230193462310
:10272800009332230A2201213220FFF709FF642097
:1027380006F0BAFD00BF0837BD4680BD80B5A6B01B
:1027480000AF0346FB80FB88032B00F2D88101A26F
:1027580052F823F06D270008552800083B29000887
:102768001D2A00080023C7F894301AE0AB4B1B68F9
:102778007B61D7F894309BB21A4652001A449200F3
:1027880013449BB203F58043093399B207F114034C
:102798000422184600F0F0F9D7F894300133C7F84E
:1027A8009430D7F89430632BE0DD9C4B1B68C7F856
:1027B800843007F18403042244F21D51184600F0C6
:1027C800DBF90023A7F8803007F18003022244F2E6
:1027D8001551184600F0D0F94FF48043A7F87C3023
:1027E80007F17C03022244F21F51184600F0C4F995
:1027F8008A4B1B68BB6707F17803042244F22A510D
:10280800184600F0B9F90023A7F8743007F17403EB
:10281800022244F22251184600F0AEF94FF48043E8
:10282800A7F8703007F17003022244F22C511846C1
:1028380000F0A2F97A4B1B68FB6607F16C030422CF
:1028480044F23751184600F097F958E10023C7F8C9
:1028580090301AE0714B1B683B61D7F890309BB2FF
:102868001A4652001A44920013449BB203F580435F
:10287800093399B207F110030422184600F07CF9D5
:10288800D7F890300133C7F89030D7F89030632BE1
:10289800E0DD624B1B68BB6607F16803042244F263
:1028A8001D51184600F068F90023A7F8643007F1B5
:1028B8006403022244F21551184600F05DF94FF402
:1028C8008043A7F8603007F16003022244F21F51E9
:1028D800184600F051F9514B1B68FB6507F15C0382
:1028E800042244F22A51184600F046F90023A7F8BA
:1028F800583007F15803022244F22251184600F0DA
:102908003BF94FF48043A7F8543007F154030222EF
:1029180044F22C51184600F02FF9414B1B683B65D7
:1029280007F15003042244F23751184600F024F905
:10293800E5E00023C7F88C301AE03A4B1B68FB60CF
:10294800D7F88C309BB21A4652001A4492001344AE
:102958009BB203F58043093399B207F10C030422B3
:10296800184600F009F9D7F88C300133C7F88C30D5
:10297800D7F88C30632BE0DD2A4B1B68FB6407F12A
:102988004C03042244F21D51184600F0F5F82023A8
:10299800A7F8483007F14803022244F215511846B7
:1029A80000F0EAF84FF40043A7F8443007F1440375
:1029B800022244F21F51184600F0DEF8194B1B683A
:1029C8003B6407F14003042244F22A51184600F000
:1029D800D3F82023BB8707F13C03022244F222519B
:1029E800184600F0C9F84FF400433B8707F1380355
:1029F800022244F22C51184600F0BEF8094B1B681D
:102A08007B6307F13403042244F23751184600F07F
:102A1800B3F874E00023C7F8883020E09007010875
:102A28009407010898070108374B1B68BB60D7F863
:102A380088309BB21A4652001A44920013449BB243
:102A480003F58043093399B207F1080304221846B5
:102A580000F092F8D7F888300133C7F88830D7F8F3
:102A68008830632BE0DD284B1B683B6307F130039C
:102A7800042244F21D51184600F07EF82023BB853D
:102A880007F12C03022244F21551184600F074F89D
:102A98004FF400433B8507F12803022244F21F51FB
:102AA800184600F069F8184B1B687B6207F124038D
:102AB800042244F22A51184600F05EF820233B8491
:102AC80007F12003022244F22251184600F054F87C
:102AD8004FF40043BB8307F11C03022244F22C513C
:102AE800184600F049F8084B1B68BB6107F118034A
:102AF800042244F23751184600F03EF800BF00BFE8
:102B08009837BD4680BD00BF9C07010880B582B0DC
:102B180000AF184B03F50053B3F85A3FFB80BB1DB9
:102B2800022248F23A41184600F026F8114B03F504
:102B38000053B3F85A3F1846FFF762FA0D4B03F5F6
:102B48000053B3F85A3F1846FFF7A4FA094B03F5A8
:102B58000053B3F85A3F1846FFF7F0FD054B03F54D
:102B68000053B3F85A3F1846FFF789FD00BF0837EE
:102B7800BD4680BDF80000202DE9F04F93B000AFAE
:102B880078610B467B8213467B746B467B6000231F
:102B980087F847307B7C5B0887F83A3097F83A30FB
:102BA80004335E00731E7B6332460023BA60FB6009
:102BB8004FF000024FF00003F968CB00D7E902019B
:102BC800844643EA5C730146CA00324600239246B3
:102BD8009B464FF000024FF000034FEACB0343EA55
:102BE8005A734FEACA0233460733DB08DB00ADEB02
:102BF800030D6B4600333B633B6B5A221A703B6BE9
:102C0800A5225A7097F83A305B00DBB20533DAB286
:102C18003B6B9A703B6B8222DA707B8A1B0A9BB2F1
:102C280087F82F307B8A87F82E303B6B97F82F2058
:102C38001A713B6B97F82E205A7100233B641AE0F7
:102C48003B6C5B007A6913441B887B837B8B1B0A74
:102C58009BB27B767B8B3B763B6C03335B003A6B9A
:102C6800797ED1543B6C5B0007333A6B397ED15483
:102C78003B6C01333B6497F83A303A6C9A42DFDB9D
:102C880097F83A305B00D91C4B1EBB620A460023FA
:102C9800904699464FF000024FF000034FEAC903EF
:102CA80043EA58734FEAC8020A46002314461D46F1
:102CB8004FF000024FF00003EB0043EA5473E200C8
:102CC8000B460733DB08DB00ADEB030D6B46003327
:102CD8007B620323FB630AE0FB6B033B396BFA6BF4
:102CE8000A4411787A6AD154FB6B0133FB6397F875
:102CF8003A3003335B00FA6B9A42EDDB97F83A30CF
:102D08009BB25B009BB203339BB21946786AFEF70D
:102D18000FFD03467B8497F83A3003335B007A8CC7
:102D2800D1B23A6BD1547B8C1B0A9AB297F83A30DD
:102D3800013B5B000933D1B23A6BD154002387F8C9
:102D48003B30374B1B78012B61D0364B1B681B6817
:102D580003F01003102B19D0324B93F84130DBB23B
:102D6800202B13D1642200212F480CF0D5FF2C4BC7
:102D780000221A702D4B1B68B2B2396B18460BF043
:102D8800EFFF97F83B30013387F83B3006F082FAC3
:102D9800F86100BF224B1B78012B06D006F07AFAA7
:102DA8000246FB69D31A0A2BF4D906F073FA0246D5
:102DB800FB69D31A0A2B19D897F83B30032B15D87F
:102DC800FEF760FD034687F8473097F84730022B37
:102DD80003D1134B00221A7018E097F84730032BE1
:102DE80014D01349002003F00FFEAAE797F83B30F0
:102DF800032B04D80F49002003F006FEA1E7084B77
:102E080000225A70064B00221A7000E000BF97F8A3
:102E18004730D7F804D018464C37BD46BDE8F08F88
:102E28007C4F002008520020A84C0020744F00203E
:102E3800A00701087C07010880B58CB000AF0346E5
:102E4800FB71002387F82F305A233B74A5237B742A
:102E58000923BB748223FB7400233B7584237B7591
:102E68005A23BB750123FB75002387F82630FB79AD
:102E780087F8253097F826303B7697F825307B760B
:102E88000323BB620DE0BB6A033B07F11001BA6A7A
:102E98000A44127830333B4403F8282CBB6A0133C8
:102EA800BB62BB6A092BEEDD07F108030721184650
:102EB800FEF73EFC03467B847B8CDBB2BB767B8CC7
:102EC8001B0A9BB2DBB2FB76002387F8273064220B
:102ED80000212D480CF020FF2C4B00221A702C4B9F
:102EE800186807F1100164230C220BF0AEFE97F866
:102EF8002730013387F8273006F0CCF9F86100BF96
:102F0800224B1B78012B06D006F0C4F90246FB6958
:102F1800D31A0A2BF4D906F0BDF90246FB69D31A75
:102F28000A2B19D897F82730032B15D8FEF7AAFCD7
:102F3800034687F82F3097F82F30022B03D1134B15
:102F480000221A7018E097F82F30032B14D011497B
:102F5800002003F059FDBAE797F82730032B04D86F
:102F68000D49002003F050FDB1E7084B00225A70CC
:102F7800064B00221A7000E000BF97F82F30184661
:102F88003037BD4680BD00BFA84C00207C4F0020D4
:102F9800744F0020A00701087C07010890B587B08E
:102FA80000AF0446084611461A462346FB800346EE
:102FB800BB800B46FB701346BB700023FB7545F6C0
:102FC800A523BB81BB88FB81FB789BB21B029AB20D
:102FD800BB789BB213449BB23B82FB887B8207F190
:102FE8000C030822B0211846FFF7C6FD0346FB75FF
:102FF800FB7D18461C37BD4690BD80B582B000AF3A
:103008000023FB7100233B600EE03B68DAB2052326
:1030180000210120FFF7C2FF0346FB71322006F0B2
:1030280043F93B6801333B603B68022BEDDDFB79DC
:1030380018460837BD4680BD80B58CB000AF06F095
:1030480029F90246764B9B68D31AB3F57A7FC0F00C
:10305800DB8006F01FF90346714A93604FF4005174
:10306800704807F062FF03F02FFF6F4B5B78012B6E
:1030780040F0CA806D4B9B699AB26D4B03F50053C3
:10308800DA816A4B9B689AB2694B03F500539A81BF
:10309800664B9B689BB2BB83644B9B699BB2FB836B
:1030A80007F11C03042241F206011846FFF764FDEC
:1030B8005F4B03F580431B88012B05D05C4B03F560
:1030C80080431B88032B06D102F02CFF01F0CAFEB7
:1030D80001F0ECFE8FE0564B03F580431B88062B6E
:1030E80040F08980002387F82F30002387F82E309E
:1030F8004FF480614F4807F0E9FE034687F8273010
:103108004FF400614B4807F0E1FE034687F826308C
:103118004FF48051474807F0D9FE034687F8253019
:103128004FF40051434807F0D1FE034687F8243096
:103138004FF480413F4807F0C9FE034687F8233023
:103148004FF400413B4807F0C1FE034687F82230A0
:103158000023BB6219E04021324807F0B7FE03465E
:10316800012B02D1012387F82F3080212D4807F049
:10317800ADFE0346012B02D1012387F82E30002033
:1031880006F092F8BB6A0133BB62BB6A182BE2DD1A
:10319800264B1B689BB2BB80244B5B689BB2FB80B1
:1031A800224B9B689BB23B8197F827309BB27B816F
:1031B80097F826309BB2BB8197F825309BB2FB81EC
:1031C80097F824309BB23B8297F823309BB27B82DE
:1031D80097F822309BB2BB8297F82F309BB2FB82C4
:1031E80097F82E309BB23B833B1D16224FF4245197
:1031F8001846FFF7C1FC0E4BB3F8A430012B01D0E1
:1032080000F00AFB00F058FB02F080FE00F014F812
:1032180000F038F901F0BCFF00BF3037BD4680BD73
:10322800BC000020001001407C4F0020744C00209E
:10323800F8000020000C0140B0B58AB004AF06F0D9
:1032480029F80246804B5B68D31AB3F5FA7FC0F0C1
:10325800F7807E4B5B78012B00F0ED807C4B1B7870
:10326800042B00F2E88007F1100302220F21184610
:10327800FEF76CFC0346032B40F0A480744B00223D
:103288001A703B7C1A467B7C7249002003F0BCFB19
:1032980007F10B0407F10D0207F10E0107F10F000A
:1032A80007F10903029307F10A03019307F10C03DD
:1032B8000093234601F0EDFF787BB97BFA7B3C7BDA
:1032C800BB7A7D7A01950093234605F063FA0023C3
:1032D8007B6114E0604A7B6932F813301A465F4B11
:1032E80033F81230BB805C4A7B6932F813103B1DFF
:1032F80002221846FFF740FC7B6901337B617B693A
:103308000E2BE7D9554B03F50053DB8ADBB2013BA3
:10331800DBB219464FF4003002F0C2FD4F4B03F503
:103328000053B3F85A3F002B01D0FFF7EFFB4B4B8C
:1033380003F50053B3F8663F1A4600210320FFF750
:1033480085F8464B03F50053B3F8663F1A4601214A
:103358000320FFF77BF801F0BBFC404B03F500535B
:103368009B881A4613461B019B1A9B001A463B4B27
:1033780003F500531B891344184601F0F5FF034673
:10338800374A1360354B03F50053B3F8523F012B0E
:1033980003D1012001F070FC02E0002001F06CFC78
:1033A800FFF72BFE0023FB80BB1D02224FF4714167
:1033B8001846FFF7E1FB0020FFF73EFD234B0122F3
:1033C8005A7033E0274B1B6818460BF023FD26483C
:1033D8000BF009FC0346002B05D02449002003F01C
:1033E80013FB04F08FFE002005F05EFF1E480BF073
:1033F800AAFB0346002B05D01D49002003F004FB5F
:1034080004F080FE1B4A1C491748FEF769FB034677
:10341800002B05D01949002003F0F6FA04F072FEDB
:103428000B4B1B780133DAB2094B1A7000220421C6
:10343800134807F062FD05F02DFF0346024A53606A
:1034480000BF1837BD46B0BDBC0000207C4F00202F
:1034580078470020B407010804000020F800002085
:1034680064470020744F002008520020D00701084C
:10347800E40701089452002000480040F8070108BA
:103488000010014080B500AF204B5B78002B3AD08C
:103498001E4B1B78012B36D11C4B00221A70FEF7ED
:1034A800F1F90346032B2ED100F038FA184B03F537
:1034B80080431B88012B05D0154B03F580431B88DF
:1034C800032B02D100F01AFE1DE0114B03F58043D7
:1034D8001B88022B0BD00E4B03F580431B88032B54
:1034E80005D00B4B03F580431B88042B02D101F058
:1034F800EBF808E0064B03F580431B88062B02D146
:1035080000F008F8FFE700BF80BD00BF7C4F002037
:10351800F8000020B0B59AB000AFB74B1B79B64A97
:10352800527911461846FEF771F80346A7F8663037
:10353800B14BDB79B04A127A11461846FEF766F8A5
:103548000346A7F86430B7F8663042F60A12934289
:103558001ED9B7F8663042F61C12934218D8A74A0B
:103568003B1D1146482218460CF008FCB7F8663097
:10357800A3F524530B3B9B0068333B4453F8643C4E
:10358800B7F86420D2B21146184602F089FC5EE012
:10359800B7F8663042F62912934233D042F6291220
:1035A800934254DC42F61D12934204D042F61E1296
:1035B800934215D04BE00121914802F071FC914BE8
:1035C8003C1D1D460FCD0FC40FCD0FC42B682380A3
:1035D8003B1D222242F60B111846FFF7CDFA36E0C2
:1035E8000021894802F05CFC3B1D26220021184678
:1035F8000CF092FB3B1D262242F60B111846FFF7F2
:10360800BBFA24E0814B03F5804300221A80002195
:103618007D4802F045FC3221002001F0D3FE002154
:103628004FF00000FEF7C0F810214FF00000FEF741
:10363800BBF83B1D3C22002118460CF06DFB3B1DDE
:103648003C2242F60B111846FFF796FA00BFB7F86E
:10365800663042F61E12934230D9B7F8663042F609
:10366800221293422AD807F15C0300221A605A609A
:10367800B7F86630A3F524531F3B5B0068333B441F
:10368800B7F8642023F80C2CB7F86630A3F5245358
:103698001E3BB7F8642002FB03F34FF47A7202FB77
:1036A80003F33221184601F08DFE07F15C0308226E
:1036B80042F61F111846FFF75FFA99E0B7F866302F
:1036C80042F62212934246D9B7F8663042F62512DE
:1036D800934240D807F1540300221A609A80B7F841
:1036E8006630A3F52453223B1846FCF7EBFE4FF057
:1036F8000002474BFCF750FF02460B4614461D4696
:10370800B7F864301846FCF7DDFE02460B46204643
:103718002946FCF741FF02460B4610461946FDF7BD
:10372800F5F9034610211846FEF73EF8B7F866305B
:10373800A3F52453233B5B0068333B44B7F864206C
:1037480023F8142C07F15403062242F623111846D5
:10375800FFF712FA4CE0B7F8663042F625129342AA
:1037680046D9B7F8663042F62812934240D807F196
:103778004C0300221A609A80B7F86630A3F52453E8
:10378800253B1846FCF79EFE4FF00002214BFCF744
:1037980003FF02460B4614461D46B7F86430184628
:1037A800FCF790FE02460B4620462946FCF7F4FE3D
:1037B80002460B4610461946FDF7A8F903460021B4
:1037C8001846FDF7F1FFB7F86630A3F52453263BFA
:1037D8005B0068333B44B7F8642023F81C2C07F1DE
:1037E8004C03062242F626111846FFF7C5F9FFE7F3
:1037F80000BF6837BD46B0BDA84C00201C080108B2
:1038080078FE7E0064080108F8FE7E00F8000020BB
:10381800000008400000144080B582B000AF254B7E
:1038280003F500531B8A012B3FD1224B03F50053AC
:103838009A89204B03F500531B889A4214D91D4BD3
:1038480003F500531B8C002B2DD11A4B03F50053A5
:1038580001221A840123FB80BB1D022241F21001C0
:103868001846FFF789F91EE0124B03F500539B89B0
:103878000133104A02F500521288934213DA0D4BB5
:1038880003F500531B8C012B0DD10A4B03F5005394
:1038980000221A840023BB803B1D022241F2100142
:1038A8001846FFF769F903F033FE00BF0837BD4635
:1038B80080BD00BFF800002080B500AF164B03F5AF
:1038C80000531B8A002B24D1134B03F580431B881C
:1038D800062B1ED0104B03F500539B89322B0CD9B5
:1038E8004FF4007002F0A6FA0346002B11D1012113
:1038F8004FF4007002F0D4FA0BE04FF4007002F0BD
:1039080099FA0346012B04D100214FF4007002F00C
:10391800C7FA00BF80BD00BFF8000020F0B58FB027
:1039280004AF974B1B79964A527911461846FDF712
:103938006DFE0346FB84924BDB79914A127A11465D
:103948001846FDF763FE0346BB84FB8CB3F5205F86
:1039580000F00481B3F5205F00F3BF83B3F5145F73
:1039680000F06383B3F5145F00F3B783B3F5005F2A
:1039780000F0D880B3F5005F00F3AF8341F603028F
:10398800934200F3AA8341F2A872934208DA9C2B6F
:1039980000F0718341F29572934200F0FC829CE33F
:1039A800A3F5BD53083B5B2B00F2978301A252F8A5
:1039B80023F000BF913B00087B3D0008E34000086E
:1039C800BF3D0008E3400008E3400008E34000086A
:1039D800EF3D0008E34000081F3E0008E3400008F0
:1039E8004F3E0008E3400008A73E0008E3400008F7
:1039F800E53E0008E34000083F3F0008E3400008B8
:103A08006F3F0008E3400008E3400008E340000877
:103A1800C53F0008E3400008E3400008E340000811
:103A2800E3400008E3400008E3400008E3400008E2
:103A3800E3400008E3400008E3400008E3400008D2
:103A4800E3400008E3400008E3400008E3400008C2
:103A5800E3400008E3400008E3400008E3400008B2
:103A6800E3400008E3400008E3400008E3400008A2
:103A7800E3400008E3400008E3400008E340000892
:103A8800E3400008E3400008E3400008E340000882
:103A9800E3400008E3400008E3400008E340000872
:103AA800E3400008E3400008E3400008E340000862
:103AB800E3400008E3400008E3400008E340000852
:103AC800E3400008E3400008E3400008E340000842
:103AD800E3400008E3400008E3400008E340000832
:103AE800E3400008E3400008E3400008E340000822
:103AF800E3400008E3400008E3400008E340000812
:103B0800E3400008E3400008E3400008E340000801
:103B1800E3400008E3400008E3400008E3400008F1
:103B280005400008BB8C002B07D1164B03F58043DA
:103B380000221A8001F0CCF8C4E2BB8C012B40F0C3
:103B4800C182104B03F5804301221A80BB8CDBB283
:103B580019464FF4806002F0A3F9B3E2BB8C002B46
:103B680004D1084B03F5804300221A80BB8C012B3B
:103B780040F0AA82034B03F5804302221A80A3E295
:103B8800A84C0020F8000020D14B03F50053B3F8EF
:103B98005E2FBB8C9A4240F09080CD4B03F50053CA
:103BA800B3F8523FBB8407F12403022241F2A97102
:103BB8001846FEF7E1FFC64B03F50053B3F8563F2E
:103BC800BB8407F12403022241F2AB711846FEF7C9
:103BD800D3FFBF4B03F50053B3F85A3FBB8407F13B
:103BE8002403022241F2AD711846FEF7C5FFB84B17
:103BF80003F50053B3F85E3FBB8407F124030222A8
:103C080041F2AF711846FEF7B7FFB14B03F5005309
:103C1800B3F8623FBB8407F12403022241F2B17179
:103C28001846FEF7A9FFAA4B03F50053B3F8663F01
:103C3800BB8407F12403022241F2B3711846FEF750
:103C48009BFFA34B03F50053B3F86A3FBB8407F10E
:103C58002403022241F2B5711846FEF78DFF9C4BF2
:103C680003F50053B3F86E3FBB8407F12403022227
:103C780041F2B7711846FEF77FFF954B03F50053E5
:103C8800B3F8723FBB8407F12403022241F2B971F1
:103C98001846FEF771FF8E4B03F50053B3F8763FD5
:103CA800BB8407F12403022241F2BB711846FEF7D8
:103CB80063FF2820FFF7C0F808E2BB8C012B43D133
:103CC80007F11C03022241F2AD711846FDF73EFFD1
:103CD8007B7F1A467E4B03F50053B3F85A3F9A424E
:103CE80000F0F4817B7F1A46794B03F50053A3F863
:103CF8005A2F07F11C02022341F2AD71754801F0F9
:103D08002DFC5120FFF798F801237B8307F11A0354
:103D180002224FF471411846FEF72EFFFEF7F6FE19
:103D28006C4801F0A3FE6B4801F0CEFF00237B83B3
:103D380007F11A0302224FF471411846FEF71CFFDF
:103D48000020FFF779F8C1E1BB8C42F2B1629342DF
:103D58000BD1614B00221A605520FFF76DF85C4BC0
:103D680003F5804306221A80B0E10620FFF764F8C5
:103D7800ACE1BA8C564B03F50053A3F8522FBB8C19
:103D8800012B03D1012000F077FF02E0002000F0B2
:103D980073FFB88C07F120035A1C07F1200319465A
:103DA800FDF74AFC07F12002022341F2A9714948B4
:103DB80001F0D4FB91E1BA8C454B03F50053A3F80D
:103DC800562FB88C07F120035A1C07F12003194617
:103DD800FDF732FC07F12002022341F2AB713D48A6
:103DE80001F0BCFB79E1BA8C394B03F50053A3F819
:103DF8005E2FB88C07F120035A1C07F120031946DF
:103E0800FDF71AFC07F12002022341F2AF71314895
:103E180001F0A4FB61E1BA8C2D4B03F50053A3F824
:103E2800622FB88C07F120035A1C07F120031946AA
:103E3800FDF702FC07F12002022341F2B171254887
:103E480001F08CFB49E1BA8C214B03F50053A3F830
:103E5800662FB88C07F120035A1C07F12003194676
:103E6800FDF7EAFB07F12002022341F2B37119487A
:103E780001F074FB164B03F50053B3F8663F1A467E
:103E880000210320FEF7E2FA114B03F50053B3F8C3
:103E9800663F1A4601210320FEF7D8FA1DE1BA8CC5
:103EA8000B4B03F50053A3F86A2FB88C07F12003D6
:103EB8005A1C07F120031946FDF7BEFB07F1200243
:103EC800022341F2B571034801F048FB05E100BF48
:103ED800F8000020B85000207C470020BA8C814BA5
:103EE80003F50053A3F86E2FB88C07F120035A1C72
:103EF80007F120031946FDF79FFB07F12002022373
:103F080041F2B771784801F029FB764B03F500536D
:103F18009B881A4613461B019B1A9B001A46714B35
:103F280003F500531B891344184601F01DFA034694
:103F38006E4A1360D1E0BA8C6A4B03F50053A3F8BC
:103F4800722FB88C07F120035A1C07F12003194679
:103F5800FDF772FB07F12002022341F2B9716248B2
:103F680001F0FCFAB9E0BA8C5E4B03F50053A3F8F4
:103F7800762FB88C07F120035A1C07F12003194645
:103F8800FDF75AFB07F12002022341F2BB715648A4
:103F980001F0E4FAA1E00123BB84524B03F500537E
:103FA8000122A3F82A2F524B00221A70514B0022EB
:103FB8001A700021802001F073FF8EE0BB8C012B6A
:103FC80040F0868000237B7607F119020123002147
:103FD800454801F0C3FA002005F066F9464B1B6816
:103FE8007B6107F11403042204211846FEF7C4FD7F
:103FF8004FF47A7005F058F9FDF7F2FABA8C394B9C
:1040080003F54053DA80B88C07F120035A1C07F1F6
:1040180020031946FDF710FB07F12002022341F6A1
:104028000301314801F09AFA57E0BB8C012B51D1BA
:1040380007F10F0407F1110207F1120107F113004C
:1040480007F10D03029307F10E03019307F1100323
:104058000093234601F01DF9F87CB97C7C7C3D7CFB
:10406800BB7B7A7B00260296019200932B46224660
:1040780001F0BEF82EE0BB8C45F6A52293422BD169
:104088004FF47A7005F010F907F1080407F10A02F5
:1040980007F10B0107F10C00BB1D0293FB1D0193F7
:1040A80007F109030093234601F0F3F8B87AF97A87
:1040B8003A7B7C7AFB79BD7901950093234604F01D
:1040C80069FB09E000BF08E000BF06E000BF04E0AC
:1040D80000BF02E000BF00E000BF00BF2C37BD46B4
:1040E800F0BD00BFF8000020B85000206447002051
:1040F800484700204947002088080108B0B582B029
:1041080000AFBC4B1B79BB4A527911461846FDF7E4
:104118007DFA0346FB80B74BDB79B64A127A114623
:104128001846FDF773FA0346BB8000233B80FB88E3
:1041380041F29672934200F0A48241F29672934241
:1041480000F3B38241F26B52934200F0DC8041F2FB
:104158006B52934200F3A98241F26A52934200F0F3
:104168008A8041F26A52934200F39F8241F2695277
:10417800934219D041F26952934200F3968241F278
:104188000B02934200F0298241F20B02934200F3A2
:104198008C8241F20802934200F0FD8041F20A024B
:1041A800934200F0A28180E2BB88012B40F0768226
:1041B8003B46022241F25B511846FDF7C7FC3B78AB
:1041C8007A7811461846FDF721FA0346BB80BA886B
:1041D800894B03F500531A80874B03F500531B885E
:1041E8001846FCF76FF904460D46844BD3E90001E5
:1041F8004FF00002824BFCF719F802460B462046A6
:104208002946FCF73BFC0346002B1ED07D4B1B7850
:10421800012B1AD0784B03F500531B881846FCF77E
:104228007BFD0446784B9B681846FCF779FD0346EE
:104238001946204603F088FA03461846FCF754F955
:1042480002460B466D49C1E900233B1D02224FF48B
:1042580080511846FEF790FC3A4602234FF48051ED
:104268006A4801F07BF9644B1B88002B40F01682EA
:1042780003F036F812E2BB88012B40F011823B466E
:10428800022241F25D511846FDF760FC3B787A78CE
:1042980011461846FDF7BAF90346BB80BA88564B53
:1042A80003F500539A803B1D022241F20201184691
:1042B800FEF762FC504B03F500539B881A461346E1
:1042C8001B019B1A9B001A464B4B03F500531B8995
:1042D8001344184601F048F803464D4A1360464B0C
:1042E80003F500539B8A012B05D1494B1B683221EA
:1042F800184601F067F83A46022341F202014348A2
:1043080001F02CF9CCE1BB88012B40F0CB813B4676
:10431800022241F25F511846FDF718FC3B787A7883
:1043280011461846FDF772F90346BB80BA88324B2E
:1043380003F500531A813B1D022241F2040118467D
:10434800FEF71AFC2C4B03F500539B881A461346BC
:104358001B019B1A9B001A46274B03F500531B8928
:104368001344184601F000F80346294A1360224B0B
:1043780003F500539B8A012B05D1254B1B6832217D
:10438800184601F01FF83A46022341F204011F487B
:1043980001F0E4F886E1BA88174B03F500531A8256
:1043A800BA88154B03F500539A823B1D022241F24D
:1043B8000A011846FEF7E0FBBB88012B45D102F045
:1043C8008FFF01214FF4206001F06AFD00214FF4B6
:1043D800002001F065FD084B03F50053DB8A012B33
:1043E80018D13B1D022241F20C011846FEF7C4FB0E
:1043F8001DE000BFA84C0020F8000020B0500020AD
:1044080000001440A8500020744C0020B850002030
:1044180064470020A74B03F50053DB8A022B06D123
:104428003B1D022241F20E011846FEF7A5FB3B1D7B
:10443800022241F210011846FEF79EFB9E4B1B68B4
:104448003221184600F0BEFF2FE100214FF48120F1
:1044580001F026FD01214FF4002001F021FD002389
:1044680000220021954805F074FD3221002000F05B
:10447800A9FF904B03F50053DB8A012B10D13B1D9C
:10448800022241F20C011846FEF776FB0223BB809C
:104498003B1D022241F20C011846FEF76DFB15E0A8
:1044A800844B03F50053DB8A022B0FD13B1D0222FC
:1044B80041F20E011846FEF75FFB0223BB803B1D4D
:1044C800022241F20E011846FEF756FB794B03F51E
:1044D800005300221A840023BB803B1D022241F2B4
:1044E80010011846FEF748FBDFE0BA88714B03F568
:1044F80000539A82BB88012B38D100214FF4002049
:1045080001F0CEFC6B4B03F50053DB8A012B10D175
:104518003B1D022241F20C011846FEF72DFB002339
:10452800BB803B1D022241F20E011846FEF724FB18
:1045380015E0604B03F50053DB8A022B0FD13B1DBE
:10454800022241F20E011846FEF716FB0023BB803B
:104558003B1D022241F20C011846FEF70DFB564B9B
:104568001B683221184600F02DFF9EE001214FF410
:10457800002001F095FC4F4B03F50053DB8A012B1B
:1045880010D13B1D022241F20C011846FEF7F4FA45
:104598000223BB803B1D022241F20C011846FEF7A4
:1045A800EBFA15E0434B03F50053DB8A022B0FD1DE
:1045B8003B1D022241F20E011846FEF7DDFA0223E6
:1045C800BB803B1D022241F20E011846FEF7D4FAC9
:1045D8003221002000F0F6FE67E0BA88354B03F57B
:1045E8000053DA82B8883B465A1C3B461946FDF709
:1045F80023F83A46022341F20B01314800F0AEFF9E
:10460800BB88DBB2013BDBB219464FF4003001F046
:1046180047FC284B03F500539B8A012B44D1254BBB
:1046280003F50053DB8A012B12D10123BB803B1D0C
:10463800022241F20C011846FEF79EFA0023BB80C5
:104648003B1D022241F20E011846FEF795FA2BE0B7
:10465800184B03F50053DB8A022B25D10123BB80BD
:104668003B1D022241F20E011846FEF785FA00238F
:10467800BB803B1D022241F20C011846FEF77CFA72
:1046880012E00121402001F00BFC002000F0ACFBFF
:1046980004F000FE03460B4A936306E000BF04E003
:1046A80000BF02E000BF00E000BF00BF0837BD4602
:1046B800B0BD00BFF800002064470020F84F00207C
:1046C800B8500020BC00002080B5B4B000AFCC4B7F
:1046D8001B79CB4A527911461846FCF797FF0346D7
:1046E800A7F8B230B7F8B23041F29602934240F2DE
:1046F8003081B7F8B23041F2FA02934200F22981D0
:10470800C04AB7F8B2301380BD4BDB79BC4A127A85
:1047180011461846FCF77AFF0346A7F8B030B7F8F9
:10472800B230A3F58453163B9BB2A7F8A63007F125
:10473800880300221A605A609A60DA601A615A6126
:104748009A61B7F8A6301A46D200D31A9B009BB2DA
:1047580003F5FF53043399B207F188021C23AA48D2
:1047680001F053F897F8883097F8892011461846D1
:10477800FCF74CFF0346A7F886300023C7F8CC3077
:1047880022E0D7F8CC3004335B00D0333B4413F835
:10479800482CD7F8CC3004335B000133D0333B448A
:1047A80013F8483C19461046FCF730FF03461A46F2
:1047B800D7F8CC305B00D0333B4423F8602CD7F8D3
:1047C800CC300133C7F8CC30D7F8CC30092BD8DD42
:1047D80007F1A603022241F272011846FEF7CCF94E
:1047E80007F18603022241F271011846FEF7C4F967
:1047F80007F17003142241F273011846FEF7BCF961
:10480800B7F8B030012B02D0022B65D028E27F4BDD
:1048180003F5804303221A800023C7F8C83039E023
:10482800D7F8C83001335B00D0333B4413F8482C29
:10483800D7F8C8305B000333D0333B4413F8483C07
:1048480019461046FCF7E2FE0346A7F86E30D7F883
:10485800C83003F500639BB25B0099B207F16E03A1
:1048680002221846FEF788F9D7F8C83003F5006326
:104878005B00B7F86E10654A22F81310B7F86E306F
:104888001A466349002002F0BFF8D7F8C830013350
:10489800C7F8C830D7F8C830022BC1DD5B4B03F529
:1048A80000539B881A4613461B019B1A9B001A4605
:1048B800564B03F500531B891344184600F054FD6A
:1048C8000346544A136001214FF4806001F0E8FA6E
:1048D8002920FEF7B1FA3BE04C4B03F58043042254
:1048E8001A800023C7F8C4302AE0D7F8C43001334F
:1048F8005B00D0333B4413F8482CD7F8C4305B0036
:104908000333D0333B4413F8483C19461046FCF7B0
:104918007DFE0346A7F86C30D7F8C4309BB25B0025
:104928009BB203F58153193399B207F16C03022244
:104938001846FEF721F9D7F8C4300133C7F8C43058
:10494800D7F8C430022BD0DD1920FEF775FA00BF66
:1049580086E1B7F8B23041F27F02934240F03181EC
:10496800274BDB79264A127A11461846FCF74EFE89
:104978000346A7F8AA30B7F8AA30012B40F01D81EA
:10498800224B03F5804302221A801E4B1B88A3F595
:104998008453163BA7F8A83007F1640300221A6075
:1049A8005A6007F1480300221A605A609A60DA6078
:1049B8001A615A619A610023A7F844300023A7F8C6
:1049C800403007F12C0300221A605A609A60DA60BE
:1049D8001A6107F1180300221A605A609A60DA60B7
:1049E8001A6107F12C03142241F273011846FDF7EE
:1049F800ADF8002387F8C3300023C7F8BC302EE099
:104A0800A84C002060470020B8500020F800002083
:104A18008C0801086447002097F8C330012B12D096
:104A280007F12C02D7F8BC3013441B78FF2B11D1A7
:104A380007F12C02D7F8BC30134400221A70012366
:104A480087F8C33006E007F12C02D7F8BC301344CE
:104A580000221A70D7F8BC300133C7F8BC30D7F839
:104A6800BC30132BD8DD0023C7F8B83025E0D7F8C1
:104A7800B8309BB25B009BB203F58153193399B2EE
:104A880007F1140302221846FDF760F8D7F8B8308A
:104A980001335B003A7DD0333B4403F86C2CD7F8E4
:104AA800B8305B0003337A7DD0333B4403F86C2C79
:104AB800D7F8B8300133C7F8B830D7F8B830022B78
:104AC800D5DD07F14403022241F271011846FDF7D2
:104AD8003DF80023C7F8B43024E0D7F8B430072BEA
:104AE8000DDC07F16402D7F8B4301344197807F1E4
:104AF8004802D7F8B43013440A461A700DE0D7F8C4
:104B0800B430083BD0333B4413F8A41C07F14802E7
:104B1800D7F8B43013440A461A70D7F8B4300133C2
:104B2800C7F8B430D7F8B4301B2BD6DD97F844302B
:104B380087F8483097F8453087F8493007F1180169
:104B480007F12C0314221846FCF78CFDB7F8A8309F
:104B58001A46920013445B009BB203F58A5315333F
:104B680099B207F1180314221846FEF705F807F161
:104B7800400107F1440302221846FCF773FDB7F819
:104B8800A83003F587531A3399B207F1400302227C
:104B98001846FDF7F1FFB7F8A8301A46D200D31A25
:104BA8009B009BB203F5FF53043399B207F1480207
:104BB8001C232D4800F0D2FC00BF2C4B00221A8089
:104BC8004EE0B7F8B23041F26852934248D9B7F88C
:104BD800B23041F26B52934242D8254BDB79244ADA
:104BE800127A11461846FCF711FD0346A7F8AE30B5
:104BF800B7F8AE30012B33D11E4A07F10C0392E807
:104C08000300186004331980B7F8B230A3F5AB532A
:104C1800093B5B00D0333B4433F8C41C07F108035D
:104C280004221846FCF792FF002004F03DFBBB7AF3
:104C3800FA7A11461846FCF7E9FC0346A7F8AC30A7
:104C48003B7A7A7A11461846FCF7E0FC0346FB806B
:104C5800B7F8AC10BB1D02221846FDF78DFFFFE721
:104C680000BFD037BD4680BDB85000206047002047
:104C7800A84C0020AC08010880B586B000AF0346F8
:104C8800FB710023FB75FB79002B0CD00E4B1B68C6
:104C98003B6107F11003042280211846FDF76CFFE1
:104CA8000346FB750BE0094B1B68FB6007F10C031F
:104CB800042280211846FDF75FFF0346FB75FB7D44
:104CC80018461837BD4680BDB4080108B808010861
:104CD80080B582B000AF3F4B00221A703E4B0022D5
:104CE8001A703221002000F06DFB00213B4801F0D2
:104CF800D7F801214FF4002001F0D2F8384B03F522
:104D0800005300221A84364B03F5005300221A82FE
:104D1800334B03F5005300229A82314B0022A3F84B
:104D2800A4200023002200212E4805F012F90023B8
:104D3800FB80BB1D022241F210011846FDF71CFF43
:104D4800BB1D022241F20A011846FDF715FFBB1DE3
:104D5800022241F208011846FDF70EFFBB1D022290
:104D680041F295711846FDF707FF1D4B03F50053F7
:104D7800DB8A012B10D1BB1D022241F20C0118461F
:104D8800FDF7FAFE0223FB80BB1D022241F20C0153
:104D98001846FDF7F1FE15E0114B03F50053DB8AC9
:104DA800022B0FD1BB1D022241F20E011846FDF75E
:104DB800E3FE0223FB80BB1D022241F20E011846CE
:104DC800FDF7DAFE002000F00FF800BF0837BD46F7
:104DD80080BD00BF4847002049470020800C0400E0
:104DE800F8000020F84F002080B586B000AF0346D9
:104DF800FB7145F6A5233B8252237B820223BB82AB
:104E0800FB799BB2FB8207F110030822B0211846F8
:104E1800FDF7B2FEFB79002B0CBF01230023DBB2A8
:104E2800FB8107F10E03022241F296711846FDF745
:104E3800A3FEFB799BB2FB8107F10E03022241F22C
:104E480094711846FDF798FEFB799AB2044B03F566
:104E58000053A3F8282F00BF1837BD4680BD00BFF8
:104E6800F800002080B500AF402000F0E3FF0346C3
:104E7800012B15D104F00EFA02460A4B9B6BD31A8C
:104E8800094A02F50052B2F86A2F11464FF47A72B5
:104E980001FB02F2934203D90021402001F000F8FF
:104EA80000BF80BDBC000020F800002080B584B0A1
:104EB80000AFB04B9B68B3F5167F16DBAE4B03F51E
:104EC8000053B3F8203F012B0FD0AB4B03F5005331
:104ED8000122A3F8202F0123FB8107F10E030222F0
:104EE80041F290711846FDF747FEA24B9B68B3F557
:104EF800167F16DAA04B03F50053B3F8203F002BBA
:104F08000FD09D4B03F500530022A3F8202F002358
:104F1800BB8107F10C03022241F290711846FDF79C
:104F28002BFE4FF40041954805F0D0FF0346002BB7
:104F380016D1914B03F50053B3F8263F012B0FD040
:104F48008D4B03F500530122A3F8262F01237B8103
:104F580007F10A03022241F293711846FDF70CFE8D
:104F68004FF40041854805F0B1FF0346012B16D1E7
:104F7800814B03F50053B3F8263F002B0FD07E4B2F
:104F880003F500530022A3F8262F00233B8107F1E5
:104F98000803022241F293711846FDF7EDFD4FF424
:104FA8008041764805F092FF0346002B15D1724BDD
:104FB80003F50053B3F82E3F012B0ED06E4B03F5CB
:104FC80000530122A3F82E2F0123FB80BB1D0222D0
:104FD80041F297711846FDF7CFFD4FF480416748BD
:104FE80005F074FF0346012B15D1634B03F50053FD
:104FF800B3F82E3F002B0ED05F4B03F50053002271
:10500800A3F82E2F0023BB803B1D022241F297718B
:105018001846FDF7B1FD584B03F50053B3F81E3F92
:10502800012B1BD0544B03F50053B3F8203F012B41
:1050380014D0514B03F50053B3F8283F012B0DD082
:105048004D4B03F50053B3F8263F012B06D04A4BCE
:1050580003F50053B3F82E3F012B1AD1464BB3F892
:10506800A430012B15D03221002000F0ABF9424BBF
:105078000122A3F8A4205220FDF7DEFE00214FF400
:10508800802000F00DFF3E4B01221A703D4BC822D4
:105098001A80394B03F50053B3F81E3F002B65D136
:1050A800354B03F50053B3F8203F002B5ED1324B4C
:1050B80003F50053B3F8283F002B57D12E4B03F5C7
:1050C8000053B3F8263F002B50D12B4B03F5005368
:1050D800B3F82E3F002B49D1274BB3F8A430002B4F
:1050E80044D0254B0022A3F8A420234B03F50053FA
:1050F8000022A3F82A2F00237B80BB1C022241F246
:1051080095711846FDF738FD1B4B03F580431B8846
:10511800012B03D10220FDF78FFE08E0164B03F5A3
:1051280080431B88032B02D12920FDF785FE124BF3
:10513800B3F8A630012B09D0114B00221A70124B7C
:1051480000221A700021802000F0AAFE0D4B4FF4B7
:105158007A721A80084B03F500539B8A012B05D1FC
:105168000A4B1B683221184600F02CF900BF103793
:10517800BD4680BD744C0020F8000020000C0140A2
:1051880048470020000000204947002064470020CD
:1051980080B500AF124B1B78002B1ED004F07AF8B4
:1051A8000246104B5B69D31A0F4A1288934214D3F4
:1051B80004F070F803460B4A53610C4B1B78002B24
:1051C8000CBF01230023DBB21A46084B1A70074BA9
:1051D8001B781946802000F063FE00BF80BD00BF29
:1051E80048470020BC00002000000020494700205C
:1051F80090B589B000AF0446084611461A462346C2
:10520800FB710346BB710B467B7113463B7145F638
:10521800A523FB83FA79BB7911461846FCF7F6F902
:105228000346BB837A793B7911461846FCF7EEF9B9
:1052380003467B8397F8302097F834301146184698
:10524800FCF7E4F903463B8397F83830002B0FD07E
:10525800FB8B3B823B8B7B827B8BBB82BB8BFB823A
:1052680007F1100308229C211846FDF785FC0CE085
:105278003B8B3B817B8B7B81BB8BBB8107F108031D
:1052880006229D211846FDF777FC00BF2437BD464E
:1052980090BD80B586B000AFF860B9607A603B60B9
:1052A80007F1100300221A605A6007F11003082260
:1052B80010211846FCF74AFC3A7CBB6A1A707A7CC3
:1052C8007B6A1A70BA7C3B6A1A70FA7C3B681A705F
:1052D8003A7D7B681A707A7DBB681A70BA7DFB6864
:1052E8001A7000BF1837BD4680BD000080B586B073
:1052F80000AF78600B46FB7007F062FE7861174BD1
:105308005B6803F46053002B02D07B695B007B6110
:10531800134B5B6801333B613B697A6802FB03F31B
:105328007A69B2FBF3F3013BFB60FB680133FA785F
:1053380002FB03F30B4AA2FB03235B09BB60084B88
:105348001B68FA68DA62064AFB68D360044B1B687C
:10535800BA681A6400BF1837BD4680BD0010024005
:10536800785100201F85EB51B0B586B000AF78604A
:105378007968002901D100231EE0114901F5005187
:10538800B1F86E1F796179694FF4AF6000FB01F1E4
:1053980000200A460346C7E902237B6800221C4610
:1053A800154622462B46D7E90201FBF77FFF024646
:1053B8000B46C7E90223BB6818461837BD46B0BD7F
:1053C800F800002080B483B000AF78600B46FB7013
:1053D8000A4B1B680A4A13600A4A7B6813600A4A28
:1053E800FB781370094B00221A80094B01221A70AE
:1053F80000BF0C37BD4680BC704700BF7047002017
:10540800684700206C47002076470020744700203A
:10541800774700202DE9F04F83B000AF364E36783D
:10542800F6B2002E62D0354E3688B6B201361FFA73
:1054380086FC324EA6F800C0304E3688B6B2B6F5B5
:105448007A7F3AD82E4E36684FF0000CB046E146C7
:105458002C4E36684FF0000C34466546B8EB040A0B
:1054680069EB050BC7E900AB244C2488A4B2A4B2AD
:10547800002522462B463C6803FB04F57C6802FBAA
:1054880004F42C443D68A5FB0201631819464FF447
:105498007A724FF00003FBF7B9FE02460B46194B30
:1054A8001B681344184A1360174B1B68174A127875
:1054B800D2B211461846FFF719FF104B1B889BB252
:1054C800B3F57A7F12D30E4B1B680F4A13600E4B4D
:1054D8001B680E4A1278D2B211461846FFF706FF2B
:1054E800054B00221A70054B00221A8000BF0C37AA
:1054F800BD46BDE8F08F00BF774700207447002005
:105508006C4700206847002070470020764700203D
:1055180080B584B000AF78600323FB730023BB81A0
:1055280011E04FF0FF330122A021786806F0E0FA7D
:105538000346002B01D10223FB73BB890133BB81D6
:10554800002003F0B1FEFB7B032B02D1BB89142B97
:10555800E7D9FB7B18461037BD4680BD2DE9F043DF
:10556800B1B002AFF8607A601A460B467B811346E9
:105578003B81022387F8B730864B1B78012B40F01C
:10558800FF80A02387F89F303B89A7F8B4307B8938
:10559800A7F8B2307B68C7F8AC30002387F8AB3087
:1055A80062E061E0B7F8B23003F07F03A7F89C30FF
:1055B800B7F89C30C3F18003A7F8A830B7F8B42037
:1055C800B7F8A8309A4203D2B7F8B430A7F8A83091
:1055D800B7F8B2301B0A9BB2DBB23B74B7F8B230F3
:1055E800DBB27B74B7F8A82007F110030233D7F8B1
:1055F800AC1018460AF0C2FB97F89F3099B2B7F87A
:10560800A83002339BB207F110024FF0FF30009030
:10561800F86805F009FE0346002B02D0012387F83D
:10562800B730F868FFF774FF0346022B07D05A49D2
:10563800002001F0E9F9012387F8B73014E0B7F842
:10564800B420B7F8A830D31AA7F8B430B7F8B22006
:10565800B7F8A8301344A7F8B230B7F8A830D7F88D
:10566800AC201344C7F8AC30B7F8B430002B03D0E3
:1056780097F8B730022B95D097F8B730022B6ED138
:105688006B461E4639890B46013BC7F898308BB2EA
:1056980000221C4615464FF000024FF00003EB00B5
:1056A80043EA5473E2008BB20022984691464FF0C9
:1056B80000024FF000034FEAC90343EA58734FEA68
:1056C800C8020B460733DB08DB00ADEB030D02AB6A
:1056D8000033C7F89430002387F8A7303B897989CD
:1056E800D7F89420F86800F05BF80023C7F8A030DA
:1056F80015E0D7F89420D7F8A03013441A78D7F8D3
:10570800A03079680B441B789A4203D0012387F8AC
:10571800A73009E0D7F8A0300133C7F8A0303B899B
:10572800D7F8A0209A42E4DB97F8A730012B14D1D0
:1057380097F8AB30013387F8AB3097F8AB30032BD1
:1057480001D8B54690E71549002001F05DF9114BE5
:1057580002221A70012387F8B730B54613E097F88C
:10576800AB30013387F8AB3097F8AB30032B03D855
:10577800022387F8B73014E7064B02221A7002E0BA
:10578800012387F8B73097F8B7301846BC37BD46BD
:10579800BDE8F08302000020BC080108D008010819
:1057A80080B588B002AFF8607A601A460B467B81F4
:1057B80013463B81A023FB757B891B0A9BB2DBB296
:1057C8003B757B89DBB27B75FB7D99B207F11402CF
:1057D8004FF0FF3300930223F86805F025FD0346D8
:1057E800002B0ED1A123FB75FB7D99B23B894FF0AD
:1057F800FF3200927A68F86805F014FE0346002B21
:1058080000E000BF1837BD4680BD80B586B000AF48
:10581800F8607A601A460B467B8113463B817A8989
:105828003B891344B3F5803F01D901232FE03B891D
:10583800FB820023BB8226E080237B827A89BB8A95
:1058480013449BB25B423B827A8A3B8A9A4201D9D3
:105858003B8A7B827A8AFB8A9A4201D9FB8A7B82BD
:105868007A89BB8A134499B2BB8A7A681A447B8ABC
:10587800F868FFF795FFBA8A7B8A1344BB82FA8AD5
:105888007B8AD31AFB82FB8A002BD5D100231846CA
:105898001837BD4680BD000090B589B000AF78606C
:1058A8000123FB770023BB7407F1120201230021B7
:1058B8007868FFF775FFBB7C622B28D10023BB619A
:1058C8001EE00A2003F0F0FC664ABB6932F81310A8
:1058D80007F1100202237868FFF762FF3A7C797CAF
:1058E8006048BB6930F813301C461046FBF78EFE43
:1058F80003461A465C4B23F81420BB690133BB618D
:10590800BB690E2BDDD9786800F0DEF9A5E0564BAF
:1059180003F500530122DA82534B03F500534FF489
:105928008C721A80504B03F5005300221A814E4B9B
:1059380003F5005303229A804B4B03F500530122D1
:10594800A3F8522F484B03F500530122A3F8562F12
:10595800454B03F500530022A3F85A2F424B03F599
:10596800005341F65342A3F85E2F3F4B03F5005313
:105978000022A3F8622F3C4B03F500534FF4FA7250
:10598800A3F8662F384B03F500530322A3F86A2FB8
:10599800354B03F500536922A3F86E2F324B03F5FC
:1059A80000530122A3F8722F2F4B03F50053012255
:1059B800A3F8762F2C4B03F540530122DA8062239B
:1059C800FB7307F10F02012300217868FFF7C6FD7A
:1059D80000237B6127E00A2003F066FC214A7B69EB
:1059E80032F813301A46204B33F8120007F10C0333
:1059F8005A1C07F10C031946FBF71EFE194A7B696E
:105A080032F8131007F10C0202237868FFF7A6FD9D
:105A18000346FB74FB7C022B02D00223FB7705E0D4
:105A28007B6901337B617B690E2BD4D9FB7F012B0A
:105A380004D1786800F01AF80346FB77002003F0D9
:105A480033FC002003F030FCFB7F012B02D1786887
:105A580000F03AF9002003F027FCFB7F18462437B2
:105A6800BD4690BD04000020F8000020B0B5ADF69A
:105A7800983D00AF07F69833A3F6943318600123D6
:105A880087F8973B07F6643300221A605A609A60D9
:105A9800DA601A61874B03F50053B3F85A3F022BBB
:105AA80027D107F69833A3F66433834A1C46154674
:105AB8000FCD0FC42B6823600023C7F8903B13E079
:105AC80007F69833A3F66432D7F8903B1344197855
