:020000040800F2
:105000000000012071030108FDFB000805FC0008F9
:1050100019FC000821FC000829FC00080000000021
:1050200000000000000000000000000031FC00084B
:105030003DFC00080000000049FC000855FC000889
:10504000B9030108B9030108B903010889FC000884
:10505000B9030108B9030108B9030108B90301083C
:10506000B9030108B9030108B90301089DFC000850
:10507000B9030108B1FC0008B9030108C5FC000828
:10508000B9030108B9030108B9030108B90301080C
:10509000B9030108B9030108B9030108D9FC0008E4
:1050A000B9030108B9030108B9030108B9030108EC
:1050B000B9030108B9030108B9030108B9030108DC
:1050C000B9030108B9030108B9030108B9030108CC
:1050D000B90301081DFD0008B90301089DFD000882
:1050E000B9030108B9030108B90301080000000071
:1050F00000000000000000000000000000000000B0
:105100000000000000000000B9030108B903010815
:10511000B9030108B9030108B9030108B90301087B
:10512000B9030108B9030108B9030108B90301086B
:10513000B90301080000000000000000B9030108E5
:10514000B9030108B9030108B9030108B90301084B
:10515000000000000000000000000000000000004F
:10516000000000000000000000000000000000003F
:10517000000000000000000000000000000000002F
:10518000000000000000000000000000000000001F
:10519000000000000000000000000000000000000F
:1051A00000000000000000000000000000000000FF
:1051B00000000000000000000000000000000000EF
:1051C00000000000000000000000000000000000DF
:1051D00000000000000000000000000000000000CF
:0451E0005FF8E0F1A3
:1051E80010B5054C237833B9044B13B10448AFF319
:1051F80000800123237010BDA000002000000000E3
:105208007885010808B5034B1BB103490348AFF380
:10521800008008BD00000000A40000207885010877
:1052280081F0004102E000BF83F0004330B54FEA4F
:1052380041044FEA430594EA050F08BF90EA020FBC
:105248001FBF54EA000C55EA020C7FEA645C7FEA4F
:10525800655C00F0E2804FEA5454D4EB5555B8BF72
:105268006D420CDD2C4480EA020281EA030382EAE3
:10527800000083EA010180EA020281EA0303362D75
:1052880088BF30BD11F0004F4FEA01314FF4801C48
:105298004CEA113102D0404261EB410113F0004F5A
:1052A8004FEA03334CEA133302D0524263EB430311
:1052B80094EA050F00F0A780A4F10104D5F1200EAF
:1052C8000DDB02FA0EFC22FA05F2801841F100010A
:1052D80003FA0EF2801843FA05F359410EE0A5F1DE
:1052E80020050EF1200E012A03FA0EFC28BF4CF00F
:1052F800020C43FA05F3C01851EBE37101F00045C5
:1053080007D54FF0000EDCF1000C7EEB00006EEBD1
:105318000101B1F5801F1BD3B1F5001F0CD349085B
:105328005FEA30004FEA3C0C04F101044FEA4452B2
:1053380012F5800F80F09A80BCF1004F08BF5FEA39
:10534800500C50F1000041EB045141EA050130BD19
:105358005FEA4C0C404141EB0101013C28BFB1F52B
:10536800801FE9D291F0000F04BF01460020B1FA76
:1053780081F308BF2033A3F10B03B3F120020CDA49
:105388000C3208DD02F1140CC2F10C0201FA0CF027
:1053980021FA02F10CE002F11402D8BFC2F1200C8C
:1053A80001FA02F120FA0CFCDCBF41EA0C01904042
:1053B800E41AA2BF01EB0451294330BD6FEA04048B
:1053C8001F3C1CDA0C340EDC04F11404C4F1200276
:1053D80020FA04F001FA02F340EA030021FA04F388
:1053E80045EA030130BDC4F10C04C4F1200220FADF
:1053F80002F001FA04F340EA0300294630BD21FA1D
:1054080004F0294630BD94F0000F83F4801306BFE2
:1054180081F480110134013D4EE77FEA645C18BFD6
:105428007FEA655C29D094EA050F08BF90EA020F6D
:1054380005D054EA000C04BF1946104630BD91EA65
:10544800030F1EBF0021002030BD5FEA545C05D168
:105458004000494128BF41F0004130BD14F58004A7
:105468003CBF01F5801130BD01F0004545F0FE411B
:1054780041F470014FF0000030BD7FEA645C1ABF50
:10548800194610467FEA655C1CBF0B46024650EA87
:10549800013406BF52EA033591EA030F41F40021B3
:1054A80030BD00BF90F0000F04BF0021704730B539
:1054B8004FF4806404F132044FF000054FF000010E
:1054C80050E700BF90F0000F04BF0021704730B5CF
:1054D8004FF4806404F1320410F0004548BF4042A4
:1054E8004FF000013EE700BF42004FEAE2014FEAF9
:1054F80031014FEA02701FBF12F07F4393F07F4FD4
:1055080081F06051704732F07F4208BF704793F0D6
:105518007F4F04BF41F40021704730B54FF46074E9
:1055280001F0004521F000411CE700BF50EA0102EC
:1055380008BF704730B54FF000050AE050EA010295
:1055480008BF704730B511F0004502D5404261EB05
:1055580041014FF4806404F132045FEA915C3FF446
:10556800D8AE4FF003025FEADC0C18BF03325FEAE3
:10557800DC0C18BF033202EBDC02C2F1200300FA94
:1055880003FC20FA02F001FA03FE40EA0E0021FAB9
:1055980002F11444BDE600BF70B54FF0FF0C4CF4A7
:1055A800E06C1CEA11541DBF1CEA135594EA0C0F59
:1055B80095EA0C0F00F0DEF82C4481EA030621EA94
:1055C8004C5123EA4C5350EA013518BF52EA0335CF
:1055D80041F4801143F4801338D0A0FB02CE4FF081
:1055E8000005E1FB02E506F00042E0FB03E54FF0B1
:1055F8000006E1FB03569CF0000F18BF4EF0010EA9
:10560800A4F1FF04B6F5007F64F5407404D25FEAA4
:105618004E0E6D4146EB060642EAC62141EA555157
:105628004FEAC52040EA5E504FEACE2EB4F1FD0C99
:1056380088BFBCF5E06F1ED8BEF1004F08BF5FEA17
:10564800500E50F1000041EB045170BD06F00046C9
:1056580046EA010140EA020081EA0301B4EB5C0476
:10566800C2BFD4EB0C0541EA045170BD41F480116E
:105678004FF0000E013C00F3AB8014F1360FDEBF93
:10568800002001F0004170BDC4F10004203C35DA6F
:105698000C341BDC04F11404C4F1200500FA05F3F2
:1056A80020FA04F001FA05F240EA020001F0004293
:1056B80021F0004110EBD37021FA04F642EB060109
:1056C8005EEA430E08BF20EAD37070BDC4F10C0433
:1056D800C4F1200500FA04F320FA05F001FA04F2F7
:1056E80040EA020001F0004110EBD37041F10001E3
:1056F8005EEA430E08BF20EAD37070BDC4F12005EE
:1057080000FA05F24EEA020E20FA04F301FA05F255
:1057180043EA020321FA04F001F0004121FA04F2FD
:1057280020EA020000EBD3705EEA430E08BF20EACD
:10573800D37070BD94F0000F0FD101F00046400007
:1057480041EB010111F4801F08BF013CF7D041EA89
:10575800060195F0000F18BF704703F0004652008D
:1057680043EB030313F4801F08BF013DF7D043EA5E
:105778000603704794EA0C0F0CEA135518BF95EA14
:105788000C0F0CD050EA410618BF52EA4306D1D19B
:1057980081EA030101F000414FF0000070BD50EABA
:1057A800410606BF1046194652EA430619D094EA44
:1057B8000C0F02D150EA013613D195EA0C0F05D12E
:1057C80052EA03361CBF104619460AD181EA030182
:1057D80001F0004141F0FE4141F470014FF000003A
:1057E80070BD41F0FE4141F4780170BD70B54FF0D5
:1057F800FF0C4CF4E06C1CEA11541DBF1CEA135555
:1058080094EA0C0F95EA0C0F00F0A7F8A4EB050436
:1058180081EA030E52EA03354FEA013100F088802D
:105828004FEA03334FF0805545EA131343EA1263F6
:105838004FEA022245EA111545EA10654FEA0026AB
:105848000EF000419D4208BF964244F1FD0404F564
:10585800407402D25B084FEA3202B61A65EB0305C0
:105868005B084FEA32024FF480104FF4002CB6EB7D
:10587800020E75EB030E22BFB61A754640EA0C00FD
:105888005B084FEA3202B6EB020E75EB030E22BF3D
:10589800B61A754640EA5C005B084FEA3202B6EB7E
:1058A800020E75EB030E22BFB61A754640EA9C003D
:1058B8005B084FEA3202B6EB020E75EB030E22BF0D
:1058C800B61A754640EADC0055EA060E18D04FEACB
:1058D800051545EA16754FEA06164FEAC30343EA6B
:1058E80052734FEAC2025FEA1C1CC0D111F4801F38
:1058F8000BD141EA00014FF000004FF0004CB6E731
:1059080011F4801F04BF01430020B4F1FD0C88BFCF
:10591800BCF5E06F3FF6AFAEB5EB030C04BFB6EBDA
:10592800020C5FEA500C50F1000041EB045170BDCD
:105938000EF0004E4EEA113114EB5C04C2BFD4EBFA
:105948000C0541EA045170BD41F480114FF0000E7E
:10595800013C90E645EA060E8DE60CEA135594EAFA
:105968000C0F08BF95EA0C0F3FF43BAF94EA0C0FFD
:105978000AD150EA01347FF434AF95EA0C0F7FF472
:1059880025AF104619462CE795EA0C0F06D152EAC6
:1059980003353FF4FDAE1046194622E750EA4106AA
:1059A80018BF52EA43067FF4C5AE50EA41047FF4BB
:1059B8000DAF52EA43057FF4EBAE12E74FF0FF3C20
:1059C80006E000BF4FF0010C02E000BF4FF0010CF1
:1059D8004DF804CD4FEA410C7FEA6C5C4FEA430C6A
:1059E80018BF7FEA6C5C1BD001B050EA410C0CBFB9
:1059F80052EA430C91EA030F02BF90EA020F00201B
:105A0800704710F1000F91EA030F58BF994208BF81
:105A180090422CBFD8176FEAE37040F0010070473E
:105A28004FEA410C7FEA6C5C02D150EA013C07D195
:105A38004FEA430C7FEA6C5CD6D152EA033CD3D0E0
:105A48005DF8040B704700BF8446104662468C46DA
:105A58001946634600E000BF01B5FFF7B7FF00280D
:105A680048BF10F1000F01BD4DF808EDFFF7F4FF36
:105A78000CBF012000205DF808FB00BF4DF808EDC1
:105A8800FFF7EAFF34BF012000205DF808FB00BFE4
:105A98004DF808EDFFF7E0FF94BF012000205DF806
:105AA80008FB00BF4DF808EDFFF7CEFF94BF0120BB
:105AB80000205DF808FB00BF4DF808EDFFF7C4FFB4
:105AC80034BF012000205DF808FB00BF4A0011D256
:105AD80012F5001211D20DD56FF47873B3EB625240
:105AE8000ED44FEAC12343F0004343EA505323FA4C
:105AF80002F070474FF00000704750EA013002D1C1
:105B08004FF0FF3070474FF0000070474FEA4102F6
:105B1800B2F1E04324BFB3F5001CDCF1FE5C0DD903
:105B280001F0004C4FEAC0024CEA5070B2F1004F4D
:105B380040EB830008BF20F00100704711F0804F50
:105B480021D113F13872BCBF01F00040704741F415
:105B580080114FEA5252C2F11802C2F1200C10FA19
:105B68000CF320FA02F018BF40F001004FEAC123FD
:105B78004FEAD32303FA0CFC40EA0C0023FA02F3A1
:105B88004FEA4303CCE77FEA625307D150EA013377
:105B98001EBF4FF0FE4040F44000704701F0004047
:105BA80040F0FE4040F40000704700BF80F0004025
:105BB80002E000BF81F0004142001FBF5FEA4103DD
:105BC80092EA030F7FEA226C7FEA236C6AD04FEADD
:105BD8001262D2EB1363C1BFD21841404840414022
:105BE800B8BF5B42192B88BF704710F0004F40F4D4
:105BF800000020F07F4018BF404211F0004F41F4F0
:105C0800000121F07F4118BF494292EA030F3FD0BB
:105C1800A2F1010241FA03FC10EB0C00C3F12003CE
:105C280001FA03F100F0004302D5494260EB40005D
:105C3800B0F5000F13D3B0F1807F06D340084FEAC8
:105C4800310102F10102FE2A51D2B1F1004F40EBBD
:105C5800C25008BF20F0010040EA03007047490025
:105C680040EB0000013A28BFB0F5000FEDD2B0FAC2
:105C780080FCACF1080CB2EB0C0200FA0CF0AABFE5
:105C880000EBC25052421843BCBFD0401843704783
:105C980092F0000F81F4000106BF80F40000013289
:105CA800013BB5E74FEA41037FEA226C18BF7FEA60
:105CB800236C21D092EA030F04D092F0000F08BFA2
:105CC8000846704790EA010F1CBF0020704712F089
:105CD8007F4F04D1400028BF40F00040704712F1C8
:105CE80000723CBF00F50000704700F0004343F02D
:105CF800FE4040F4000070477FEA226216BF084663
:105D08007FEA23630146420206BF5FEA412390EA25
:105D1800010F40F4800070474FF0000304E000BF1B
:105D280010F0004348BF40425FEA000C08BF7047CC
:105D380043F0964301464FF000001CE050EA010290
:105D480008BF70474FF000030AE000BF50EA0102A5
:105D580008BF704711F0004302D5404261EB410192
:105D68005FEA010C02BF84460146002043F0B643B7
:105D780008BFA3F18053A3F50003BCFA8CF2083ADC
:105D8800A3EBC25310DB01FA02FC634400FA02FCE5
:105D9800C2F12002BCF1004F20FA02F243EB0200EC
:105DA80008BF20F00100704702F1200201FA02FC4E
:105DB800C2F1200250EA4C0021FA02F243EB020041
:105DC80008BF20EADC7070474FF0FF0C1CEAD05285
:105DD8001EBF1CEAD15392EA0C0F93EA0C0F6FD046
:105DE8001A4480EA010C400218BF5FEA41211ED024
:105DF8004FF0006343EA501043EA5111A0FB013110
:105E08000CF00040B1F5000F3EBF490041EAD371E4
:105E18005B0040EA010062F17F02FD2A1DD8B3F160
:105E2800004F40EBC25008BF20F00100704790F0CF
:105E3800000F0CF0004C08BF49024CEA502040EA21
:105E480051207F3AC2BFD2F1FF0340EAC2507047E7
:105E580040F400004FF00003013A5DDC12F1190F25
:105E6800DCBF00F000407047C2F10002410021FA97
:105E780002F1C2F1200200FA02FC5FEA310040F1AF
:105E8800000053EA4C0308BF20EADC70704792F028
:105E9800000F00F0004C02BF400010F4000F013A60
:105EA800F9D040EA0C0093F0000F01F0004C02BF5B
:105EB800490011F4000F013BF9D041EA0C018FE7CA
:105EC8000CEAD15392EA0C0F18BF93EA0C0F0AD0D0
:105ED80030F0004C18BF31F0004CD8D180EA0100F6
:105EE80000F00040704790F0000F17BF90F0004F8F
:105EF800084691F0000F91F0004F14D092EA0C0F71
:105F080001D142020FD193EA0C0F03D14B0218BF03
:105F1800084608D180EA010000F0004040F0FE4049
:105F280040F40000704740F0FE4040F440007047E5
:105F38004FF0FF0C1CEAD0521EBF1CEAD15392EA64
:105F48000C0F93EA0C0F69D0A2EB030280EA010C54
:105F580049024FEA402037D04FF0805343EA1111ED
:105F680043EA10130CF000408B4238BF5B0042F14B
:105F78007D024FF4000C8B4224BF5B1A40EA0C00F0
:105F8800B3EB510F24BFA3EB510340EA5C00B3EB22
:105F9800910F24BFA3EB910340EA9C00B3EBD10F10
:105FA80024BFA3EBD10340EADC001B0118BF5FEA62
:105FB8001C1CE0D1FD2A3FF650AF8B4240EBC2508B
:105FC80008BF20F0010070470CF0004C4CEA50204C
:105FD8007F32C2BFD2F1FF0340EAC250704740F49B
:105FE80000004FF00003013A37E792F0000F00F08D
:105FF800004C02BF400010F4000F013AF9D040EA0B
:106008000C0093F0000F01F0004C02BF490011F49E
:10601800000F013BF9D041EA0C0195E70CEAD15396
:1060280092EA0C0F08D142027FF47DAF93EA0C0F7D
:106038007FF470AF084676E793EA0C0F04D14B0261
:106048003FF44CAF08466EE730F0004C18BF31F013
:10605800004CCAD130F000427FF45CAF31F000430D
:106068007FF43CAF5FE700BF4FF0FF3C06E000BFA6
:106078004FF0010C02E000BF4FF0010C4DF804CDC9
:106088004FEA40024FEA41037FEA226C18BF7FEAD9
:10609800236C11D001B052EA530C18BF90EA010FDB
:1060A80058BFB2EB030088BFC81738BF6FEAE1706A
:1060B80018BF40F0010070477FEA226C02D15FEA06
:1060C800402C05D17FEA236CE4D15FEA412CE1D072
:1060D8005DF8040B704700BF844608466146FFE739
:1060E8000FB5FFF7C9FF002848BF10F1000F0FBD1B
:1060F8004DF808EDFFF7F4FF0CBF012000205DF814
:1061080008FB00BF4DF808EDFFF7EAFF34BF012098
:1061180000205DF808FB00BF4DF808EDFFF7E0FF31
:1061280094BF012000205DF808FB00BF4DF808ED82
:10613800FFF7D2FF94BF012000205DF808FB00BFE5
:106148004DF808EDFFF7C8FF34BF012000205DF8C7
:1061580008FB00BF4FEA40024FEA41037FEA226C86
:1061680002D15FEA402C08D17FEA236C02D15FEAB2
:10617800412C02D14FF0000070474FF001007047EA
:106188004FEA4002B2F1FE4F0FD34FF09E03B3EB3C
:1061980012620DD94FEA002343F0004310F0004F7C
:1061A80023FA02F018BF404270474FF000007047D2
:1061B80012F1610F01D1420205D110F0004008BF71
:1061C8006FF0004070474FF00000704742000ED259
:1061D800B2F1FE4F0BD34FF09E03B3EB126209D41A
:1061E8004FEA002343F0004323FA02F070474FF0D0
:1061F8000000704712F1610F01D1420202D14FF045
:10620800FF3070474FF00000704700BF7BB972B98C
:106218000029BEBF00204FF0004106E008BF00285B
:106228001CBF6FF000414FF0FF3000F0D7B9ADF15F
:10623800080C6DE904CE002909DB002B1ADB00F0FD
:106248004DF8DDF804E0DDE9022304B07047404270
:1062580061EB4101002B1BDB00F040F8DDF804E0A6
:10626800DDE9022304B0404261EB4101524263EB95
:1062780043037047524263EB430300F02FF8DDF805
:1062880004E0DDE9022304B0404261EB41017047BC
:10629800524263EB430300F021F8DDF804E0DDE946
:1062A800022304B0524263EB4303704753B94AB91F
:1062B800002908BF00281CBF4FF0FF314FF0FF3006
:1062C80000F08CB9ADF1080C6DE904CE00F006F8C9
:1062D800DDF804E0DDE9022304B070472DE9F0475A
:1062E800089D8E4604468846002B4AD18A421746A6
:1062F80062D9B2FA82F64EB1C6F1200301FA06F865
:1063080020FA03F3B74043EA0808B4404FEA174EAF
:10631800B8FBFEF11FFA87FC0EFB118801FB0CF29B
:10632800230C43EA08439A4209D9FB1801F1FF30CC
:1063380080F0EB809A4240F2E88002393B449A1A96
:10634800B2FBFEF00EFB102200FB0CFCA3B243EAEA
:1063580002439C4509D9FB1800F1FF3280F0D78031
:106368009C4540F2D4803B44023840EA0140002179
:10637800A3EB0C031DB10022F340C5E90032BDE8D0
:10638800F0878B4205D90DB1C5E900010021084607
:10639800F5E7B3FA83F1002946D1734502D3824267
:1063A80000F20881841A6EEB030201209046002D4A
:1063B800E5D0C5E90048E2E7002A00F09180B2FA8A
:1063C80082F6002E40F0A5808A1A0121030C4FEABC
:1063D800174E80B2BCB2B2FBFEFC0EFB1C2243EA95
:1063E800024304FB0CF29A4207D9FB180CF1FF3860
:1063F80002D29A4200F2E380C4469B1AB3FBFEF233
:106408000EFB123302FB04F440EA03439C4207D913
:10641800FB1802F1FF3002D29C4200F2CD80024606
:106428001B1B42EA0C40A5E7C1F120068B4022FA6B
:1064380006F71F432EFA06FA4FEA1749BAFBF9F88E
:106448000EFA01FE20FA06F309FB18AA1FFA87FCC8
:1064580043EA0E0300FA01FE08FB0CF01C0C44EAA8
:106468000A44A04202FA01F20AD93C1908F1FF3A9B
:1064780080F09E80A04240F29B80A8F102083C4434
:10648800241A98B2B4FBF9F309FB134403FB0CFC80
:1064980040EA0444A44509D93C1903F1FF3080F0CF
:1064A8008580A44540F28280023B3C4443EA084090
:1064B800A4EB0C04A0FB028C64454346E14664D37C
:1064C80061D05DB1BEEB030264EB090404FA06F681
:1064D80022FA01F31E43CC40C5E9006400214EE7CF
:1064E800B1FBF2FC010C41EA0E4180B240EA0142E4
:1064F8003B46B1FBF7F138463C46B846BE46202637
:10650800A2EB080241EA0C4165E7014617E710468D
:106518002BE7C6F120012EFA01FCB7400EFA06FE61
:1065280020FA01F141EA0E014FEA174EBCFBFEF8D2
:10653800BCB20EFB18CC08FB04F90A0C42EA0C4268
:10654800B04091454FEA104380B23ED9BA1808F1DD
:10655800FF3C01D291451FD8A2EB0902B2FBFEF91C
:1065680009FB04F80EFB192A8AB242EA0A4242459C
:1065780029D2BA1809F1FF31C2D24245C0D2A9F1D5
:1065880002013A44BCE7C6459BD2B8EB02036CEB68
:10659800070C0138E14694E7A7EB09094A44B2FB26
:1065A800FEF9A8F1020C09FB04F8DBE703467DE7D6
:1065B800D04665E70846FAE63B44023A30E7ACF1D4
:1065C800020C3B4419E749469AE7A2EB0902B2FBE1
:1065D800FEF9C44609FB04F8C4E700BF704700BFD2
:1065E80080B400AFBFF34F8F00BF064BDB6803F4E6
:1065F800E0620449044B1343CB60BFF34F8F00BFE5
:1066080000BFFDE700ED00E00400FA0580B586B0A4
:1066180000AFF8600B467A607B810023FB820FE0B5
:10662800FB8A5B001A467B689818FB8AFA68134451
:106638001B781A460A4910F057FEFB8A0133FB8281
:10664800FA8A7B899A42EBD37B895B001A467B687E
:10665800134400221A7000BF1837BD4680BD00BF22
:106668009085010880B586B000AFF860B9607A609F
:10667800174ABB681360174AFB681360164A7B68A1
:1066880013604FF480721549F8680FF086FE0346D0
:10669800FB7500233B61FB681B681B683B61FB685B
:1066A8001B685B683B613B69FB681B68DA68FB68D1
:1066B8001B6842F01002DA60002009F0DDFE084B8A
:1066C80000221A70FB7D18461837BD4680BD00BFF2
:1066D800687100206C710020707100205C700020CF
:1066E8007871002080B590B000AFA64B1B78002BC6
:1066F80004D1A549002007F0C5F905E3002387F870
:106708003F30A04B5B78992B0AD0992B22DC032BC6
:1067180002D0102B10D01DE0082387F83F3021E06D
:10672800984B9B7887F8273097F827305B00DBB2C7
:10673800053387F83F3015E0924B9B79002B05D045
:10674800904B9B79093387F83F300BE0082387F893
:106758003F3007E08B4B5B781A468C49002007F0E6
:1067680091F9D1E297F83F30032B07D897F83F30DB
:106778001A468749002007F085F9C5E297F83F30A7
:106788009BB2023B9BB219467E4801F041FF03468B
:10679800BB8497F83F30013B7A4AD25C97F83F3088
:1067A800023B7849CB5C1946104601F09FFE034630
:1067B8007B84BA8C7B8C9A4202D17B8C002B06D1CD
:1067C800BA8C7B8C7349002007F05CF99CE297F83F
:1067D8003F301A467049002007F054F90023BB6384
:1067E8000BE0684ABB6B13441B781A466B490020C0
:1067F80007F048F9BB6B0133BB6397F83F30BA6BBE
:106808009A4202DABB6B132BEBDD97F83F30142B5F
:1068180003D96349002007F035F96249002007F0E1
:1068280031F9584B5B78992B00F09880992B00F33D
:106838006282032B03D0102B00F090815BE2514B56
:106848009B78504AD2781146184601F04FFE03460D
:10685800FB814C4B1B794B4A52791146184601F083
:1068680045FE0346BB81BB89002B02D0BB897D2B2B
:1068780006D9BB891A464C49002007F003F943E2C0
:10688800FA89BB89134443F2C822934204DD47497D
:10689800002007F0F7F837E2BA89FB89444900205D
:1068A80007F0F0F8BB89DBB25B00DBB20533FB72A3
:1068B800404B01221A703F4B03225A70BB89DBB24E
:1068C8005B00DAB23B4B9A7000237B6319E0FA89CC
:1068D8007B6B1344384A32F81330BA1DF91D184639
:1068E80001F01AFE7B6B5B000333F979314AD1540E
:1068F8007B6B02335B00B9792E4AD1547B6B013331
:106908007B63BB897A6B9A42E1DBFB7A9BB2023BE1
:106918009BB21946274801F07BFE03463B81BA1D0E
:10692800F91D3B89184601F0F7FDFB7A023BB9795E
:10693800204AD154FB7A013BF9791E4AD1541F4BA6
:106948001B68FA7A92B21B4918460FF0F1FCFB7AE1
:106958001A461B49002007F095F8D5E1094B9B78AA
:1069680087F8213097F82130002B03D097F8213091
:106978007D2B29D997F821301A461249002007F0B3
:1069880081F8C1E15C6F002098850108B88501088D
:10699800DC850108FC850108348601084C8601085D
:1069A80054860108588601085C8601088886010813
:1069B800AC86010888010020A00300206C7100202B
:1069C800D8860108F886010897F821305B00DBB209
:1069D800053387F8203097F83F2097F820309A42FF
:1069E80004D07E49002007F04DF88DE197F821305A
:1069F8001A467B49002007F045F800233B6318E05E
:106A08003B6B5B000333774AD25C3B6B02335B0022
:106A18007449CB5C1946104601F068FD0346FB83B8
:106A2800FB8B1A467049002007F02CF83B6B0133AA
:106A38003B6397F821303A6B9A4202DA3B6B042B9E
:106A4800DEDD97F82130052B03D96849002007F0CF
:106A580019F86749002007F015F897F821305B000E
:106A6800DBB205337B77634B01221A70614B9922A5
:106A78005A70604A97F8213093700023FB623FE018
:106A8800FB6A5B000333574AD25CFB6A02335B0044
:106A98005449CB5C1946104601F028FD03463B8358
:106AA8003B8B43F2C722934212D93B8B1A46524979
:106AB800002006F0E7FFFB6A5B0003334D4A002124
:106AC800D154FB6A02335B004A4A0021D15414E0D6
:106AD8003B8B4A4A32F813303A1D791D184601F0AB
:106AE8001BFDFB6A5B0003337979424AD154FB6A88
:106AF80002335B0039793F4AD154FB6A0133FB62A8
:106B080097F82130FA6A9A42BADB7B7F9BB2023B44
:106B18009BB21946374801F07BFD03467B833A1D3B
:106B2800791D7B8B184601F0F7FC7B7F023B397996
:106B3800304AD1547B7F013B79792E4AD154304B6E
:106B48001B687A7F92B22B4918460FF0F1FB7B7FC6
:106B58001A462C49002006F095FFD5E0214B9B787A
:106B6800204AD2781146184601F0C0FC0346FB8241
:106B78001C4B1B791B4A52791146184601F0B6FC8A
:106B88000346BB82174B9B79FB74BB8A002B02D050
:106B9800BB8A642B06D9BB8A1A461B49002006F01B
:106BA80071FFB1E0FA7CBB8A5B009A4206D0FB7C9D
:106BB8001A461649002006F065FFA5E0BA8AFB8A46
:106BC8001349002006F05EFF124AFB8A1380124A1E
:106BD800BB8A13800023BB6243E000BF28870108FB
:106BE800508701085C6F00207487010854860108EB
:106BF8007C8701088801002080870108A003002005
:106C08006C710020B4870108DC8701080888010836
:106C1800308801088601002084010020BB6A5B00DF
:106C280007333B4AD25CBB6A04335B003849CB5C10
:106C38001946104601F05AFC03461946354ABB6A04
:106C480022F81310BB6A042B08DC324ABB6A32F8FC
:106C58001330BA6A3049002006F014FFBB6A0133CA
:106C6800BB62BB8ABA6A9A42D8DBBB8A052B06D9B3
:106C7800BB8A053B1A462949002006F003FF28492C
:106C8800002006F0FFFE274B01221A70254B102228
:106C98005A701F4B9A78234B9A701D4BDA78214B08
:106CA800DA701B4B1A791F4B1A71194B5A791D4B05
:106CB8005A7106211B4801F0ABFC03463B82BA1C03
:106CC800F91C3B8A184601F027FCBA78154B9A71D3
:106CD800FA78144BDA71144B1B88642B13D0134BBE
:106CE8001B6808220F4918460FF022FB10490020A4
:106CF80006F0C8FE07E0064B5B781A460D490020EF
:106D080006F0C0FE00E000BF4037BD4680BD00BFB2
:106D18005C6F0020BC0000205C8801087C880108AA
:106D28009088010888010020860100206C710020ED
:106D3800C8880108E088010880B582B000AF00F07B
:106D4800F5F83B4B1B78012B2BD13A4B1B78002BCA
:106D580027D109F087FB0346374A1360374B1B7866
:106D6800012B19D1364B00221A80344B00221A709D
:106D7800304B00221A7000237B6007E0314A7B68A1
:106D8800002122F813107B6801337B602E4B1B789F
:106D98001A467B689342F1DB254B00221A70FFF7F5
:106DA800A1FC09F05FFB0246234B1B68D31A42F291
:106DB8001072934237D9254B03F58053B3F88237C5
:106DC800002B30D109F04EFB03461B4A1360204BC1
:106DD8001B6818460FF006FB1E480FF0ECF9034637
:106DE800002B01D008F036FA002009F045FB1948BD
:106DF8000FF091F90346002B01D008F02BFA164A40
:106E080016491448FFF72EFC0346002B05D01449F9
:106E1800002006F037FE08F01DFA002009F02CFBD0
:106E2800034B00221A7000BF0837BD4680BD00BF63
:106E3800787100208A020020600300208702002069
:106E4800880200208C02002056030020A0030020A6
:106E58006C710020C4730020547400200038014075
:106E68000089010880B400AF0C4B1B78012B10D1AE
:106E78000B4B1B8801339AB2094B1A80084B1B88AD
:106E8800B3F5FA6F05D9074B01221A70034B00229C
:106E98001A7000BFBD4680BC704700BF8702002043
:106EA800880200208A02002080B485B000AF786094
:106EB8000B467B8013467B707B785B08FB72154A18
:106EC8007B881380144A7B7813700023FB600BE0E7
:106ED800FB685B007A6813441988104AFB6822F83B
:106EE8001310FB680133FB60FB7AFA689A42EFDB08
:106EF8000B4B03F58053B3F87237012B05D1094BBF
:106F080001221A70084B00221A8000BF1437BD46B0
:106F180080BC704754030020560300208C020020D8
:106F2800A0030020870200208802002080B500AF5F
:106F38001F4B1B78002B38D009F094FA02461D4BE2
:106F48001B68D31AB3F57A7F17D909F08BFA034671
:106F5800184A1360184B1B88184A127819461848A3
:106F680000F0E2F8144B1B881A46144B1B785B0898
:106F7800DBB21449002006F085FD134B1B78002B6B
:106F880013D009F06FFA0346104A136000F022F894
:106F98000346002B06D00E49002006F073FD044B73
:106FA80000221A70084B00221A7000BF80BD00BF73
:106FB8008A020020580300205403002056030020B2
:106FC8008C020020248901087871002060030020C9
:106FD8005489010880B584B000AF0023FB734B4B84
:106FE8001B78002B01D100238CE0484B1B78012B28
:106FF80008D0464B1B781A464549002006F042FD4A
:1070080000237FE0414B5B787B7397F90D30002BB1
:1070180008DA7A7B3D4B9B783E49002006F032FD2A
:1070280000236FE00023BB737B7B032B06D1374B18
:107038009B783B733B7B0533BB730DE07B7B102B4D
:1070480002D10823BB7307E07B7B1A463249002034
:1070580006F018FD002355E0BB7B013B2B4AD35CAF
:107068001BB21B021AB2BB7B023B2849CB5C1BB28A
:1070780013431BB27B81BB7B9BB2023B9BB219467D
:10708800224801F0C5FA03463B817A893B899A4236
:1070980007D07A893B892149002006F0F3FC0123B7
:1070A80030E07B7B032B0BD1184B9B78FB70FB7874
:1070B8001A461B49002006F0E5FC0323FB7320E079
:1070C8007B7B102B1DD1114B9B781BB21B021AB274
:1070D8000E4BDB781BB213431BB2FB800B4B1B79A7
:1070E8001BB21B021AB2094B5B791BB213431BB2CA
:1070F800BB80FA88BB880B49002006F0C3FC02233A
:10710800FB73FB7B18461037BD4680BD5C6F0020C3
:107118007489010898890108D4890108FC89010843
:10712800348A0108588A010880B586B000AF7860B3
:107138000B467B8013467B700023FB757B785B08CE
:10714800FB73464B01221A70444B10225A707B88FD
:107158001B0A9BB2DAB2414B9A707B88DAB23F4B7A
:10716800DA703E4B00221A713C4AFB7B5371FB7B61
:107178005B00DAB2394B9A7100233B6118E03B6936
:107188005B007A6813441B887B817B891B0A9AB24F
:107198003B695B000733D1B2304AD1543B690433B1
:1071A8005B007A89D1B22D4AD1543B6901333B61E6
:1071B800FB7B3A699A42E2DBFB7B9BB25B009BB2AA
:1071C80007339BB21946254801F022FA0346BB81D2
:1071D800FB7B5B000733BA89D1B2204AD154BB8903
:1071E8001B0A9AB2FB7B04335B00D1B21B4AD15411
:1071F8004FF4807200211A4810F098F8194B0022B9
:107208001A70184B1B78012B23D0174B1B681B686F
:1072180003F01003102B1CD0134B93F84130DBB252
:10722800202B16D14FF4807200210D4810F07EF803
:107238000C4B00221A700D4B1868FB7B9BB25B004D
:107248009BB209339BB21A4604490FF071F8034602
:10725800FB75FB7D18461837BD4680BD88010020A8
:107268005C6F0020787100200C7400206C71002085
:1072780080B582B000AF264B1B88002B21D000239D
:107288007B6010E07B689AB2224B1B8813449AB249
:1072980021497B6831F813301946104600F0FEF892
:1072A8007B6801337B601A4B1B881A467B689342C4
:1072B800E8DB174B00221A80C8220021164810F07C
:1072C80035F8164B1B88002B1DD0144B1B88A3F5D3
:1072D8000C53273B124A82FB03125110DA17891A02
:1072E8000A46D2000A44991A002902D100F01CF873
:1072F80006E00A4B1B881A460A49002006F0C2FB22
:10730800064B00221A8000BF0837BD4680BD00BF6B
:107318008401002086010020BC0000205C030020BE
:10732800398EE338848A010880B590B000AF564B97
:107338001B88A3F50C53273B544A82FB03125210B7
:10734800DB17D31A87F8373007F1240300221A60B5
:107358005A609A60DA601A8207F1100300221A60F4
:107368005A609A60DA601A820023FB6316E097F885
:1073780037305A1E1346DB00134403F50C532833E9
:10738800FA6B1344424A32F81320FB6B5B0040331C
:107398003B4423F81C2CFB6B0133FB63FB6B082B72
:1073A800E5DD07F1100107F124031222184601F068
:1073B800FBF897F83730013B9BB21A46D2001344CA
:1073C8005B009BB203F5005399B207F11002122338
:1073D800304805F013F80346022B03D02E4900204D
:1073E80006F050FB3B1D00221A605A601A810023E8
:1073F800BB6316E097F837305A1E1346DB00134478
:1074080003F50C532C33BA6B1344214A32F813207A
:10741800BB6B5B0040333B4423F83C2CBB6B013314
:10742800BB63BB6B042BE5DD97F83730013B9BB2A0
:107438001A46920013445B009BB203F58A531F332C
:1074480099B23B1D0A22184602F084FA97F83730A1
:107458005A1E1346DB00134403F50C5328330C4A19
:1074680032F813307B8097F837309BB203F5875397
:107478001A3399B2BB1C0222184602F06BFA00BFFD
:107488004037BD4680BD00BF5C030020398EE3381D
:10749800A0030020B0720020C88A0108B0B5AAB0C5
:1074A80004AF03460A46FB801346BB80BB88A7F897
:1074B80080300023A7F87C30FB8842F227329342C1
:1074C80000F0328642F22732934200F39987B3F5EF
:1074D800005F00F01F81B3F5005F00F3918741F66C
:1074E8000302934200F38C8741F2A97293422DDA8A
:1074F80041F25F52934200F0D981B3F5AB5F80F25D
:107508007F8741F20B02934200F37A87B3F5805FDD
:1075180080F2DC8040F6C132934200F0E68640F605
:10752800C132934200F36C8740F6B832934200F0C0
:107538004C8740F6B832934200F36287642B00F020
:10754800E580A12B00F0A18500F05ABFA3F5BD533B
:10755800093B5A2B00F2548701A252F823F000BFCE
:10756800BB7C000809840008157D00080984000810
:10757800597D000809840008237E00080984000852
:10758800677E000809840008AB7E000809840008AB
:10759800177F0008098400085B7F00080984000839
:1075A800C97F0008098400080D80000809840008C4
:1075B8000984000809840008AF82000809840008CB
:1075C800098400080984000809840008098400085F
:1075D800098400080984000809840008098400084F
:1075E800098400080984000809840008098400083F
:1075F800098400080984000809840008098400082F
:10760800098400080984000809840008098400081E
:10761800098400080984000809840008098400080E
:1076280009840008098400080984000809840008FE
:1076380009840008098400080984000809840008EE
:1076480009840008098400080984000809840008DE
:1076580009840008098400080984000809840008CE
:1076680009840008098400080984000809840008BE
:1076780009840008098400080984000809840008AE
:10768800098400080984000809840008098400089E
:10769800098400080984000809840008098400088E
:1076A80009840008997D00080984000809840008F5
:1076B800098400080984000809840008098400086E
:1076C800098400080984000851800008A3F5805344
:1076D8000B2B00F2958601A252F823F06B77000875
:1076E800098400082F780008098400080984000824
:1076F8000984000809840008098400083B79000807
:1077080009840008C37A0008E37B000800F0CEFE75
:1077180000F08ABEB7F88030002B0BD1C84B03F5B8
:10772800804300221A8004F0E9F9002002F072FA7E
:1077380000F06DBEB7F88030012B40F06886C04B72
:1077480003F5804301221A80B7F88030DBB219466E
:107758004FF4806005F0E0FB022002F05BFA00F0D5
:1077680056BEB7F88020B64B03F500531A80B44BC9
:1077780003F500531B881846FDF7A4FE04460D4682
:10778800B04BD3E900014FF00002AF4BFDF74EFDBF
:1077980002460B4620462946FEF770F90346002BA1
:1077A8001ED0AA4B1B78012B1AD0A54B03F500530A
:1077B8001B881846FEF7B0FA0446A54B9B68184686
:1077C800FEF7AEFA03461946204607F025F80346A9
:1077D8001846FDF789FE02460B469A49C1E900237F
:1077E80007F1800302224FF48051184602F0B2F8E4
:1077F800B7F8800007F17C035A1C07F17C0319468F
:1078080000F08AFE07F17C0202234FF48051914870
:1078180004F0F4FD8A4B1B88002B40F0FA8506F033
:107828009BFD00F0F6BDB7F88020854B03F50053AB
:107838009A8007F18003022241F20201184602F001
:1078480089F87F4B03F500539B881A4613461B01A2
:107858009B1A9B001A467A4B03F500531B89134465
:10786800184604F0D1FC03467B4A1360744B03F5B9
:1078780000539B8A012B05D1774B1B683221184690
:1078880004F0F0FCB7F8800007F17C035A1C07F1FC
:107898007C03194600F040FE07F17C02022341F206
:1078A80002016C4804F0AAFD00F0BEBDB7F88020C4
:1078B800634B03F500531A8107F18003022241F25A
:1078C8000401184602F046F85D4B03F500539B8807
:1078D8001A4613461B019B1A9B001A46584B03F580
:1078E80000531B891344184604F08EFC03465A4A79
:1078F8001360534B03F500539B8A012B05D1564B5C
:107908001B683221184604F0ADFCB7F8800007F177
:107918007C035A1C07F17C03194600F0FDFD07F1B2
:107928007C02022341F204014A4804F067FD00F09A
:107938007BBDB7F88020424B03F500531A82B7F895
:1079480080203F4B03F500539A8207F180030222FF
:1079580041F20801184601F0FDFF07F180030222F9
:1079680041F20A01184601F0F5FFB7F88030012B03
:1079780038D106F0F1FC01214FF4206005F0CCFA73
:1079880000214FF4002005F0C7FA2D4B03F50053F2
:10799800DB8A012B08D107F18003022241F20C0196
:1079A800184601F0D7FF0DE0254B03F50053DB8A9D
:1079B800022B07D107F18003022241F20E0118467B
:1079C80001F0C8FF07F18003022241F210011846B6
:1079D80001F0C0FF204B1B683221184604F042FC1E
:1079E80000F022BD00211D4805F096FA01214FF450
:1079F800002005F091FA002300220021184809F020
:107A080090FB3221002004F02DFC0D4B03F50053B0
:107A1800DB8A012B26D107F18003022241F20C01F7
:107A2800184601F097FF0223A7F8803007F180037A
:107A3800022241F20C01184601F08CFF2BE000BF36
:107A4800A0030020A872002000001440A0720020AB
:107A5800606E0020B07200204C69002010080400FD
:107A6800F0710020C74B03F50053DB8A022B12D1BB
:107A780007F18003022241F20E01184601F06AFF65
:107A88000223A7F8803007F18003022241F20E0199
:107A9800184601F05FFFBB4B03F5005300221A8420
:107AA8000023A7F8803007F18003022241F2100179
:107AB800184601F04FFF00F0B7BC07F1800302221F
:107AC80041F20A01184601F045FFB7F88020AD4B96
:107AD80003F500539A82B7F88030012B3FD100217B
:107AE8004FF4002005F018FAA64B03F50053DB8A83
:107AF800012B13D107F18003022241F20C01184631
:107B080001F028FF0023A7F8803007F18003022244
:107B180041F20E01184601F01DFF18E0994B03F5DC
:107B28000053DB8A022B12D107F18003022241F2B3
:107B38000E01184601F00EFF0023A7F8803007F168
:107B48008003022241F20C01184601F003FF8E4B1C
:107B58001B683221184604F085FB00F065BC012142
:107B68004FF4002005F0D8F9864B03F50053DB8A63
:107B7800012B13D107F18003022241F20C011846B0
:107B880001F0E8FE0223A7F8803007F18003022203
:107B980041F20C01184601F0DDFE18E0794B03F5BF
:107BA8000053DB8A022B12D107F18003022241F233
:107BB8000E01184601F0CEFE0223A7F8803007F127
:107BC8008003022241F20E01184601F0C3FE322161
:107BD800002004F047FB00F027BCB7F88020694B71
:107BE80003F50053DA8207F18003022241F20B0108
:107BF800184601F0AFFEB7F8800007F17C035A1C65
:107C080007F17C03194600F087FC07F17C02022388
:107C180041F20B015D4804F0F1FBB7F88030DBB2AC
:107C2800013BDBB219464FF4003005F075F9554BAE
:107C380003F500539B8A012B40F0ED83514B03F56C
:107C48000053DB8A012B16D10123A7F8803007F1F6
:107C58008003022241F20C01184601F07BFE00234A
:107C6800A7F8803007F18003022241F20E0118467E
:107C780001F070FECFE3434B03F50053DB8A022B80
:107C880040F0C9830123A7F8803007F1800302225E
:107C980041F20E01184601F05DFE0023A7F880307E
:107CA80007F18003022241F20C01184601F052FE4E
:107CB800B1E307F18003022241F2A971184601F0ED
:107CC80049FEB7F880202F4B03F50053A3F8522F35
:107CD800B7F88030012B03D1012003F0E3FE02E066
:107CE800002003F0DFFEB7F8800007F17C035A1C80
:107CF80007F17C03194600F00FFC07F17C02022310
:107D080041F2A971214804F079FB8DE307F1800362
:107D1800022241F2AB71184601F01CFEB7F8802030
:107D2800184B03F50053A3F8562FB7F8800007F156
:107D38007C035A1C07F17C03194600F0EDFB07F1A0
:107D48007C02022341F2AB71104804F057FB6BE34D
:107D5800B7F880200B4B03F50053A3F85A2FB7F858
:107D6800800007F17C035A1C07F17C03194600F0D8
:107D7800D3FB07F17C02022341F2AD71034804F002
:107D88003DFB51E3A00300204C690020B0720020A5
:107D9800B7F88030012B40F0408307F168030222D6
:107DA80041F2AD71184600F083FE97F869301A4623
:107DB800DA4B03F50053B3F85A3F9A4200F02D838B
:107DC80007F16802022341F2AD71D54804F016FBB1
:107DD800512001F01FFF0123A7F8663007F1660361
:107DE80002224FF47141184601F0B4FD01F07CFD08
:107DF800CB4804F08BFDCA4804F0AAFE0023A7F87C
:107E0800663007F1660302224FF47141184601F00B
:107E1800A1FD002001F0FEFEFFE207F1800302222F
:107E280041F2AF71184601F095FDB7F88020BB4BC1
:107E380003F50053A3F85E2FB7F8800007F17C0321
:107E48005A1C07F17C03194600F066FB07F17C0217
:107E5800022341F2AF71B24804F0D0FAE4E207F12C
:107E68008003022241F2B171184601F073FDB7F8A0
:107E78008020AA4B03F50053A3F8622FB7F88000BF
:107E880007F17C035A1C07F17C03194600F044FBF8
:107E980007F17C02022341F2B171A14804F0AEFA65
:107EA800C2E207F18003022241F2B371184601F0E1
:107EB80051FDB7F88020994B03F50053A3F8662FBE
:107EC800B7F8800007F17C035A1C07F17C031946B8
:107ED80000F022FB07F17C02022341F2B3719048C3
:107EE80004F08CFA8D4B03F50053B3F8663F1A463D
:107EF8000021032001F098F9884B03F50053B3F8EB
:107F0800663F1A460121032001F08EF98CE207F141
:107F18008003022241F2B571184601F01BFDB7F843
:107F280080207E4B03F50053A3F86A2FB7F8800032
:107F380007F17C035A1C07F17C03194600F0ECFAA0
:107F480007F17C02022341F2B571754804F056FA34
:107F58006AE207F18003022241F2B771184601F084
:107F6800F9FCB7F880206D4B03F50053A3F86E2F8A
:107F7800B7F8800007F17C035A1C07F17C03194607
:107F880000F0CAFA07F17C02022341F2B771644893
:107F980004F034FA614B03F500539B881A461346E4
:107FA8001B019B1A9B001A465C4B03F500531B8967
:107FB8001344184604F028F903465A4A136033E27A
:107FC80007F18003022241F2B971184601F0C2FCA0
:107FD800B7F88020514B03F50053A3F8722FB7F878
:107FE800800007F17C035A1C07F17C03194600F056
:107FF80093FA07F17C02022341F2B971484804F070
:10800800FDF911E207F18003022241F2BB71184623
:1080180001F0A0FCB7F88020404B03F50053A3F80B
:10802800762FB7F8800007F17C035A1C07F17C0310
:10803800194600F071FA07F17C02022341F2BB7184
:10804800374804F0DBF9EFE107F18003022241F63B
:108058000301184601F07EFCB7F880202F4B03F58A
:108068004053DA80B7F8800007F17C035A1C07F107
:108078007C03194600F050FA07F17C02022341F60E
:108088000301274804F0BAF9CEE1244BB3F838319C
:1080980087F88730214BB3F83A3187F886301F4B81
:1080A800B3F83C3187F885301C4BB3F83E3187F87C
:1080B80084301A4BB3F8403187F88330B7F88030F2
:1080C80087F88230B7F88020144BA3F8422197F83C
:1080D800844097F8852097F8861097F88700012341
:1080E800029397F88230019397F8833000932346E0
:1080F80003F0BEFF97F882309BB297F8844097F858
:10810800872097F8861097F88500019397F88330B1
:108118000093234607F0E6FB86E100BFA00300209A
:10812800B07200204C690020B7F88030002B00F0B6
:108138007681B7F88030642B00F27181B7F880300F
:10814800A7F86430B7F8643003F5845316339AB24D
:10815800BE4B1A80B7F864305A1E1346DB0013442E
:1081680003F50C532833BA4A32F81330A7F86230B3
:1081780007F16403022241F27201184601F0EAFB9A
:1081880007F16203022241F27101184601F0E2FB95
:108198000023C7F894301AE0B7F864305A1E134623
:1081A800DB00134403F50C532C33D7F89420134405
:1081B800A74A32F81320D7F894305B0098333B4431
:1081C80023F8402CD7F894300133C7F89430D7F807
:1081D8009430042BE0DD07F158030A2241F27301C1
:1081E800184601F0B7FBB7F86420994B03F58043B4
:1081F800A3F84E26964B03F5804303221A800023EA
:10820800C7F890302DE0B7F864305A1E1346DB00EB
:10821800134403F50C532833D7F890201344013343
:108228008B4A32F81330A7F85630D7F8903003F558
:1082380000639BB25B0099B207F15603022218460D
:1082480001F088FBD7F8903003F500635B00B7F8BE
:1082580056107F4A22F81310D7F890300133C7F828
:108268009030D7F89030022BCDDD794B03F50053D1
:108278009B881A4613461B019B1A9B001A46744B8F
:1082880003F500531B891344184603F0BDFF03464A
:10829800704A136001214FF4806004F03DFE2920EC
:1082A80001F0B8FCBBE0B7F88030012B40F0B98092
:1082B800002387F8553007F155020123002166484D
:1082C80004F09CF8002008F0D7F8644B1B683B6565
:1082D80007F1500304220421184601F03BFB4FF438
:1082E8007A7008F0C9F8FEF77BF9B7F88020584B88
:1082F80003F58053A3F8822707F16C0300221A6064
:108308005A609A60DA600023C7F88C3013E0D7F817
:108318008C3003F6D5334E4A32F81330D9B207F110
:108328006C02D7F88C3013440A461A70D7F88C3090
:108338000133C7F88C30D7F88C30092BE7DD0023E0
:10834800C7F8883013E0D7F8883003F6CF33404AAF
:1083580032F81320D7F888300A33D2B298333B4426
:1083680003F82C2CD7F888300133C7F88830D7F8B1
:108378008830052BE7DD07F1080321220021184684
:108388000EF0D4FF07F1080207F16C03102118461C
:10839800FEF73CF907F12C032222002118460EF0C3
:1083A800C5FF07F12C0107F108032122184600F048
:1083B800C9F8FF23A7F84C3007F12C03222247F213
:1083C800BB51184601F0C6FA2EE007F180030222DD
:1083D80041F2D071184601F0BDFAB7F880201C4B65
:1083E80003F58053A3F87027B7F88030002B1AD113
:1083F800B7F88020164B03F58053A3F8722712E0D4
:10840800FB88B7F88010124A22F813100CE000BF5E
:108418000AE000BF08E000BF06E000BF04E000BFBC
:1084280002E000BF00E000BFFB8842F2273293421F
:1084380007D9FB8842F2AB62934202D8084AFB880C
:10844800138000BF9837BD46B0BD00BF4869002003
:10845800A00300204C690020B0720020FC8A0108AB
:108468005C03002080B500AFFEF766FCFEF700FF56
:1084780000BF80BD80B400AF094BDB69084A43F0F8
:10848800C053D361074B1B68064A43F480731360DB
:10849800054B4BF207025A6000BFBD4680BC7047CF
:1084A8000010024000700040006C004080B500AF32
:1084B800FFF7E0FF0A2007F0DFFFFEF791F8000062
:1084C80080B400AFBFF34F8F00BF064BDB6803F4E7
:1084D800E0620449044B1343CB60BFF34F8F00BFE6
:1084E80000BFFDE700ED00E00400FA0580B483B0AA
:1084F80000AF03460A46FB711346BB71FB791BB2FA
:108508001B021AB2BB791BB213431BB29BB21846AB
:108518000C37BD4680BC704780B485B000AF0346B9
:10852800B9607A60FB81FB891B0A9BB2DAB2BB682F
:108538001A70FB89DAB27B681A7000BF1437BD461F
:1085480080BC704780B487B000AFF860B96013464C
:10855800FB8000237B611AE07B695B001A46FB689D
:1085680013441B781BB21B021AB27B695B000133F0
:10857800F9680B441B781BB2134319B27B695B0083
:10858800BA6813448AB21A807B6901337B61FB881D
:108598005B089BB21A467B699342DDDB00BF00BFD4
:1085A8001C37BD4680BC704780B487B000AFF86008
:1085B800B9601346FB8000237B611CE07B695B008C
:1085C800FA68134419887B695B000133BA6813445D
:1085D800CAB21A707B695B00FA6813441B881B0ACD
:1085E8009AB27B695B001946BB680B44D2B21A7019
:1085F8007B6901337B61FB885B089BB21A467B6908
:108608009342DBDB00BF00BF1C37BD4680BC704710
:1086180080B485B000AF78600B467B804FF6FF735F
:10862800FB810023BB8122E0BB897A6813441B7855
:108638001A46FB895340FB810023FB7211E0FB893A
:1086480003F00103002B06D0FB895B089AB20D4B9F
:108658005340FB8102E0FB895B08FB81FB7A013315
:10866800FB72FB7A072BEAD9BB890133BB81BA8934
:108678007B889A42D8D3FB8918461437BD4680BCFC
:10868800704700BF01A0FFFF80B400AF034B4AF65C
:10869800AA221A6000BFBD4680BC70470030004067
:1086A80080B588B000AF07F1100300221A605A6045
:1086B8001A810123FB830923BB83FA8BBB8B07F148
:1086C800100010490EF010FE3B1D00221A605A607F
:1086D8001A81391D07F110030A221846FFF732FFE5
:1086E800094B03F500536D22A3F8C02F3B1D0A2246
:1086F8004FF4BF51184601F02DF900BF2037BD4691
:1087080080BD00BF008B0108A003002080B588B0A1
:1087180000AF786039602D4BBB614FF00003FB61FF
:108728002B4B7B613B68002B17D12A4BFB612A49F5
:108738007868FDF705FD0346002B02D0264B7B60C9
:1087480025E04FF000017868FDF7DCFC0346002BBC
:108758001DD04FF000037B6019E03B68102B16D149
:108768001E4BFB611E497868FDF7EAFC0346002BA7
:1087780002D01B4B7B600AE04FF000017868FDF7E0
:10878800C1FC0346002B02D04FF000037B60F9695F
:108798007868FDF7CDFB03463B61B9693869FDF799
:1087A800C7FB034679691846FDF70EFB03461846D2
:1087B800FDF70CFD0346FB60FB6800223968094899
:1087C80008F0AFFC00BF2037BD4680BD33335340AF
:1087D80000F07F450000C04000007041D7A3504022
:1087E80000002041F07100202DE9F0438DB002AF68
:1087F800002387F827308B4B1B785A2B40F0F280E8
:10880800884B5B78A52B40F0ED806B461E46854B68
:108818009B78033387F8263097F82630814AD35C53
:108828005A2B2CD197F8263003337E4AD35C832BFE
:1088380025D197F8263002337A4AD35C033387F878
:108848002630784B9B780333FB74FB7C3B620BE050
:10885800FB7C3A6AD31A73493A6A0A441178714A16
:10886800D1543B6A01333B62FA7C97F826301344B3
:108878003A6A9A42ECDB6C49002005F003F9694B2F
:108888009B78023BD9B20B46013BFB60CBB200227E
:10889800984691464FF000024FF000034FEAC90393
:1088A80043EA58734FEAC802CBB200221C46154669
:1088B8004FF000024FF00003EB0043EA5473E2006C
:1088C8000B460733DB08DB00ADEB030D02AB0033CF
:1088D800BB600023FB610BE0FB690333514AD05CAA
:1088E800BA68FB69134402461A70FB690133FB61DD
:1088F8004C4B9B78023BFA699A42EDDB0B461946D2
:10890800B868FFF785FE0346FB8097F82630013BE1
:10891800444AD25C97F82630023B4249CB5C194660
:108928001046FFF7E3FD0346BB80FA88BB889A42EE
:108938004FD13C4BDB78822B02D1022387F82730BA
:10894800384BDB78832B4BD1364B1B79354A527920
:1089580011461846FFF7CAFD03467B807B8849F21B
:108968009A7293423CD07B88842B39D07B88B3F5AC
:10897800E44F35D02B4B1B791A462A4B5B792B4990
:10898800002005F07FF8002007F076FD0023BB618A
:1089980015E0BB695A1CBB695B0007332149CB5CF6
:1089A8001846BB6904335B001E49CB5C0093034641
:1089B8001F49002005F066F8BB690133BB61194BFC
:1089C8009B791A46BB699342E3DB032387F8273078
:1089D80006E01849002005F055F8012387F82730EC
:1089E800B54618E01449002005F04CF8134B012255
:1089F8001A7000237B610BE00A4A7B6913441978DB
:108A08000F4A7B6913440A461A707B6901337B61FC
:108A18007B69132BF0DD97F8273018462C37BD46B5
:108A2800BDE8F083946E00200C8B0108248B0108AC
:108A3800588B0108708B0108808B0108326900206F
:108A48003469002080B586B000AFF860B9607A60FC
:108A5800134ABB681360134AFB681360124A7B68A9
:108A6800136064221149F8680DF097FC0346FB7502
:108A780000233B61FB681B681B683B61FB681B6844
:108A88005B683B613B69FB681B68DA68FB681B68CD
:108A980042F01002DA60FB7D18461837BD4680BDEB
:108AA8005C7100206071002064710020F86E002065
:108AB8002DE9F0478CB000AF78600B467B801346F9
:108AC8007B706B469A46002387F82F307B785B08CB
:108AD800FB77FB7F03F10806731EBB613246002358
:108AE800904699464FF000024FF000034FEAC90341
:108AF80043EA58734FEAC8023246002314461D461B
:108B08004FF000024FF00003EB0043EA5473E20019
:108B180033460733DB08DB00ADEB030D6B46003350
:108B28007B617B695A221A707B69A5225A707B691E
:108B380006229A707B698322DA707B881B0A9BB2B3
:108B4800FB747B88BB747B69FA7C1A717B69BA7C7D
:108B58005A717B69FA7F9A710323BB620CE0BB6A86
:108B6800033B7969BA6A0A44127830333B4403F804
:108B7800282CBB6A0133BB62BB6A062BEFDD07F109
:108B8800080304211846FFF743FD03463B823B8A4E
:108B9800DAB27B69DA713B8A1B0A9BB2DAB27B696B
:108BA8001A72002387F827306422002133480EF018
:108BB800BDFB334B00221A70324B1B68B2B2796985
:108BC80018460DF0B5FB97F82730013387F82730A2
:108BD80007F048FCF86000BF294B1B78012B06D032
:108BE80007F040FC0246FB68D31A0A2BF4D907F0B9
:108BF80039FC0246FB68D31A0A2B28D897F8273085
:108C0800032B24D8FFF7F0FD034687F82F3097F899
:108C18002F30032B16D100233B620AE03B6ADA1D92
:108C28003B6A79680B4415498A5C1A703B6A0133C0
:108C38003B62FB7F5B003A6A9A42EFDB104B0022F3
:108C48001A7013E01049002004F01CFFACE797F8F5
:108C58002730032B04D80D49002004F013FFA3E7A5
:108C6800074B00221A70064B00225A7097F82F30D3
:108C7800D54618463037BD46BDE8F087946E0020CB
:108C88007471002060710020948B0108A88B010882
:108C980090B5A1B000AF0346FB800B467B7113462D
:108CA8007B8045F6A523A7F87430FB88A7F87630B3
:108CB8007B799BB21B029BB201339BB2A7F8783039
:108CC8000223A7F87A3007F174030822B021184666
:108CD80000F040FE322007F0CFFB07F144033022BA
:108CE800002118460EF022FB07F144033022B4217C
:108CF8001846FFF7DDFE45F6A523BB81FB88FB81FF
:108D08007B799BB21B029BB201339BB23B8203234C
:108D18007B820023FB671BE0FB6F5B0080333B44D7
:108D280013F83C2CFB6F5B00013380333B4413F892
:108D38003C1CFB6F1C1D1046FFF7D8FB03461A4668
:108D4800630080333B4423F8742CFB6F0133FB67CB
:108D5800FB6F172BE0D97B883B8507F10C03382282
:108D6800B021184600F0F6FD322007F085FB00BF61
:108D78008437BD4690BD80B584B000AF0346FB8004
:108D88000823FB6022E00023BB6019E0FB681C2B72
:108D980008D0FB689BB2BA68D1B2FA881846FFF7C8
:108DA80077FF0AE0BB68032B07DCFB689BB2BA6855
:108DB800D1B2FA881846FFF76BFFBB680133BB6076
:108DC800BB68052BE2DDFB680133FB60FB68182BF1
:108DD800D9DD00BF00BF1037BD4680BD80B582B069
:108DE80000AF0346FB80FB88032B1BD801A252F877
:108DF80023F000BF0D8E0008158E00081D8E000898
:108E0800258E00080720FFF7B6FF0BE03020FFF79C
:108E1800B2FF07E03120FFF7AEFF03E03920FFF78C
:108E2800AAFF00BF00BF0837BD4680BD90B585B01A
:108E380000AF0446084611461A462346FB800346FF
:108E4800BB800B467B8013463B80BB883B817B887D
:108E58007B813B88BB81FB88053399B207F1080306
:108E68000622184600F076FD00BF1437BD4690BDB7
:108E780080B582B000AF0346FB80FB88032B00F26D
:108E8800CF8101A252F823F0A18E0008838F000839
:108E9800659000084791000843F201733622352196
:108EA8004FF48E40FFF7C2FF43F20173362235219B
:108EB80044F20A70FFF7BAFF43F2017354225121BA
:108EC80044F21470FFF7B2FF43F2017336223521E2
:108ED80044F21E70FFF7AAFF43F2017341224021BA
:108EE80044F23270FFF7A2FF43F20173422240219D
:108EF80044F23C70FFF79AFF43F20173432240218A
:108F080044F24670FFF792FF43F201734422402176
:108F180044F25070FFF78AFF43F201734622402162
:108F280044F25A70FFF782FF43F201734522402151
:108F380044F26470FFF77AFF43F20173472240213D
:108F480044F26E70FFF772FF43F201735022402122
:108F580044F27870FFF76AFF43F20173492249210E
:108F680044F28270FFF762FF43F2017348224821FE
:108F780044F28C70FFF75AFF52E143F20173362234
:108F880035214FF48E40FFF751FF43F2017336222B
:108F9800352144F20A70FFF749FF43F601233D22C9
:108FA8003A2144F21470FFF741FF43F2017336226D
:108FB800352144F21E70FFF739FF43F601234F2293
:108FC800612144F23270FFF731FF43F6012350224A
:108FD800612144F23C70FFF729FF43F60123512237
:108FE800612144F24670FFF721FF43F60123522224
:108FF800612144F25070FFF719FF43F60123532211
:10900800612144F25A70FFF711FF43F601235422FD
:10901800612144F26470FFF709FF43F601235522EA
:10902800612144F26E70FFF701FF43F601235622D7
:10903800612144F27870FFF7F9FE43F601236222BA
:10904800622144F28270FFF7F1FE43F2017360225D
:10905800602144F28C70FFF7E9FEE1E043F601235A
:10906800372236214FF48E40FFF7E0FE43F6012306
:109078003722362144F20A70FFF7D8FE43F601235F
:109088004C22492144F21470FFF7D0FE43F6012325
:109098003722362144F21E70FFF7C8FE43F601233B
:1090A8005722612144F23270FFF7C0FE43F60123D4
:1090B8005822612144F23C70FFF7B8FE43F60123C1
:1090C8005922612144F24670FFF7B0FE43F60123AE
:1090D8005A22612144F25070FFF7A8FE43F601239B
:1090E8005B22612144F25A70FFF7A0FE43F6012388
:1090F8005C22612144F26470FFF798FE43F6012375
:109108005D22612144F26E70FFF790FE43F6012361
:109118005E22612144F27870FFF788FE43F601234E
:109128006322632144F28270FFF780FE43F6012335
:109138005F225F2144F28C70FFF778FE70E043F6FF
:109148000123752274214FF48E40FFF76FFE43F61A
:1091580001237522742144F20A70FFF767FE43F673
:10916800012371226E2144F21470FFF75FFE43F66B
:1091780001237522742144F21E70FFF757FE43F64F
:1091880001237622612144F23270FFF74FFE43F645
:1091980001237722612144F23C70FFF747FE43F632
:1091A80001237822612144F24670FFF73FFE43F61F
:1091B80001237922612144F25070FFF737FE43F60C
:1091C80001237A22612144F25A70FFF72FFE43F6F9
:1091D80001237B22612144F26470FFF727FE43F6E6
:1091E80001237C22612144F26E70FFF71FFE43F6D3
:1091F80001237D22612144F27870FFF717FE43F6C0
:1092080001236422642144F28270FFF70FFE43F6C3
:1092180001236022602144F28C70FFF707FE00BF33
:1092280000BF0837BD4680BD90B599B000AF034672
:10923800FB800B467B7113467B8045F6A523A7F878
:109248005430FB88A7F856307B799BB21B029BB23F
:1092580002339BB2A7F858300223A7F85A3007F117
:1092680054030822B021184600F074FB322007F09E
:1092780003F907F134032022002118460EF056F8AE
:1092880007F134032022B4211846FFF711FC07F137
:109298000C032822002118460EF048F845F6A523AD
:1092A800BB81FB88FB817B799BB21B029BB202339B
:1092B8009BB23B8203237B820023FB651BE0FB6D93
:1092C8005B0060333B4413F82C2CFB6D5B000133CF
:1092D80060333B4413F82C1CFB6D1C1D1046FFF734
:1092E80005F903461A46630060333B4423F8542CBF
:1092F800FB6D0133FB65FB6D0F2BE0D97B88FB858C
:1093080007F10C032822B021184600F023FB322075
:1093180007F0B2F800BF6437BD4690BD90B5A9B05C
:1093280000AF0446084611461A462346FB8003460A
:109338007B710B463B711346FB7045F6A523A7F8D6
:109348009430FB88A7F896307B799BB21B029BB2BE
:1093580006339BB2A7F898300223A7F89A3007F192
:1093680094030822B021184600F0F4FA322007F0DE
:1093780083F807F154034022002118460DF0D6FF68
:1093880007F154034022B4211846FFF791FB45F634
:10939800A523BB81FB88FB817B799BB21B029BB217
:1093A80006339BB23B8203237B820023C7F89C30A1
:1093B80020E0D7F89C305B00A0333B4413F84C2CDA
:1093C800D7F89C305B000133A0333B4413F84C1CA6
:1093D800D7F89C301C1D1046FFF788F803461A463C
:1093E8006300A0333B4423F8942CD7F89C30013316
:1093F800C7F89C30D7F89C301F2BDAD93B8D1BB2AD
:1094080023F0FF031AB23B791BB213431BB29BB282
:109418003B85FB789BB21B029AB297F8B0309BB29F
:1094280013439BB27B857B8F1BB223F0FF031AB2D9
:1094380097F8B4301BB213431BB29BB27B8707F17A
:109448000C034822B021184600F084FA322007F0B5
:1094580013F800BFA437BD4690BD80B584B002AFF5
:109468000346FB80FB88022B1AD135230193462340
:10947800009332230B2200211920FFF74FFF6420AD
:1094880006F0FAFF352301934623009332230B227B
:1094980001213220FFF742FF642006F0EDFF37E09C
:1094A800FB88032B1AD01A23019346230093232306
:1094B8000F2200211920FFF731FF642006F0DCFF9E
:1094C8001A230193342300931A230F2201213220F7
:1094D800FFF724FF642006F0CFFF19E0382301933B
:1094E8004623009332230A2200211920FFF716FF92
:1094F800642006F0C1FF38230193462300933223EA
:109508000A2201213220FFF709FF642006F0B4FF88
:1095180000BF0837BD4680BD80B5A6B000AF034682
:10952800FB80FB88032B00F2D88101A252F823F0BC
:10953800499500083196000817970008F997000820
:109548000023C7F894301AE0AB4B1B687B61D7F84F
:1095580094309BB21A4652001A44920013449BB2AC
:1095680003F58043093399B207F11403042218461E
:1095780000F0F0F9D7F894300133C7F89430D7F8F1
:109588009430632BE0DD9C4B1B68C7F8843007F1EF
:109598008403042244F21D51184600F0DBF900232D
:1095A800A7F8803007F18003022244F215511846CB
:1095B80000F0D0F94FF48043A7F87C3007F17C0322
:1095C800022244F21F51184600F0C4F98A4B1B6866
:1095D800BB6707F17803042244F22A51184600F0C9
:1095E800B9F90023A7F8743007F17403022244F292
:1095F8002251184600F0AEF94FF48043A7F87030B6
:1096080007F17003022244F22C51184600F0A2F927
:109618007A4B1B68FB6607F16C03042244F237514E
:10962800184600F097F958E10023C7F890301AE07F
:10963800714B1B683B61D7F890309BB21A465200B9
:109648001A44920013449BB203F58043093399B23C
:1096580007F110030422184600F07CF9D7F890307F
:109668000133C7F89030D7F89030632BE0DD624BB8
:109678001B68BB6607F16803042244F21D511846B3
:1096880000F068F90023A7F8643007F164030222A8
:1096980044F21551184600F05DF94FF48043A7F8DD
:1096A800603007F16003022244F21F51184600F0AF
:1096B80051F9514B1B68FB6507F15C03042244F226
:1096C8002A51184600F046F90023A7F8583007F148
:1096D8005803022244F22251184600F03BF94FF495
:1096E8008043A7F8543007F15403022244F22C5166
:1096F800184600F02FF9414B1B683B6507F15003F2
:10970800042244F23751184600F024F9E5E000231A
:10971800C7F88C301AE03A4B1B68FB60D7F88C30DE
:109728009BB21A4652001A44920013449BB203F5A6
:109738008043093399B207F10C030422184600F05C
:1097480009F9D7F88C300133C7F88C30D7F88C304A
:10975800632BE0DD2A4B1B68FB6407F14C030422F2
:1097680044F21D51184600F0F5F82023A7F84830B8
:1097780007F14803022244F21551184600F0EAF8AE
:109788004FF40043A7F8443007F14403022244F29F
:109798001F51184600F0DEF8194B1B683B6407F1AF
:1097A8004003042244F22A51184600F0D3F820233B
:1097B800BB8707F13C03022244F22251184600F00D
:1097C800C9F84FF400433B8707F13803022244F2FB
:1097D8002C51184600F0BEF8094B1B687B6307F153
:1097E8003403042244F23751184600F0B3F874E009
:1097F8000023C7F8883020E0BC8B0108C08B010823
:10980800C48B0108374B1B68BB60D7F888309BB204
:109818001A4652001A44920013449BB203F580433F
:10982800093399B207F108030422184600F092F8A8
:10983800D7F888300133C7F88830D7F88830632BD9
:10984800E0DD284B1B683B6307F13003042244F238
:109858001D51184600F07EF82023BB8507F12C0324
:10986800022244F21551184600F074F84FF40043F0
:109878003B8507F12803022244F21F51184600F0E5
:1098880069F8184B1B687B6207F12403042244F231
:109898002A51184600F05EF820233B8407F1200384
:1098A800022244F22251184600F054F84FF40043C3
:1098B800BB8307F11C03022244F22C51184600F026
:1098C80049F8084B1B68BB6107F11803042244F2EE
:1098D8003751184600F03EF800BF00BF9837BD4624
:1098E80080BD00BFC88B010880B582B000AF184B9F
:1098F80003F50053B3F85A3FFB80BB1D022248F220
:109908003A41184600F026F8114B03F50053B3F816
:109918005A3F1846FFF762FA0D4B03F50053B3F8A8
:109928005A3F1846FFF7A4FA094B03F50053B3F85A
:109938005A3F1846FFF7F0FD054B03F50053B3F8FF
:109948005A3F1846FFF789FD00BF0837BD4680BD5E
:10995800A00300202DE9F04F93B000AF78610B46CB
:109968007B8213467B746B467B60002387F8473005
:109978007B7C5B0887F83A3097F83A3004335E000E
:10998800731E7B6332460023BA60FB604FF000020F
:109998004FF00003F968CB00D7E90201844643EA97
:1099A8005C730146CA003246002392469B464FF03C
:1099B80000024FF000034FEACB0343EA5A734FEA21
:1099C800CA0233460733DB08DB00ADEB030D6B46F9
:1099D80000333B633B6B5A221A703B6BA5225A70CB
:1099E80097F83A305B00DBB20533DAB23B6B9A701A
:1099F8003B6B8222DA707B8A1B0A9BB287F82F3076
:109A08007B8A87F82E303B6B97F82F201A713B6BB7
:109A180097F82E205A7100233B641AE03B6C5B00D8
:109A28007A6913441B887B837B8B1B0A9BB27B76EA
:109A38007B8B3B763B6C03335B003A6B797ED1546E
:109A48003B6C5B0007333A6B397ED1543B6C013376
:109A58003B6497F83A303A6C9A42DFDB97F83A3031
:109A68005B00D91C4B1EBB620A46002390469946F0
:109A78004FF000024FF000034FEAC90343EA58735E
:109A88004FEAC8020A46002314461D464FF000025A
:109A98004FF00003EB0043EA5473E2000B46073330
:109AA800DB08DB00ADEB030D6B4600337B62032361
:109AB800FB630AE0FB6B033B396BFA6B0A441178D2
:109AC8007A6AD154FB6B0133FB6397F83A3003335E
:109AD8005B00FA6B9A42EDDB97F83A309BB25B0079
:109AE8009BB203339BB21946786AFEF791FD034691
:109AF8007B8497F83A3003335B007A8CD1B23A6BA7
:109B0800D1547B8C1B0A9AB297F83A30013B5B0020
:109B18000933D1B23A6BD154002387F83B30374B25
:109B28001B78012B61D0364B1B681B6803F01003B0
:109B3800102B19D0324B93F84130DBB2202B13D1C4
:109B4800642200212F480DF0F1FB2C4B00221A70E3
:109B58002D4B1B68B2B2396B18460CF0E9FB97F82D
:109B68003B30013387F83B3006F07CFCF86100BFDE
:109B7800224B1B78012B06D006F074FC0246FB69C9
:109B8800D31A0A2BF4D906F06DFC0246FB69D31AE6
:109B98000A2B19D897F83B30032B15D8FEF724FE6B
:109BA800034687F8473097F84730022B03D1134B09
:109BB80000221A7018E097F84730032B14D0134985
:109BC800002003F05FFFAAE797F83B30032B04D887
:109BD8000F49002003F056FFA1E7084B00225A70F6
:109BE800064B00221A7000E000BF97F84730D7F8FC
:109BF80004D018464C37BD46BDE8F08F747100207C
:109C08000C740020946E002060710020CC8B010839
:109C1800A88B010880B58CB000AF0346FB71002308
:109C280087F82F305A233B74A5237B740923BB7410
:109C38008223FB7400233B7584237B755A23BB75F1
:109C48000123FB75002387F82630FB7987F8253038
:109C580097F826303B7697F825307B760323BB624E
:109C68000DE0BB6A033B07F11001BA6A0A44127897
:109C780030333B4403F8282CBB6A0133BB62BB6A10
:109C8800092BEEDD07F1080307211846FEF7C0FC93
:109C980003467B847B8CDBB2BB767B8C1B0A9BB236
:109CA800DBB2FB76002387F82730642200212D4899
:109CB8000DF03CFB2C4B00221A702C4B186807F156
:109CC800100164230C220CF0A8FA97F8273001330E
:109CD80087F8273006F0C6FBF86100BF224B1B78D7
:109CE800012B06D006F0BEFB0246FB69D31A0A2BED
:109CF800F4D906F0B7FB0246FB69D31A0A2B19D828
:109D080097F82730032B15D8FEF76EFD034687F822
:109D18002F3097F82F30022B03D1134B00221A70E3
:109D280018E097F82F30032B14D01149002003F0C6
:109D3800A9FEBAE797F82730032B04D80D4900206D
:109D480003F0A0FEB1E7084B00225A70064B002230
:109D58001A7000E000BF97F82F3018463037BD461C
:109D680080BD00BF946E00207471002060710020D7
:109D7800CC8B0108A88B010890B587B000AF0446CA
:109D8800084611461A462346FB800346BB800B460D
:109D9800FB701346BB700023FB7545F6A523BB81FA
:109DA800BB88FB81FB789BB21B029AB2BB789BB243
:109DB80013449BB23B82FB887B8207F10C03082289
:109DC800B0211846FFF7C6FD0346FB75FB7D184614
:109DD8001C37BD4690BD80B582B000AF0023FB7133
:109DE80000233B600EE03B68DAB205230021012026
:109DF800FFF7C2FF0346FB71322006F03DFB3B68CC
:109E080001333B603B68022BEDDDFB7918460837D0
:109E1800BD4680BD80B58CB000AF06F023FB02467E
:109E2800774B9B68D31AB3F57A7FC0F0DD8006F0D4
:109E380019FB0346724A93604FF40051714808F0C9
:109E48005CFB04F07FF8FEF71FFC6F4B5B78012B7F
:109E580040F0CA806D4B9B699AB26D4B03F5005375
:109E6800DA816A4B9B689AB2694B03F500539A8171
:109E7800664B9B689BB2BB83644B9B699BB2FB831D
:109E880007F11C03042241F206011846FFF762FDA0
:109E98005F4B03F580431B88012B05D05C4B03F512
:109EA80080431B88032B06D103F078F801F028FFC4
:109EB80001F044FF8FE0564B03F580431B88062BC7
:109EC80040F08980002387F82F30002387F82E3050
:109ED8004FF480614F4808F0E1FA034687F82730CD
:109EE8004FF400614B4808F0D9FA034687F826304A
:109EF8004FF48051474808F0D1FA034687F82530D7
:109F08004FF40051434808F0C9FA034687F8243053
:109F18004FF480413F4808F0C1FA034687F82330E0
:109F28004FF400413B4808F0B9FA034687F822305D
:109F38000023BB6219E04021324808F0AFFA03461B
:109F4800012B02D1012387F82F3080212D4808F0FA
:109F5800A5FA0346012B02D1012387F82E300020F1
:109F680006F08AFABB6A0133BB62BB6A182BE2DDD2
:109F7800264B1B689BB2BB80244B5B689BB2FB8063
:109F8800224B9B689BB23B8197F827309BB27B8121
:109F980097F826309BB2BB8197F825309BB2FB819E
:109FA80097F824309BB23B8297F823309BB27B8290
:109FB80097F822309BB2BB8297F82F309BB2FB8276
:109FC80097F82E309BB23B833B1D16224FF4245149
:109FD8001846FFF7BFFC0E4BB3F8A430012B01D095
:109FE80000F04EFB00F0A0FB02F0CCFF00F014F8EC
:109FF80000F090F902F00CF800BF3037BD4680BD84
:10A00800600300200010014074710020606E002081
:10A01800A0030020000C0140B0B58CB004AF06F0DE
:10A0280021FA0246A94B5B68D31AB3F5FA7FC0F050
:10A038004881A74B5B78012B00F03E81A54B1B782C
:10A04800042B00F2398107F1180302220F21184668
:10A05800FEF72EFD0346032B40F0F5809D4B0022B2
:10A068001A703B7E1A467B7E9B49002003F00AFD4E
:10A078003B7E7A7E11461846FEF738FA03461A46A2
:10A08800964BDA83954B03F580430222A3F84026CA
:10A0980007F1130407F1150207F1160107F117007C
:10A0A80007F11103029307F11203019307F1140357
:10A0B8000093234602F02DF8787DB97DFA7D3C7D2A
:10A0C800BB7C7D7C01950093234605F00BFC0023A7
:10A0D800BB8107F10C03022247F695111846FEF7DB
:10A0E800E7FC7B7B022B09D000233B8107F10803A7
:10A0F800022247F695111846FFF72CFCFEF7D0FA16
:10A108000023FB6114E0764AFB6932F813301A46E3
:10A11800724B33F81230FB80714AFB6932F8131026
:10A12800BB1D02221846FFF715FCFB690133FB61D2
:10A13800FB690E2BE7DD694B03F50053DB8ADBB2C5
:10A14800013BDBB219464FF4003002F0E5FE634BE9
:10A1580003F50053B3F85A3F002B01D0FFF7C4FBB7
:10A168005E4B03F50053B3F8663F1A4600210320FF
:10A17800FFF75AF8594B03F50053B3F8663F1A46F0
:10A1880001210320FFF750F801F0B8FC534B03F509
:10A1980000539B881A4613461B019B1A9B001A46BC
:10A1A8004E4B03F500531B891344184602F02CF854
:10A1B80003464C4A1360494B03F50053B3F8523F2A
:10A1C800012B03D1012001F06DFC02E0002001F019
:10A1D80069FCFFF700FE00237B8107F10A030222D6
:10A1E8004FF471411846FFF7B5FB0020FFF712FD49
:10A1F800374B01225A703C4B1B78022B57D1374BF7
:10A2080003F500530122A3F8242F0123BB803B1D33
:10A21800022241F292711846FFF79CFB3B1D022275
:10A2280041F292711846FCF73FFE2C4B0122A3F82D
:10A23800A4205220FFF7EEFC2C4B01221A702C4B65
:10A24800C8221A8033E02B4B1B6818460CF0CAF85A
:10A2580029480BF0B0FF0346002B05D02749002002
:10A2680003F010FC04F0F6FF002006F005F9224880
:10A278000BF051FF0346002B05D02149002003F0C5
:10A2880001FC04F0E7FF1F4A1F491B48FEF7DAFBF1
:10A298000346002B05D01D49002003F0F3FB04F012
:10A2A800D9FF0C4B1B780133DAB20A4B1A70002223
:10A2B8000421174808F009F906F0D4F80346034AC0
:10A2C800536000BF2037BD46B0BD00BF600300200B
:10A2D8007471002060690020E08B0108A003002051
:10A2E800040000204C690020020000203069002092
:10A2F80000000020607100200C740020FC8B010815
:10A30800108C01089874002000480040248C010833
:10A318000010014080B500AF164B5B78002B27D0AA
:10A32800144B1B78012B23D1124B00221A70FEF715
:10A338005BFA0346032B1BD100F054FA0E4B03F5CE
:10A3480080431B88012B05D00B4B03F580431B88EA
:10A35800032B02D100F0BAFD0AE0074B03F5804356
:10A368001B88062B02D100F009F801E001F0A0F8E3
:10A3780000BF80BD74710020A0030020B0B59AB062
:10A3880000AFB74B1B79B64A527911461846FEF70B
:10A39800ADF80346A7F86630B14BDB79B04A127ABC
:10A3A80011461846FEF7A2F80346A7F86430B7F836
:10A3B800663042F60A1293421ED9B7F8663042F662
:10A3C8001C12934218D8A74A3B1D1146482218462A
:10A3D8000CF0E0FFB7F86630A3F524530B3B9B0065
:10A3E80068333B4453F8643CB7F86420D2B2114652
:10A3F800184602F091FD5EE0B7F8663042F6291281
:10A40800934233D042F62912934254DC42F61D128D
:10A41800934204D042F61E12934215D04BE001211C
:10A42800914802F079FD914B3C1D1D460FCD0FC49C
:10A438000FCD0FC42B6823803B1D222242F60B113F
:10A448001846FFF787FA36E00021894802F064FDD4
:10A458003B1D2622002118460CF068FF3B1D2622D2
:10A4680042F60B111846FFF775FA24E0814B03F505
:10A47800804300221A8000217D4802F04DFD3221E0
:10A48800002001F0EFFE00214FF00000FEF73EF93A
:10A4980010214FF00000FEF739F93B1D3C22002146
:10A4A80018460CF043FF3B1D3C2242F60B111846A0
:10A4B800FFF750FA00BFB7F8663042F61E12934213
:10A4C80030D9B7F8663042F6221293422AD807F1FB
:10A4D8005C0300221A605A60B7F86630A3F524536B
:10A4E8001F3B5B0068333B44B7F8642023F80C2C0F
:10A4F800B7F86630A3F524531E3BB7F8642002FB77
:10A5080003F34FF47A7202FB03F33221184601F089
:10A51800A9FE07F15C03082242F61F111846FFF74F
:10A5280019FA99E0B7F8663042F62212934246D9F2
:10A53800B7F8663042F62512934240D807F1540323
:10A5480000221A609A80B7F86630A3F52453223B9C
:10A558001846FAF7B7FF4FF00002474BFBF71CF815
:10A5680002460B4614461D46B7F864301846FAF7FB
:10A57800A9FF02460B4620462946FBF70DF802467E
:10A588000B4610461946FBF7C1FA03461021184638
:10A59800FEF7BCF8B7F86630A3F52453233B5B00FD
:10A5A80068333B44B7F8642023F8142C07F15403AC
:10A5B800062242F623111846FFF7CCF94CE0B7F80B
:10A5C800663042F62512934246D9B7F8663042F60D
:10A5D8002812934240D807F14C0300221A609A804F
:10A5E800B7F86630A3F52453253B1846FAF76AFFF7
:10A5F8004FF00002214BFAF7CFFF02460B461446F4
:10A608001D46B7F864301846FAF75CFF02460B4659
:10A6180020462946FAF7C0FF02460B46104619465F
:10A62800FBF774FA034600211846FEF76FF8B7F8EF
:10A638006630A3F52453263B5B0068333B44B7F8E8
:10A64800642023F81C2C07F14C03062242F626113D
:10A658001846FFF77FF9FFE700BF6837BD46B0BD72
:10A66800946E0020488C010878FE7E00908C0108CA
:10A67800F8FE7E00A00300200000084000001440FF
:10A6880080B582B000AF274B03F500531B8A012B1E
:10A6980044D1244B03F500539A89224B03F5005308
:10A6A8001B889A4217D91F4B03F500531B8C012BAB
:10A6B80032D11C4B03F5005300221A84194B03F5C1
:10A6C80000531B8CFB80BB1D022241F2100118466F
:10A6D800FFF740F920E0134B03F500539A89114B1B
:10A6E80003F500531B889A4216D80E4B03F5005306
:10A6F8001B8C002B10D10B4B03F5005301221A843D
:10A70800084B03F500531B8CBB803B1D022241F212
:10A7180010011846FFF71EF903F034FF00BF083791
:10A72800BD4680BDA003002080B500AF2B4B03F5CC
:10A7380000531B8A002B32D1284B03F580431B881A
:10A74800062B2CD0254BB3F8A430012B27D04FF47F
:10A758008041234807F0A2FE0346002B1FD01F4B61
:10A7680003F500539B89322B0CD94FF4007002F08B
:10A778009DFB0346002B2DD101214FF4007002F000
:10A78800CBFB27E04FF4007002F090FB0346012B4F
:10A7980020D100214FF4007002F0BEFB1AE04FF404
:10A7A800007002F083FB0346012B14D14FF4804163
:10A7B8000B4807F073FE0346002B0CD1074B03F53B
:10A7C80080431B88062B06D000214FF4007002F04E
:10A7D800A3FB00E000BF00BF80BD00BFA0030020B6
:10A7E800000C0140F0B58FB004AFD84B1B79D74AA5
:10A7F800527911461846FDF779FE0346FB84D34B80
:10A80800DB79D24A127A11461846FDF76FFE0346E5
:10A81800BB84FB8CB3F5145F00F0F182B3F5145FD1
:10A8280000F34F83B3F5005F00F0FC80B3F5005FE1
:10A8380000F347839C2B00F008839C2BC0F24183D4
:10A8480041F60302934200F33C8341F2957293422E
:10A85800C0F23783A3F5BC53153B6E2B00F231834E
:10A8680001A252F823F000BF71AD0008CBAE00087A
:10A87800CBAE0008CBAE0008CBAE0008CBAE0008CC
:10A88800CBAE0008CBAE0008CBAE0008CBAE0008BC
:10A89800CBAE0008CBAE0008CBAE0008CBAE0008AC
:10A8A800CBAE0008CBAE0008CBAE0008CBAE00089C
:10A8B800CBAE000865AA000839AB0008CBAE00088B
:10A8C8008FAB0008CBAE0008CBAE0008CBAE0008BB
:10A8D800C1AB0008CBAE0008F3AB0008CBAE000854
:10A8E80025AC0008CBAE00087FAC0008CBAE000852
:10A8F800B1AC0008CBAE00080DAD0008CBAE000827
:10A908003FAD0008CBAE0008CBAE0008CBAE0008C8
:10A9180097AD0008CBAE0008CBAE0008CBAE000860
:10A92800CBAE0008CBAE0008CBAE0008CBAE00081B
:10A93800CBAE0008CBAE0008CBAE0008CBAE00080B
:10A94800CBAE0008CBAE0008CBAE0008CBAE0008FB
:10A95800CBAE0008CBAE0008CBAE0008CBAE0008EB
:10A96800CBAE0008CBAE0008CBAE0008CBAE0008DB
:10A97800CBAE0008CBAE0008CBAE0008CBAE0008CB
:10A98800CBAE0008CBAE0008CBAE0008CBAE0008BB
:10A99800CBAE0008CBAE0008CBAE0008CBAE0008AB
:10A9A800CBAE0008CBAE0008CBAE0008CBAE00089B
:10A9B800CBAE0008CBAE0008CBAE0008CBAE00088B
:10A9C800CBAE0008CBAE0008CBAE0008CBAE00087B
:10A9D800CBAE0008CBAE0008CBAE0008CBAE00086B
:10A9E800CBAE0008CBAE0008CBAE0008CBAE00085B
:10A9F800CBAE0008CBAE0008CBAE0008B1AA000869
:10AA0800CBAE0008CBAE0008CBAE0008CBAE00083A
:10AA1800CBAE0008CBAE0008CBAE0008CBAE00082A
:10AA2800D7AD0008BB8C002B07D1494B03F58043F9
:10AA380000221A8001F062F82EE2BB8C012B40F054
:10AA48002B82434B03F5804301221A80BB8CDBB277
:10AA580019464FF4806002F05FFA1DE23C4B03F5A3
:10AA68000053B3F85E3FBA8C9A4204D0BB8C42F2D2
:10AA7800A832934203D12820FFF7CCF821E2BB8CFF
:10AA880042F2B16293420BD1324B00221A60552038
:10AA9800FFF7C0F82E4B03F5804306221A8010E218
:10AAA8000620FFF7B7F80CE207F11C03022241F277
:10AAB800AD711846FDF7FCFF7B7F1A46244B03F562
:10AAC8000053B3F85A3F9A4200F0E8817B7F1A4658
