:020000040800F2
:1050000000000120ADFD00083DF6000845F600084F
:1050100059F6000861F6000869F600080000000073
:1050200000000000000000000000000071F6000811
:105030007DF600080000000089F6000895F60008DB
:10504000F5FD0008F5FD0008F5FD0008C5F60008AF
:10505000F5FD0008F5FD0008F5FD0008F5FD000868
:10506000F5FD0008F5FD0008F5FD0008D9F600087B
:10507000F5FD0008EDF60008F5FD000801F7000851
:10508000F5FD0008F5FD0008F5FD0008F5FD000838
:10509000F5FD0008F5FD0008F5FD000815F700080E
:1050A000F5FD0008F5FD0008F5FD0008F5FD000818
:1050B000F5FD0008F5FD0008F5FD0008F5FD000808
:1050C000F5FD0008F5FD0008F5FD0008F5FD0008F8
:1050D000F5FD000859F70008F5FD0008D9F70008AC
:1050E000F5FD0008F5FD0008F5FD000800000000D2
:1050F00000000000000000000000000000000000B0
:105100000000000000000000F5FD0008F5FD0008AB
:10511000F5FD0008F5FD0008F5FD0008F5FD0008A7
:10512000F5FD0008F5FD0008F5FD0008F5FD000897
:10513000F5FD00080000000000000000F5FD00087B
:10514000F5FD0008F5FD0008F5FD0008F5FD000877
:10515000000000000000000000000000000000004F
:10516000000000000000000000000000000000003F
:10517000000000000000000000000000000000002F
:10518000000000000000000000000000000000001F
:10519000000000000000000000000000000000000F
:1051A00000000000000000000000000000000000FF
:1051B00000000000000000000000000000000000EF
:1051C00000000000000000000000000000000000DF
:1051D00000000000000000000000000000000000CF
:0451E0005FF8E0F1A3
:1051E80010B5054C237833B9044B13B10448AFF319
:1051F80000800123237010BDA000002000000000E3
:10520800B47F010808B5034B1BB103490348AFF34A
:10521800008008BD00000000A4000020B47F010841
:1052280081F0004102E000BF83F0004330B54FEA4F
:1052380041044FEA430594EA050F08BF90EA020FBC
:105248001FBF54EA000C55EA020C7FEA645C7FEA4F
:10525800655C00F0E2804FEA5454D4EB5555B8BF72
:105268006D420CDD2C4480EA020281EA030382EAE3
:10527800000083EA010180EA020281EA0303362D75
:1052880088BF30BD11F0004F4FEA01314FF4801C48
:105298004CEA113102D0404261EB410113F0004F5A
:1052A8004FEA03334CEA133302D0524263EB430311
:1052B80094EA050F00F0A780A4F10104D5F1200EAF
:1052C8000DDB02FA0EFC22FA05F2801841F100010A
:1052D80003FA0EF2801843FA05F359410EE0A5F1DE
:1052E80020050EF1200E012A03FA0EFC28BF4CF00F
:1052F800020C43FA05F3C01851EBE37101F00045C5
:1053080007D54FF0000EDCF1000C7EEB00006EEBD1
:105318000101B1F5801F1BD3B1F5001F0CD349085B
:105328005FEA30004FEA3C0C04F101044FEA4452B2
:1053380012F5800F80F09A80BCF1004F08BF5FEA39
:10534800500C50F1000041EB045141EA050130BD19
:105358005FEA4C0C404141EB0101013C28BFB1F52B
:10536800801FE9D291F0000F04BF01460020B1FA76
:1053780081F308BF2033A3F10B03B3F120020CDA49
:105388000C3208DD02F1140CC2F10C0201FA0CF027
:1053980021FA02F10CE002F11402D8BFC2F1200C8C
:1053A80001FA02F120FA0CFCDCBF41EA0C01904042
:1053B800E41AA2BF01EB0451294330BD6FEA04048B
:1053C8001F3C1CDA0C340EDC04F11404C4F1200276
:1053D80020FA04F001FA02F340EA030021FA04F388
:1053E80045EA030130BDC4F10C04C4F1200220FADF
:1053F80002F001FA04F340EA0300294630BD21FA1D
:1054080004F0294630BD94F0000F83F4801306BFE2
:1054180081F480110134013D4EE77FEA645C18BFD6
:105428007FEA655C29D094EA050F08BF90EA020F6D
:1054380005D054EA000C04BF1946104630BD91EA65
:10544800030F1EBF0021002030BD5FEA545C05D168
:105458004000494128BF41F0004130BD14F58004A7
:105468003CBF01F5801130BD01F0004545F0FE411B
:1054780041F470014FF0000030BD7FEA645C1ABF50
:10548800194610467FEA655C1CBF0B46024650EA87
:10549800013406BF52EA033591EA030F41F40021B3
:1054A80030BD00BF90F0000F04BF0021704730B539
:1054B8004FF4806404F132044FF000054FF000010E
:1054C80050E700BF90F0000F04BF0021704730B5CF
:1054D8004FF4806404F1320410F0004548BF4042A4
:1054E8004FF000013EE700BF42004FEAE2014FEAF9
:1054F80031014FEA02701FBF12F07F4393F07F4FD4
:1055080081F06051704732F07F4208BF704793F0D6
:105518007F4F04BF41F40021704730B54FF46074E9
:1055280001F0004521F000411CE700BF50EA0102EC
:1055380008BF704730B54FF000050AE050EA010295
:1055480008BF704730B511F0004502D5404261EB05
:1055580041014FF4806404F132045FEA915C3FF446
:10556800D8AE4FF003025FEADC0C18BF03325FEAE3
:10557800DC0C18BF033202EBDC02C2F1200300FA94
:1055880003FC20FA02F001FA03FE40EA0E0021FAB9
:1055980002F11444BDE600BF70B54FF0FF0C4CF4A7
:1055A800E06C1CEA11541DBF1CEA135594EA0C0F59
:1055B80095EA0C0F00F0DEF82C4481EA030621EA94
:1055C8004C5123EA4C5350EA013518BF52EA0335CF
:1055D80041F4801143F4801338D0A0FB02CE4FF081
:1055E8000005E1FB02E506F00042E0FB03E54FF0B1
:1055F8000006E1FB03569CF0000F18BF4EF0010EA9
:10560800A4F1FF04B6F5007F64F5407404D25FEAA4
:105618004E0E6D4146EB060642EAC62141EA555157
:105628004FEAC52040EA5E504FEACE2EB4F1FD0C99
:1056380088BFBCF5E06F1ED8BEF1004F08BF5FEA17
:10564800500E50F1000041EB045170BD06F00046C9
:1056580046EA010140EA020081EA0301B4EB5C0476
:10566800C2BFD4EB0C0541EA045170BD41F480116E
:105678004FF0000E013C00F3AB8014F1360FDEBF93
:10568800002001F0004170BDC4F10004203C35DA6F
:105698000C341BDC04F11404C4F1200500FA05F3F2
:1056A80020FA04F001FA05F240EA020001F0004293
:1056B80021F0004110EBD37021FA04F642EB060109
:1056C8005EEA430E08BF20EAD37070BDC4F10C0433
:1056D800C4F1200500FA04F320FA05F001FA04F2F7
:1056E80040EA020001F0004110EBD37041F10001E3
:1056F8005EEA430E08BF20EAD37070BDC4F12005EE
:1057080000FA05F24EEA020E20FA04F301FA05F255
:1057180043EA020321FA04F001F0004121FA04F2FD
:1057280020EA020000EBD3705EEA430E08BF20EACD
:10573800D37070BD94F0000F0FD101F00046400007
:1057480041EB010111F4801F08BF013CF7D041EA89
:10575800060195F0000F18BF704703F0004652008D
:1057680043EB030313F4801F08BF013DF7D043EA5E
:105778000603704794EA0C0F0CEA135518BF95EA14
:105788000C0F0CD050EA410618BF52EA4306D1D19B
:1057980081EA030101F000414FF0000070BD50EABA
:1057A800410606BF1046194652EA430619D094EA44
:1057B8000C0F02D150EA013613D195EA0C0F05D12E
:1057C80052EA03361CBF104619460AD181EA030182
:1057D80001F0004141F0FE4141F470014FF000003A
:1057E80070BD41F0FE4141F4780170BD70B54FF0D5
:1057F800FF0C4CF4E06C1CEA11541DBF1CEA135555
:1058080094EA0C0F95EA0C0F00F0A7F8A4EB050436
:1058180081EA030E52EA03354FEA013100F088802D
:105828004FEA03334FF0805545EA131343EA1263F6
:105838004FEA022245EA111545EA10654FEA0026AB
:105848000EF000419D4208BF964244F1FD0404F564
:10585800407402D25B084FEA3202B61A65EB0305C0
:105868005B084FEA32024FF480104FF4002CB6EB7D
:10587800020E75EB030E22BFB61A754640EA0C00FD
:105888005B084FEA3202B6EB020E75EB030E22BF3D
:10589800B61A754640EA5C005B084FEA3202B6EB7E
:1058A800020E75EB030E22BFB61A754640EA9C003D
:1058B8005B084FEA3202B6EB020E75EB030E22BF0D
:1058C800B61A754640EADC0055EA060E18D04FEACB
:1058D800051545EA16754FEA06164FEAC30343EA6B
:1058E80052734FEAC2025FEA1C1CC0D111F4801F38
:1058F8000BD141EA00014FF000004FF0004CB6E731
:1059080011F4801F04BF01430020B4F1FD0C88BFCF
:10591800BCF5E06F3FF6AFAEB5EB030C04BFB6EBDA
:10592800020C5FEA500C50F1000041EB045170BDCD
:105938000EF0004E4EEA113114EB5C04C2BFD4EBFA
:105948000C0541EA045170BD41F480114FF0000E7E
:10595800013C90E645EA060E8DE60CEA135594EAFA
:105968000C0F08BF95EA0C0F3FF43BAF94EA0C0FFD
:105978000AD150EA01347FF434AF95EA0C0F7FF472
:1059880025AF104619462CE795EA0C0F06D152EAC6
:1059980003353FF4FDAE1046194622E750EA4106AA
:1059A80018BF52EA43067FF4C5AE50EA41047FF4BB
:1059B8000DAF52EA43057FF4EBAE12E74FF0FF3C20
:1059C80006E000BF4FF0010C02E000BF4FF0010CF1
:1059D8004DF804CD4FEA410C7FEA6C5C4FEA430C6A
:1059E80018BF7FEA6C5C1BD001B050EA410C0CBFB9
:1059F80052EA430C91EA030F02BF90EA020F00201B
:105A0800704710F1000F91EA030F58BF994208BF81
:105A180090422CBFD8176FEAE37040F0010070473E
:105A28004FEA410C7FEA6C5C02D150EA013C07D195
:105A38004FEA430C7FEA6C5CD6D152EA033CD3D0E0
:105A48005DF8040B704700BF8446104662468C46DA
:105A58001946634600E000BF01B5FFF7B7FF00280D
:105A680048BF10F1000F01BD4DF808EDFFF7F4FF36
:105A78000CBF012000205DF808FB00BF4DF808EDC1
:105A8800FFF7EAFF34BF012000205DF808FB00BFE4
:105A98004DF808EDFFF7E0FF94BF012000205DF806
:105AA80008FB00BF4DF808EDFFF7CEFF94BF0120BB
:105AB80000205DF808FB00BF4DF808EDFFF7C4FFB4
:105AC80034BF012000205DF808FB00BF4A0011D256
:105AD80012F5001211D20DD56FF47873B3EB625240
:105AE8000ED44FEAC12343F0004343EA505323FA4C
:105AF80002F070474FF00000704750EA013002D1C1
:105B08004FF0FF3070474FF0000070474FEA4102F6
:105B1800B2F1E04324BFB3F5001CDCF1FE5C0DD903
:105B280001F0004C4FEAC0024CEA5070B2F1004F4D
:105B380040EB830008BF20F00100704711F0804F50
:105B480021D113F13872BCBF01F00040704741F415
:105B580080114FEA5252C2F11802C2F1200C10FA19
:105B68000CF320FA02F018BF40F001004FEAC123FD
:105B78004FEAD32303FA0CFC40EA0C0023FA02F3A1
:105B88004FEA4303CCE77FEA625307D150EA013377
:105B98001EBF4FF0FE4040F44000704701F0004047
:105BA80040F0FE4040F40000704700BF80F0004025
:105BB80002E000BF81F0004142001FBF5FEA4103DD
:105BC80092EA030F7FEA226C7FEA236C6AD04FEADD
:105BD8001262D2EB1363C1BFD21841404840414022
:105BE800B8BF5B42192B88BF704710F0004F40F4D4
:105BF800000020F07F4018BF404211F0004F41F4F0
:105C0800000121F07F4118BF494292EA030F3FD0BB
:105C1800A2F1010241FA03FC10EB0C00C3F12003CE
:105C280001FA03F100F0004302D5494260EB40005D
:105C3800B0F5000F13D3B0F1807F06D340084FEAC8
:105C4800310102F10102FE2A51D2B1F1004F40EBBD
:105C5800C25008BF20F0010040EA03007047490025
:105C680040EB0000013A28BFB0F5000FEDD2B0FAC2
:105C780080FCACF1080CB2EB0C0200FA0CF0AABFE5
:105C880000EBC25052421843BCBFD0401843704783
:105C980092F0000F81F4000106BF80F40000013289
:105CA800013BB5E74FEA41037FEA226C18BF7FEA60
:105CB800236C21D092EA030F04D092F0000F08BFA2
:105CC8000846704790EA010F1CBF0020704712F089
:105CD8007F4F04D1400028BF40F00040704712F1C8
:105CE80000723CBF00F50000704700F0004343F02D
:105CF800FE4040F4000070477FEA226216BF084663
:105D08007FEA23630146420206BF5FEA412390EA25
:105D1800010F40F4800070474FF0000304E000BF1B
:105D280010F0004348BF40425FEA000C08BF7047CC
:105D380043F0964301464FF000001CE050EA010290
:105D480008BF70474FF000030AE000BF50EA0102A5
:105D580008BF704711F0004302D5404261EB410192
:105D68005FEA010C02BF84460146002043F0B643B7
:105D780008BFA3F18053A3F50003BCFA8CF2083ADC
:105D8800A3EBC25310DB01FA02FC634400FA02FCE5
:105D9800C2F12002BCF1004F20FA02F243EB0200EC
:105DA80008BF20F00100704702F1200201FA02FC4E
:105DB800C2F1200250EA4C0021FA02F243EB020041
:105DC80008BF20EADC7070474FF0FF0C1CEAD05285
:105DD8001EBF1CEAD15392EA0C0F93EA0C0F6FD046
:105DE8001A4480EA010C400218BF5FEA41211ED024
:105DF8004FF0006343EA501043EA5111A0FB013110
:105E08000CF00040B1F5000F3EBF490041EAD371E4
:105E18005B0040EA010062F17F02FD2A1DD8B3F160
:105E2800004F40EBC25008BF20F00100704790F0CF
:105E3800000F0CF0004C08BF49024CEA502040EA21
:105E480051207F3AC2BFD2F1FF0340EAC2507047E7
:105E580040F400004FF00003013A5DDC12F1190F25
:105E6800DCBF00F000407047C2F10002410021FA97
:105E780002F1C2F1200200FA02FC5FEA310040F1AF
:105E8800000053EA4C0308BF20EADC70704792F028
:105E9800000F00F0004C02BF400010F4000F013A60
:105EA800F9D040EA0C0093F0000F01F0004C02BF5B
:105EB800490011F4000F013BF9D041EA0C018FE7CA
:105EC8000CEAD15392EA0C0F18BF93EA0C0F0AD0D0
:105ED80030F0004C18BF31F0004CD8D180EA0100F6
:105EE80000F00040704790F0000F17BF90F0004F8F
:105EF800084691F0000F91F0004F14D092EA0C0F71
:105F080001D142020FD193EA0C0F03D14B0218BF03
:105F1800084608D180EA010000F0004040F0FE4049
:105F280040F40000704740F0FE4040F440007047E5
:105F38004FF0FF0C1CEAD0521EBF1CEAD15392EA64
:105F48000C0F93EA0C0F69D0A2EB030280EA010C54
:105F580049024FEA402037D04FF0805343EA1111ED
:105F680043EA10130CF000408B4238BF5B0042F14B
:105F78007D024FF4000C8B4224BF5B1A40EA0C00F0
:105F8800B3EB510F24BFA3EB510340EA5C00B3EB22
:105F9800910F24BFA3EB910340EA9C00B3EBD10F10
:105FA80024BFA3EBD10340EADC001B0118BF5FEA62
:105FB8001C1CE0D1FD2A3FF650AF8B4240EBC2508B
:105FC80008BF20F0010070470CF0004C4CEA50204C
:105FD8007F32C2BFD2F1FF0340EAC250704740F49B
:105FE80000004FF00003013A37E792F0000F00F08D
:105FF800004C02BF400010F4000F013AF9D040EA0B
:106008000C0093F0000F01F0004C02BF490011F49E
:10601800000F013BF9D041EA0C0195E70CEAD15396
:1060280092EA0C0F08D142027FF47DAF93EA0C0F7D
:106038007FF470AF084676E793EA0C0F04D14B0261
:106048003FF44CAF08466EE730F0004C18BF31F013
:10605800004CCAD130F000427FF45CAF31F000430D
:106068007FF43CAF5FE700BF4FF0FF3C06E000BFA6
:106078004FF0010C02E000BF4FF0010C4DF804CDC9
:106088004FEA40024FEA41037FEA226C18BF7FEAD9
:10609800236C11D001B052EA530C18BF90EA010FDB
:1060A80058BFB2EB030088BFC81738BF6FEAE1706A
:1060B80018BF40F0010070477FEA226C02D15FEA06
:1060C800402C05D17FEA236CE4D15FEA412CE1D072
:1060D8005DF8040B704700BF844608466146FFE739
:1060E8000FB5FFF7C9FF002848BF10F1000F0FBD1B
:1060F8004DF808EDFFF7F4FF0CBF012000205DF814
:1061080008FB00BF4DF808EDFFF7EAFF34BF012098
:1061180000205DF808FB00BF4DF808EDFFF7E0FF31
:1061280094BF012000205DF808FB00BF4DF808ED82
:10613800FFF7D2FF94BF012000205DF808FB00BFE5
:106148004DF808EDFFF7C8FF34BF012000205DF8C7
:1061580008FB00BF4FEA40024FEA41037FEA226C86
:1061680002D15FEA402C08D17FEA236C02D15FEAB2
:10617800412C02D14FF0000070474FF001007047EA
:106188004FEA4002B2F1FE4F0FD34FF09E03B3EB3C
:1061980012620DD94FEA002343F0004310F0004F7C
:1061A80023FA02F018BF404270474FF000007047D2
:1061B80012F1610F01D1420205D110F0004008BF71
:1061C8006FF0004070474FF00000704742000ED259
:1061D800B2F1FE4F0BD34FF09E03B3EB126209D41A
:1061E8004FEA002343F0004323FA02F070474FF0D0
:1061F8000000704712F1610F01D1420202D14FF045
:10620800FF3070474FF00000704700BF7BB972B98C
:106218000029BEBF00204FF0004106E008BF00285B
:106228001CBF6FF000414FF0FF3000F0D7B9ADF15F
:10623800080C6DE904CE002909DB002B1ADB00F0FD
:106248004DF8DDF804E0DDE9022304B07047404270
:1062580061EB4101002B1BDB00F040F8DDF804E0A6
:10626800DDE9022304B0404261EB4101524263EB95
:1062780043037047524263EB430300F02FF8DDF805
:1062880004E0DDE9022304B0404261EB41017047BC
:10629800524263EB430300F021F8DDF804E0DDE946
:1062A800022304B0524263EB4303704753B94AB91F
:1062B800002908BF00281CBF4FF0FF314FF0FF3006
:1062C80000F08CB9ADF1080C6DE904CE00F006F8C9
:1062D800DDF804E0DDE9022304B070472DE9F0475A
:1062E800089D8E4604468846002B4AD18A421746A6
:1062F80062D9B2FA82F64EB1C6F1200301FA06F865
:1063080020FA03F3B74043EA0808B4404FEA174EAF
:10631800B8FBFEF11FFA87FC0EFB118801FB0CF29B
:10632800230C43EA08439A4209D9FB1801F1FF30CC
:1063380080F0EB809A4240F2E88002393B449A1A96
:10634800B2FBFEF00EFB102200FB0CFCA3B243EAEA
:1063580002439C4509D9FB1800F1FF3280F0D78031
:106368009C4540F2D4803B44023840EA0140002179
:10637800A3EB0C031DB10022F340C5E90032BDE8D0
:10638800F0878B4205D90DB1C5E900010021084607
:10639800F5E7B3FA83F1002946D1734502D3824267
:1063A80000F20881841A6EEB030201209046002D4A
:1063B800E5D0C5E90048E2E7002A00F09180B2FA8A
:1063C80082F6002E40F0A5808A1A0121030C4FEABC
:1063D800174E80B2BCB2B2FBFEFC0EFB1C2243EA95
:1063E800024304FB0CF29A4207D9FB180CF1FF3860
:1063F80002D29A4200F2E380C4469B1AB3FBFEF233
:106408000EFB123302FB04F440EA03439C4207D913
:10641800FB1802F1FF3002D29C4200F2CD80024606
:106428001B1B42EA0C40A5E7C1F120068B4022FA6B
:1064380006F71F432EFA06FA4FEA1749BAFBF9F88E
:106448000EFA01FE20FA06F309FB18AA1FFA87FCC8
:1064580043EA0E0300FA01FE08FB0CF01C0C44EAA8
:106468000A44A04202FA01F20AD93C1908F1FF3A9B
:1064780080F09E80A04240F29B80A8F102083C4434
:10648800241A98B2B4FBF9F309FB134403FB0CFC80
:1064980040EA0444A44509D93C1903F1FF3080F0CF
:1064A8008580A44540F28280023B3C4443EA084090
:1064B800A4EB0C04A0FB028C64454346E14664D37C
:1064C80061D05DB1BEEB030264EB090404FA06F681
:1064D80022FA01F31E43CC40C5E9006400214EE7CF
:1064E800B1FBF2FC010C41EA0E4180B240EA0142E4
:1064F8003B46B1FBF7F138463C46B846BE46202637
:10650800A2EB080241EA0C4165E7014617E710468D
:106518002BE7C6F120012EFA01FCB7400EFA06FE61
:1065280020FA01F141EA0E014FEA174EBCFBFEF8D2
:10653800BCB20EFB18CC08FB04F90A0C42EA0C4268
:10654800B04091454FEA104380B23ED9BA1808F1DD
:10655800FF3C01D291451FD8A2EB0902B2FBFEF91C
:1065680009FB04F80EFB192A8AB242EA0A4242459C
:1065780029D2BA1809F1FF31C2D24245C0D2A9F1D5
:1065880002013A44BCE7C6459BD2B8EB02036CEB68
:10659800070C0138E14694E7A7EB09094A44B2FB26
:1065A800FEF9A8F1020C09FB04F8DBE703467DE7D6
:1065B800D04665E70846FAE63B44023A30E7ACF1D4
:1065C800020C3B4419E749469AE7A2EB0902B2FBE1
:1065D800FEF9C44609FB04F8C4E700BF704700BFD2
:1065E80080B400AFBFF34F8F00BF064BDB6803F4E6
:1065F800E0620449044B1343CB60BFF34F8F00BFE5
:1066080000BFFDE700ED00E00400FA0580B586B0A4
:1066180000AFF8600B467A607B810023FB820FE0B5
:10662800FB8A5B001A467B689818FB8AFA68134451
:106638001B781A460A4910F075FBFB8A0133FB8266
:10664800FA8A7B899A42EBD37B895B001A467B687E
:10665800134400221A7000BF1837BD4680BD00BF22
:10666800CC7F010880B586B000AFF860B9607A6069
:10667800174ABB681360174AFB681360164A7B68A1
:1066880013604FF480721549F8680FF0A4FB0346B5
:10669800FB7500233B61FB681B681B683B61FB685B
:1066A8001B685B683B613B69FB681B68DA68FB68D1
:1066B8001B6842F01002DA60002009F0FBFB084B6F
:1066C80000221A70FB7D18461837BD4680BD00BFF2
:1066D80064710020687100206C71002058700020DF
:1066E8007471002080B590B000AFA64B1B78002BCA
:1066F80004D1A549002006F0E5FE05E3002387F84C
:106708003F30A04B5B78992B0AD0992B22DC032BC6
:1067180002D0102B10D01DE0082387F83F3021E06D
:10672800984B9B7887F8273097F827305B00DBB2C7
:10673800053387F83F3015E0924B9B79002B05D045
:10674800904B9B79093387F83F300BE0082387F893
:106758003F3007E08B4B5B781A468C49002006F0E7
:10676800B1FED1E297F83F30032B07D897F83F30B6
:106778001A468749002006F0A5FEC5E297F83F3083
:106788009BB2023B9BB219467E4801F009FD0346C5
:10679800BB8497F83F30013B7A4AD25C97F83F3088
:1067A800023B7849CB5C1946104601F067FC03466A
:1067B8007B84BA8C7B8C9A4202D17B8C002B06D1CD
:1067C800BA8C7B8C7349002006F07CFE9CE297F81B
:1067D8003F301A467049002006F074FE0023BB6360
:1067E8000BE0684ABB6B13441B781A466B490020C0
:1067F80006F068FEBB6B0133BB6397F83F30BA6B9A
:106808009A4202DABB6B132BEBDD97F83F30142B5F
:1068180003D96349002006F055FE6249002006F0BE
:1068280051FE584B5B78992B00F09880992B00F318
:106838006282032B03D0102B00F090815BE2514B56
:106848009B78504AD2781146184601F017FC034647
:10685800FB814C4B1B794B4A52791146184601F083
:106868000DFC0346BB81BB89002B02D0BB897D2B65
:1068780006D9BB891A464C49002006F023FE43E29C
:10688800FA89BB89134443F2C822934204DD47497D
:10689800002006F017FE37E2BA89FB894449002038
:1068A80006F010FEBB89DBB25B00DBB20533FB727E
:1068B800404B01221A703F4B03225A70BB89DBB24E
:1068C8005B00DAB23B4B9A7000237B6319E0FA89CC
:1068D8007B6B1344384A32F81330BA1DF91D184639
:1068E80001F0E2FB7B6B5B000333F979314AD15449
:1068F8007B6B02335B00B9792E4AD1547B6B013331
:106908007B63BB897A6B9A42E1DBFB7A9BB2023BE1
:106918009BB21946274801F043FC03463B81BA1D48
:10692800F91D3B89184601F0BFFBFB7A023BB97998
:10693800204AD154FB7A013BF9791E4AD1541F4BA6
:106948001B68FA7A92B21B4918460FF00FFAFB7AC5
:106958001A461B49002006F0B5FDD5E1094B9B7886
:1069680087F8213097F82130002B03D097F8213091
:106978007D2B29D997F821301A461249002006F0B4
:10698800A1FDC1E1586F0020D47F0108F47F010800
:106998001880010838800108708001088880010883
:1069A800908001089480010898800108C48001083B
:1069B800E8800108880100209C03002068710020FD
:1069C800148101083481010897F821305B00DBB29B
:1069D800053387F8203097F83F2097F820309A42FF
:1069E80004D07E49002006F06DFD8DE197F8213036
:1069F8001A467B49002006F065FD00233B6318E03A
:106A08003B6B5B000333774AD25C3B6B02335B0022
:106A18007449CB5C1946104601F030FB0346FB83F2
:106A2800FB8B1A467049002006F04CFD3B6B013386
:106A38003B6397F821303A6B9A4202DA3B6B042B9E
:106A4800DEDD97F82130052B03D96849002006F0D0
:106A580039FD6749002006F035FD97F821305B00C5
:106A6800DBB205337B77634B01221A70614B9922A5
:106A78005A70604A97F8213093700023FB623FE018
:106A8800FB6A5B000333574AD25CFB6A02335B0044
:106A98005449CB5C1946104601F0F0FA03463B8393
:106AA8003B8B43F2C722934212D93B8B1A46524979
:106AB800002006F007FDFB6A5B0003334D4A002106
:106AC800D154FB6A02335B004A4A0021D15414E0D6
:106AD8003B8B4A4A32F813303A1D791D184601F0AB
:106AE800E3FAFB6A5B0003337979424AD154FB6AC3
:106AF80002335B0039793F4AD154FB6A0133FB62A8
:106B080097F82130FA6A9A42BADB7B7F9BB2023B44
:106B18009BB21946374801F043FB03467B833A1D75
:106B2800791D7B8B184601F0BFFA7B7F023B3979D0
:106B3800304AD1547B7F013B79792E4AD154304B6E
:106B48001B687A7F92B22B4918460FF00FF97B7FAA
:106B58001A462C49002006F0B5FCD5E0214B9B785D
:106B6800204AD2781146184601F088FA0346FB827B
:106B78001C4B1B791B4A52791146184601F07EFAC4
:106B88000346BB82174B9B79FB74BB8A002B02D050
:106B9800BB8A642B06D9BB8A1A461B49002006F01B
:106BA80091FCB1E0FA7CBB8A5B009A4206D0FB7C80
:106BB8001A461649002006F085FCA5E0BA8AFB8A29
:106BC8001349002006F07EFC124AFB8A1380124A01
:106BD800BB8A13800023BB6243E000BF64810108C5
:106BE8008C810108586F0020B0810108908001084D
:106BF800B881010888010020BC8101089C0300209D
:106C080068710020F0810108188201084482010897
:106C18006C8201088601002084010020BB6A5B00A9
:106C280007333B4AD25CBB6A04335B003849CB5C10
:106C38001946104601F022FA03461946354ABB6A3E
:106C480022F81310BB6A042B08DC324ABB6A32F8FC
:106C58001330BA6A3049002006F034FCBB6A0133AD
:106C6800BB62BB8ABA6A9A42D8DBBB8A052B06D9B3
:106C7800BB8A053B1A462949002006F023FC28490F
:106C8800002006F01FFC274B01221A70254B10220A
:106C98005A701F4B9A78234B9A701D4BDA78214B08
:106CA800DA701B4B1A791F4B1A71194B5A791D4B05
:106CB8005A7106211B4801F073FA03463B82BA1C3D
:106CC800F91C3B8A184601F0EFF9BA78154B9A710E
:106CD800FA78144BDA71144B1B88642B13D0134BBE
:106CE8001B6808220F4918460FF040F81049002089
:106CF80006F0E8FB07E0064B5B781A460D490020D2
:106D080006F0E0FB00E000BF4037BD4680BD00BF95
:106D1800586F0020BC00002098820108B882010842
:106D2800CC820108880100208601002068710020BB
:106D3800048301081C83010880B582B000AF00F00D
:106D480091F83B4B1B78012B2BD13A4B1B78002B2E
:106D580027D109F0A5F80346374A1360374B1B784B
:106D6800012B19D1364B00221A80344B00221A709D
:106D7800304B00221A7000237B6007E0314A7B68A1
:106D8800002122F813107B6801337B602E4B1B789F
:106D98001A467B689342F1DB254B00221A70FFF7F5
:106DA800A1FC09F07DF80246234B1B68D31A42F276
:106DB8001072934237D9254B03F58053B3F88237C5
:106DC800002B30D109F06CF803461B4A1360204BA6
:106DD8001B6818460FF024F81E480EF00AFF0346F9
:106DE800002B01D007F056FF002009F063F819487E
:106DF8000EF0AFFE0346002B01D007F04BFF164AFA
:106E080016491448FFF72EFC0346002B05D01449F9
:106E1800002006F057FB07F03DFF002009F04AF874
:106E2800034B00221A7000BF0837BD4680BD00BF63
:106E3800747100208A0200205C0300208702002071
:106E4800880200208C020020560300209C030020AA
:106E580068710020C4730020547400200038014079
:106E68003C83010880B500AF1F4B1B78002B38D03E
:106E780009F016F802461D4B1B68D31AB3F57A7F42
:106E880017D909F00DF80346184A1360184B1B88E8
:106E9800184A12781946184800F0E2F8144B1B8873
:106EA8001A46144B1B785B08DBB21449002006F025
:106EB80009FB134B1B78002B13D008F0F1FF034696
:106EC800104A136000F022F80346002B06D00E4942
:106ED800002006F0F7FA044B00221A70084B002233
:106EE8001A7000BF80BD00BF8A020020580300202E
:106EF80054030020560300208C0200206083010800
:106F0800747100205C0300209083010880B584B070
:106F180000AF0023FB734B4B1B78002B01D10023E0
:106F28008CE0484B1B78012B08D0464B1B781A463F
:106F38004549002006F0C6FA00237FE0414B5B7804
:106F48007B7397F90D30002B08DA7A7B3D4B9B78E1
:106F58003E49002006F0B6FA00236FE00023BB7319
:106F68007B7B032B06D1374B9B783B733B7B0533ED
:106F7800BB730DE07B7B102B02D10823BB7307E0AA
:106F88007B7B1A463249002006F09CFA002355E024
:106F9800BB7B013B2B4AD35C1BB21B021AB2BB7BE7
:106FA800023B2849CB5C1BB213431BB27B81BB7BE2
:106FB8009BB2023B9BB21946224801F0F1F8034606
:106FC8003B817A893B899A4207D07A893B89214952
:106FD800002006F077FA012330E07B7B032B0BD1EE
:106FE800184B9B78FB70FB781A461B49002006F06B
:106FF80069FA0323FB7320E07B7B102B1DD1114B17
:107008009B781BB21B021AB20E4BDB781BB21343E0
:107018001BB2FB800B4B1B791BB21B021AB2094B2C
:107028005B791BB213431BB2BB80FA88BB880B4940
:10703800002006F047FA0223FB73FB7B1846103743
:10704800BD4680BD586F0020B0830108D483010875
:1070580010840108388401087084010894840108A8
:1070680080B586B000AF78600B467B8013467B7096
:107078000023FB757B785B08FB73464B01221A7073
:10708800444B10225A707B881B0A9BB2DAB2414BE0
:107098009A707B88DAB23F4BDA703E4B00221A7145
:1070A8003C4AFB7B5371FB7B5B00DAB2394B9A712C
:1070B80000233B6118E03B695B007A6813441B8836
:1070C8007B817B891B0A9AB23B695B000733D1B28B
:1070D800304AD1543B6904335B007A89D1B22D4AD6
:1070E800D1543B6901333B61FB7B3A699A42E2DB4D
:1070F800FB7B9BB25B009BB207339BB219462548CA
:1071080001F04EF80346BB81FB7B5B000733BA896D
:10711800D1B2204AD154BB891B0A9AB2FB7B0433F3
:107128005B00D1B21B4AD1544FF4807200211A4837
:107138000FF01AFE194B00221A70184B1B78012BFE
:1071480023D0174B1B681B6803F01003102B1CD0AF
:10715800134B93F84130DBB2202B16D14FF48072D9
:1071680000210D480FF000FE0C4B00221A700D4B49
:107178001868FB7B9BB25B009BB209339BB21A4633
:1071880004490EF0F3FD0346FB75FB7D18461837DE
:10719800BD4680BD88010020586F00207471002012
:1071A8000C7400206871002080B582B000AF154BC8
:1071B8001B88002B21D000237B6010E07B689AB2EB
:1071C800114B1B8813449AB210497B6831F813306D
:1071D8001946104600F01CF87B6801337B60094BA8
:1071E8001B881A467B689342E8DB064B00221A800C
:1071F800C822002105480FF0B7FD00BF0837BD467B
:1072080080BD00BF8401002086010020BC00002052
:10721800B0B5A4B004AF03460A46FB801346BB8052
:10722800BB88A7F870300023A7F86C30FB88B3F54B
:10723800005F00F01F81B3F5005F00F3BE8641F6E2
:107248000302934200F3B98641F2A97293422DDA00
:1072580041F25F52934200F0D381B3F5AB5F80F205
:10726800AC8641F20B02934200F3A786B3F5805F28
:1072780080F2DC8040F6C132934200F01F8640F66F
:10728800C132934200F3998640F6B832934200F037
:10729800798640F6B832934200F38F86642B00F06B
:1072A800E580A12B00F0998500F087BEA3F5BD53BA
:1072B800093B5A2B00F2818601A252F823F000BF45
:1072C800097A0008C37F0008637A0008C37F0008B2
:1072D800A77A0008C37F0008737B0008C37F0008F3
:1072E800B77B0008C37F0008FB7B0008C37F00084A
:1072F800677C0008C37F0008AB7C0008C37F0008D8
:10730800197D0008C37F00085D7D0008C37F000861
:10731800C37F0008C37F0008817E0008C37F000880
:10732800C37F0008C37F0008C37F0008C37F00082D
:10733800C37F0008C37F0008C37F0008C37F00081D
:10734800C37F0008C37F0008C37F0008C37F00080D
:10735800C37F0008C37F0008C37F0008C37F0008FD
:10736800C37F0008C37F0008C37F0008C37F0008ED
:10737800C37F0008C37F0008C37F0008C37F0008DD
:10738800C37F0008C37F0008C37F0008C37F0008CD
:10739800C37F0008C37F0008C37F0008C37F0008BD
:1073A800C37F0008C37F0008C37F0008C37F0008AD
:1073B800C37F0008C37F0008C37F0008C37F00089D
:1073C800C37F0008C37F0008C37F0008C37F00088D
:1073D800C37F0008C37F0008C37F0008C37F00087D
:1073E800C37F0008C37F0008C37F0008C37F00086D
:1073F800C37F0008C37F0008C37F0008C37F00085D
:10740800C37F0008E97A0008C37F0008C37F00082B
:10741800C37F0008C37F0008C37F0008C37F00083C
:10742800C37F0008C37F0008A17D0008A3F580532F
:107438000B2B00F2C28501A252F823F0BF7400089A
:10744800C37F000883750008C37F0008C37F000856
:10745800C37F0008C37F0008C37F00088F76000839
:10746800C37F0008157800083179000800F0E6FDB0
:1074780000F0B5BDB7F87030002B08D1C54B03F547
:10748800804300221A8004F0A3F800F09DBDB7F8ED
:107498007030012B40F09885BE4B03F580430122E4
:1074A8001A80B7F87030DBB219464FF4806005F0E7
:1074B80053FA00F089BDB7F87020B64B03F50053B6
:1074C8001A80B44B03F500531B881846FDF7FAFFE2
:1074D80004460D46B04BD3E900014FF00002AF4B14
:1074E800FDF7A4FE02460B4620462946FEF7C6FADB
:1074F8000346002B1ED0AA4B1B78012B1AD0A54B94
:1075080003F500531B881846FEF706FC0446A54BF6
:107518009B681846FEF704FC03461946204606F009
:107528009BFE03461846FDF7DFFF02460B469A49C5
:10753800C1E9002307F1700302224FF48051184675
:1075480001F0D0FFB7F8700007F16C035A1C07F17F
:107558006C03194600F0A8FD07F16C0202234FF4F2
:107568008051914804F08EFC8A4B1B88002B40F018
:107578002D8506F011FC00F029BDB7F87020854B69
:1075880003F500539A8007F17003022241F20201C9
:10759800184601F0A7FF7F4B03F500539B881A4656
:1075A80013461B019B1A9B001A467A4B03F500539E
:1075B8001B891344184604F06BFB03467B4A13608F
:1075C800744B03F500539B8A012B05D1774B1B683D
:1075D8003221184604F08AFBB7F8700007F16C03F3
:1075E8005A1C07F16C03194600F05EFD07F16C02A6
:1075F800022341F202016C4804F044FC00F0EFBCA5
:10760800B7F87020634B03F500531A8107F1700334
:10761800022241F20401184601F064FF5D4B03F5B4
:1076280000539B881A4613461B019B1A9B001A4657
:10763800584B03F500531B891344184604F028FBE4
:1076480003465A4A1360534B03F500539B8A012B98
:1076580005D1564B1B683221184604F047FBB7F892
:10766800700007F16C035A1C07F16C03194600F00F
:107678001BFD07F16C02022341F204014A4804F0A1
:1076880001FC00F0ACBCB7F87020424B03F5005386
:107698001A82B7F870203F4B03F500539A8207F11E
:1076A8007003022241F20801184601F01BFF07F19E
:1076B8007003022241F20A01184601F013FFB7F8DD
:1076C8007030012B38D106F067FB01214FF42060A0
:1076D80005F042F900214FF4002005F03DF92D4B4B
:1076E80003F50053DB8A012B08D107F1700302224E
:1076F80041F20C01184601F0F5FE0DE0254B03F5AB
:107708000053DB8A022B07D107F17003022241F2F2
:107718000E01184601F0E6FE07F17003022241F25D
:107728001001184601F0DEFE204B1B683221184676
:1077380004F0DCFA00F053BC00211D4805F00CF9F8
:1077480001214FF4002005F007F900230022002151
:10775800184809F004FA3221002004F0C7FA0D4B4A
:1077680003F50053DB8A012B26D107F170030222AF
:1077780041F20C01184601F0B5FE0223A7F870305B
:1077880007F17003022241F20C01184601F0AAFE2B
:107798002BE000BF9C030020A872002000001440CA
:1077A800A07200205C6E0020B072002048690020A2
:1077B80010080400EC710020C64B03F50053DB8A67
:1077C800022B12D107F17003022241F20E01184672
:1077D80001F088FE0223A7F8703007F17003022237
:1077E80041F20E01184601F07DFEBA4B03F5005335
:1077F80000221A840023A7F8703007F170030222D0
:1078080041F21001184601F06DFEE8E307F170033C
:10781800022241F20A01184601F064FEB7F870200E
:10782800AC4B03F500539A82B7F87030012B3ED168
:1078380000214FF4002005F08FF8A64B03F5005304
:10784800DB8A012B13D107F17003022241F20C01EC
:10785800184601F047FE0023A7F8703007F17003BF
:10786800022241F20E01184601F03CFE18E0994B45
:1078780003F50053DB8A022B12D107F170030222B1
:1078880041F20E01184601F02DFE0023A7F87030D2
:1078980007F17003022241F20C01184601F022FEA2
:1078A8008D4B1B683221184604F020FA97E301211A
:1078B8004FF4002005F050F8864B03F50053DB8A9F
:1078C800012B13D107F17003022241F20C01184673
:1078D80001F008FE0223A7F8703007F170030222B6
:1078E80041F20C01184601F0FDFD18E0794B03F553
:1078F8000053DB8A022B12D107F17003022241F2F6
:107908000E01184601F0EEFD0223A7F8703007F1CA
:107918007003022241F20E01184601F0E3FD322104
:10792800002004F0E3F95AE3B7F87020694B03F537
:107938000053DA8207F17003022241F20B01184664
:1079480001F0D0FDB7F8700007F16C035A1C07F17D
:107958006C03194600F0A8FB07F16C02022341F200
:107968000B015E4804F08EFAB7F87030DBB2013BC9
:10797800DBB219464FF4003004F0EEFF554B03F527
:1079880000539B8A012B40F02383524B03F500538D
:10799800DB8A012B16D10123A7F8703007F1700399
:1079A800022241F20C01184601F09CFD0023A7F8C1
:1079B800703007F17003022241F20E01184601F0FF
:1079C80091FD05E3434B03F50053DB8A022B40F09E
:1079D800FF820123A7F8703007F17003022241F2F9
:1079E8000E01184601F07EFD0023A7F8703007F15C
:1079F8007003022241F20C01184601F073FDE7E220
:107A080007F17003022241F2A971184601F06AFDDC
:107A1800B7F870202F4B03F50053A3F8522FB7F88F
:107A28007030012B03D1012003F0A6FD02E00020F5
:107A380003F0A2FDB7F8700007F16C035A1C07F1B8
:107A48006C03194600F030FB07F16C02022341F287
:107A5800A971224804F016FAC1E207F17003022264
:107A680041F2AB71184601F03DFDB7F87020194B93
:107A780003F50053A3F8562FB7F8700007F16C030D
:107A88005A1C07F16C03194600F00EFB07F16C0253
:107A9800022341F2AB71114804F0F4F99FE2B7F800
:107AA80070200C4B03F50053A3F85A2FB7F8700059
:107AB80007F16C035A1C07F16C03194600F0F4FA3D
:107AC80007F16C02022341F2AD71044804F0DAF9BF
:107AD80085E200BF9C03002048690020B0720020A6
:107AE800B7F87030012B40F0758207F15803022275
:107AF80041F2AD71184600F0A3FD97F859301A46C7
:107B0800DA4B03F50053B3F85A3F9A4200F0628209
:107B180007F15802022341F2AD71D54804F0B2F9D9
:107B2800512001F03FFE0123A7F8563007F1560314
:107B380002224FF47141184601F0D4FC01F09CFC7C
:107B4800CB4804F027FCCA4804F046FD0023A7F8F8
:107B5800563007F1560302224FF47141184601F0DE
:107B6800C1FC002001F01EFE34E207F1700302227E
:107B780041F2AF71184601F0B5FCB7F87020BB4B65
:107B880003F50053A3F85E2FB7F8700007F16C03F4
:107B98005A1C07F16C03194600F086FA07F16C02CB
:107BA800022341F2AF71B24804F06CF917E207F111
:107BB8007003022241F2B171184601F093FCB7F844
:107BC8007020AA4B03F50053A3F8622FB7F8700092
:107BD80007F16C035A1C07F16C03194600F064FAAC
:107BE80007F16C02022341F2B171A14804F04AF98D
:107BF800F5E107F17003022241F2B371184601F072
:107C080071FCB7F87020994B03F50053A3F8662F61
:107C1800B7F8700007F16C035A1C07F16C0319469A
:107C280000F042FA07F16C02022341F2B371904866
:107C380004F028F98D4B03F50053B3F8663F1A4654
:107C48000021032001F0B8F8884B03F50053B3F87E
:107C5800663F1A460121032001F0AEF8BFE107F1A3
:107C68007003022241F2B571184601F03BFCB7F8E7
:107C780070207E4B03F50053A3F86A2FB7F8700005
:107C880007F16C035A1C07F16C03194600F00CFA53
:107C980007F16C02022341F2B571754804F0F2F85D
:107CA8009DE107F17003022241F2B771184601F015
:107CB80019FCB7F870206D4B03F50053A3F86E2F2D
:107CC800B7F8700007F16C035A1C07F16C031946EA
:107CD80000F0EAF907F16C02022341F2B771644837
:107CE80004F0D0F8614B03F500539B881A461346FD
:107CF8001B019B1A9B001A465C4B03F500531B891A
:107D08001344184603F0C4FF03465A4A136066E159
:107D180007F17003022241F2B971184601F0E2FB43
:107D2800B7F87020514B03F50053A3F8722FB7F83A
:107D3800700007F16C035A1C07F16C03194600F038
:107D4800B3F907F16C02022341F2B971484804F013
:107D580099F844E107F17003022241F2BB71184619
:107D680001F0C0FBB7F87020404B03F50053A3F8AF
:107D7800762FB7F8700007F16C035A1C07F16C03F3
:107D8800194600F091F907F16C02022341F2BB7128
:107D9800374804F077F822E107F17003022241F630
:107DA8000301184601F09EFBB7F870202F4B03F52E
:107DB8004053DA80B7F8700007F16C035A1C07F1DA
:107DC8006C03194600F070F907F16C02022341F6C2
:107DD8000301274804F056F801E1244BB3F8383181
:107DE80087F87730214BB3F83A3187F876301F4B54
:107DF800B3F83C3187F875301C4BB3F83E3187F83F
:107E080074301A4BB3F8403187F87330B7F87030D4
:107E180087F87230B7F87020144BA3F8422197F80E
:107E2800744097F8752097F8761097F87700012333
:107E3800029397F87230019397F8733000932346B2
:107E480003F064FE97F872309BB297F8744097F885
:107E5800772097F8761097F87500019397F87330A4
:107E68000093234607F05EFAB9E000BF9C030020A8
:107E7800B072002048690020B7F87030012B40F03C
:107E8800AB80002387F8553007F155020123002104
:107E9800554803F0F7FF002008F00CF8534B1B6817
:107EA8003B6507F1500304220421184601F01AFB30
:107EB8004FF47A7007F0FEFFFEF792FBB7F87020D8
:107EC8004B4B03F58053A3F8822707F15C0300228C
:107ED8001A605A609A60DA600023FB670FE0FB6F54
:107EE80003F6D533424A32F81330D9B207F15C02AF
:107EF800FB6F13440A461A70FB6F0133FB67FB6F75
:107F0800092BECDD0023BB670FE0BB6F03F6CF3313
:107F1800374A32F81320BB6F0A33D2B280333B445E
:107F280003F8242CBB6F0133BB67BB6F052BECDD5B
:107F380007F108032122002118460EF015FF07F16A
:107F4800080207F15C0310211846FEF75FFB07F1F2
:107F58002C032222002118460EF006FF07F12C01FF
:107F680007F108032122184600F0B4F8FF23A7F808
:107F78004C3007F12C03222247F2BB51184601F07E
:107F8800B1FA2CE007F17003022241F2D0711846D1
:107F980001F0A8FAB7F87020154B03F58053A3F841
:107FA8007027B7F87030002B18D1B7F87020104B35
:107FB80003F58053A3F8722710E0FB88B7F8701018
:107FC8000B4A22F813100AE000BF08E000BF06E0E1
:107FD80000BF04E000BF02E000BF00E000BF00BF38
:107FE8008037BD46B0BD00BFB0720020C084010814
:107FF8009C03002080B500AFFEF79EFEFFF7D4F883
:1080080000BF80BD80B400AF094BDB69084A43F06C
:10801800C053D361074B1B68064A43F4807313604F
:10802800054B4BF207025A6000BFBD4680BC704743
:108038000010024000700040006C004080B500AFA6
:10804800FFF7E0FF0A2007F035FFFEF7C9FA000046
:1080580080B400AFBFF34F8F00BF064BDB6803F45B
:10806800E0620449044B1343CB60BFF34F8F00BF5A
:1080780000BFFDE700ED00E00400FA0580B483B01E
:1080880000AF03460A46FB711346BB71FB791BB26E
:108098001B021AB2BB791BB213431BB29BB2184620
:1080A8000C37BD4680BC704780B485B000AF03462E
:1080B800B9607A60FB81FB891B0A9BB2DAB2BB68A4
:1080C8001A70FB89DAB27B681A7000BF1437BD4694
:1080D80080BC704780B487B000AFF860B9601346C1
:1080E800FB8000237B611AE07B695B001A46FB6812
:1080F80013441B781BB21B021AB27B695B00013365
:10810800F9680B441B781BB2134319B27B695B00F7
:10811800BA6813448AB21A807B6901337B61FB8891
:108128005B089BB21A467B699342DDDB00BF00BF48
:108138001C37BD4680BC704780B487B000AFF8607C
:10814800B9601346FB8000237B611CE07B695B0000
:10815800FA68134419887B695B000133BA681344D1
:10816800CAB21A707B695B00FA6813441B881B0A41
:108178009AB27B695B001946BB680B44D2B21A708D
:108188007B6901337B61FB885B089BB21A467B697C
:108198009342DBDB00BF00BF1C37BD4680BC704785
:1081A80080B485B000AF78600B467B804FF6FF73D4
:1081B800FB810023BB8122E0BB897A6813441B78CA
:1081C8001A46FB895340FB810023FB7211E0FB89AF
:1081D80003F00103002B06D0FB895B089AB20D4B14
:1081E8005340FB8102E0FB895B08FB81FB7A01338A
:1081F800FB72FB7A072BEAD9BB890133BB81BA89A9
:108208007B889A42D8D3FB8918461437BD4680BC70
:10821800704700BF01A0FFFF80B400AF034B4AF6D0
:10822800AA221A6000BFBD4680BC704700300040DB
:1082380080B588B000AF07F1100300221A605A60B9
:108248001A810123FB830623BB83FA8BBB8B07F1BF
:10825800100010490EF066FD3B1D00221A605A609E
:108268001A81391D07F110030A221846FFF732FF59
:10827800094B03F550436A22A3F854213B1D0A22F7
:1082880046F6AA01184601F02DF900BF2037BD4671
:1082980080BD00BFC48401089C03002080B588B05D
:1082A80000AF786039602D4BBB614FF00003FB6174
:1082B8002B4B7B613B68002B17D12A4BFB612A496A
:1082C8007868FDF73DFF0346002B02D0264B7B6004
:1082D80025E04FF000017868FDF714FF0346002BF6
:1082E8001DD04FF000037B6019E03B68102B16D1BE
:1082F8001E4BFB611E497868FDF722FF0346002BE1
:1083080002D01B4B7B600AE04FF000017868FDF754
:10831800F9FE0346002B02D04FF000037B60F96999
:108328007868FDF705FE03463B61B9693869FDF7D2
:10833800FFFD034679691846FDF746FD03461846D2
:10834800FDF744FF0346FB60FB68002239680948D3
:1083580008F005FC00BF2037BD4680BD33335340CD
:1083680000F07F450000C04000007041D7A3504096
:1083780000002041EC7100202DE9F0438DB002AFE0
:10838800002387F827308B4B1B785A2B40F0F2805C
:10839800884B5B78A52B40F0ED806B461E46854BDD
:1083A8009B78033387F8263097F82630814AD35CC8
:1083B8005A2B2CD197F8263003337E4AD35C832B73
:1083C80025D197F8263002337A4AD35C033387F8ED
:1083D8002630784B9B780333FB74FB7C3B620BE0C5
:1083E800FB7C3A6AD31A73493A6A0A441178714A8B
:1083F800D1543B6A01333B62FA7C97F82630134428
:108408003A6A9A42ECDB6C49002005F05BF8694B4C
:108418009B78023BD9B20B46013BFB60CBB20022F2
:10842800984691464FF000024FF000034FEAC90307
:1084380043EA58734FEAC802CBB200221C461546DD
:108448004FF000024FF00003EB0043EA5473E200E0
:108458000B460733DB08DB00ADEB030D02AB003343
:10846800BB600023FB610BE0FB690333514AD05C1E
:10847800BA68FB69134402461A70FB690133FB6151
:108488004C4B9B78023BFA699A42EDDB0B46194646
:10849800B868FFF785FE0346FB8097F82630013B56
:1084A800444AD25C97F82630023B4249CB5C1946D5
:1084B8001046FFF7E3FD0346BB80FA88BB889A4263
:1084C8004FD13C4BDB78822B02D1022387F827302F
:1084D800384BDB78832B4BD1364B1B79354A527995
:1084E80011461846FFF7CAFD03467B807B8849F290
:1084F8009A7293423CD07B88842B39D07B88B3F521
:10850800E44F35D02B4B1B791A462A4B5B792B4904
:10851800002004F0D7FF002007F0CCFC0023BB614B
:1085280015E0BB695A1CBB695B0007332149CB5C6A
:108538001846BB6904335B001E49CB5C00930346B5
:108548001F49002004F0BEFFBB690133BB61194B12
:108558009B791A46BB699342E3DB032387F82730EC
:1085680006E01849002004F0ADFF012387F8273002
:10857800B54618E01449002004F0A4FF134B01226B
:108588001A7000237B610BE00A4A7B69134419784F
:108598000F4A7B6913440A461A707B6901337B6171
:1085A8007B69132BF0DD97F8273018462C37BD462A
:1085B800BDE8F083906E0020D0840108E8840108AB
:1085C8001C85010834850108448501082E690020AE
:1085D8003069002080B586B000AFF860B9607A6075
:1085E800134ABB681360134AFB681360124A7B681E
:1085F800136064221149F8680DF0EDFB0346FB7522
:1086080000233B61FB681B681B683B61FB681B68B8
:108618005B683B613B69FB681B68DA68FB681B6841
:1086280042F01002DA60FB7D18461837BD4680BD5F
:10863800587100205C71002060710020F46E0020E9
:108648002DE9F0478CB000AF78600B467B8013466D
:108658007B706B469A46002387F82F307B785B083F
:10866800FB77FB7F03F10806731EBB6132460023CC
:10867800904699464FF000024FF000034FEAC903B5
:1086880043EA58734FEAC8023246002314461D468F
:108698004FF000024FF00003EB0043EA5473E2008E
:1086A80033460733DB08DB00ADEB030D6B460033C5
:1086B8007B617B695A221A707B69A5225A707B6993
:1086C80006229A707B698322DA707B881B0A9BB228
:1086D800FB747B88BB747B69FA7C1A717B69BA7CF2
:1086E8005A717B69FA7F9A710323BB620CE0BB6AFB
:1086F800033B7969BA6A0A44127830333B4403F879
:10870800282CBB6A0133BB62BB6A062BEFDD07F17D
:10871800080304211846FFF743FD03463B823B8AC2
:10872800DAB27B69DA713B8A1B0A9BB2DAB27B69DF
:108738001A72002387F827306422002133480EF08C
:1087480013FB334B00221A70324B1B68B2B27969A3
:1087580018460DF00BFB97F82730013387F82730C0
:1087680007F09EFBF86000BF294B1B78012B06D051
:1087780007F096FB0246FB68D31A0A2BF4D907F0D8
:108788008FFB0246FB68D31A0A2B28D897F82730A4
:10879800032B24D8FFF7F0FD034687F82F3097F80E
:1087A8002F30032B16D100233B620AE03B6ADA1D07
:1087B8003B6A79680B4415498A5C1A703B6A013335
:1087C8003B62FB7F5B003A6A9A42EFDB104B002268
:1087D8001A7013E01049002004F074FEACE797F813
:1087E8002730032B04D80D49002004F06BFEA3E7C3
:1087F800074B00221A70064B00225A7097F82F3048
:10880800D54618463037BD46BDE8F087906E002043
:10881800707100205C710020588501086C85010882
:1088280090B5A1B000AF0346FB800B467B711346A1
:108838007B8045F6A523A7F87430FB88A7F8763027
:108848007B799BB21B029BB201339BB2A7F87830AD
:108858000223A7F87A3007F174030822B0211846DA
:1088680000F040FE322007F025FB07F144033022D8
:10887800002118460EF078FA07F144033022B4219B
:108888001846FFF7DDFE45F6A523BB81FB88FB8173
:108898007B799BB21B029BB201339BB23B820323C1
:1088A8007B820023FB671BE0FB6F5B0080333B444C
:1088B80013F83C2CFB6F5B00013380333B4413F807
:1088C8003C1CFB6F1C1D1046FFF7D8FB03461A46DD
:1088D800630080333B4423F8742CFB6F0133FB6740
:1088E800FB6F172BE0D97B883B8507F10C033822F7
:1088F800B021184600F0F6FD322007F0DBFA00BF81
:108908008437BD4690BD80B584B000AF0346FB8078
:108918000823FB6022E00023BB6019E0FB681C2BE6
:1089280008D0FB689BB2BA68D1B2FA881846FFF73C
:1089380077FF0AE0BB68032B07DCFB689BB2BA68C9
:10894800D1B2FA881846FFF76BFFBB680133BB60EA
:10895800BB68052BE2DDFB680133FB60FB68182B65
:10896800D9DD00BF00BF1037BD4680BD80B582B0DD
:1089780000AF0346FB80FB88032B1BD801A252F8EB
:1089880023F000BF9D890008A5890008AD8900086B
:10899800B58900080720FFF7B6FF0BE03020FFF786
:1089A800B2FF07E03120FFF7AEFF03E03920FFF701
:1089B800AAFF00BF00BF0837BD4680BD90B585B08F
:1089C80000AF0446084611461A462346FB80034674
:1089D800BB800B467B8013463B80BB883B817B88F2
:1089E8007B813B88BB81FB88053399B207F108037B
:1089F8000622184600F076FD00BF1437BD4690BD2C
:108A080080B582B000AF0346FB80FB88032B00F2E1
:108A1800CF8101A252F823F0318A0008138B000895
:108A2800F58B0008D78C000843F2017336223521F4
:108A38004FF48E40FFF7C2FF43F20173362235210F
:108A480044F20A70FFF7BAFF43F20173542251212E
:108A580044F21470FFF7B2FF43F201733622352156
:108A680044F21E70FFF7AAFF43F20173412240212E
:108A780044F23270FFF7A2FF43F201734222402111
:108A880044F23C70FFF79AFF43F2017343224021FE
:108A980044F24670FFF792FF43F2017344224021EB
:108AA80044F25070FFF78AFF43F2017346224021D7
:108AB80044F25A70FFF782FF43F2017345224021C6
:108AC80044F26470FFF77AFF43F2017347224021B2
:108AD80044F26E70FFF772FF43F201735022402197
:108AE80044F27870FFF76AFF43F201734922492183
:108AF80044F28270FFF762FF43F201734822482173
:108B080044F28C70FFF75AFF52E143F201733622A8
:108B180035214FF48E40FFF751FF43F2017336229F
:108B2800352144F20A70FFF749FF43F601233D223D
:108B38003A2144F21470FFF741FF43F201733622E1
:108B4800352144F21E70FFF739FF43F601234F2207
:108B5800612144F23270FFF731FF43F601235022BE
:108B6800612144F23C70FFF729FF43F601235122AB
:108B7800612144F24670FFF721FF43F60123522298
:108B8800612144F25070FFF719FF43F60123532285
:108B9800612144F25A70FFF711FF43F60123542272
:108BA800612144F26470FFF709FF43F6012355225F
:108BB800612144F26E70FFF701FF43F6012356224C
:108BC800612144F27870FFF7F9FE43F6012362222F
:108BD800622144F28270FFF7F1FE43F201736022D2
:108BE800602144F28C70FFF7E9FEE1E043F60123CF
:108BF800372236214FF48E40FFF7E0FE43F601237B
:108C08003722362144F20A70FFF7D8FE43F60123D3
:108C18004C22492144F21470FFF7D0FE43F6012399
:108C28003722362144F21E70FFF7C8FE43F60123AF
:108C38005722612144F23270FFF7C0FE43F6012348
:108C48005822612144F23C70FFF7B8FE43F6012335
:108C58005922612144F24670FFF7B0FE43F6012322
:108C68005A22612144F25070FFF7A8FE43F601230F
:108C78005B22612144F25A70FFF7A0FE43F60123FC
:108C88005C22612144F26470FFF798FE43F60123E9
:108C98005D22612144F26E70FFF790FE43F60123D6
:108CA8005E22612144F27870FFF788FE43F60123C3
:108CB8006322632144F28270FFF780FE43F60123AA
:108CC8005F225F2144F28C70FFF778FE70E043F674
:108CD8000123752274214FF48E40FFF76FFE43F68F
:108CE80001237522742144F20A70FFF767FE43F6E8
:108CF800012371226E2144F21470FFF75FFE43F6E0
:108D080001237522742144F21E70FFF757FE43F6C3
:108D180001237622612144F23270FFF74FFE43F6B9
:108D280001237722612144F23C70FFF747FE43F6A6
:108D380001237822612144F24670FFF73FFE43F693
:108D480001237922612144F25070FFF737FE43F680
:108D580001237A22612144F25A70FFF72FFE43F66D
:108D680001237B22612144F26470FFF727FE43F65A
:108D780001237C22612144F26E70FFF71FFE43F647
:108D880001237D22612144F27870FFF717FE43F634
:108D980001236422642144F28270FFF70FFE43F638
:108DA80001236022602144F28C70FFF707FE00BFA8
:108DB80000BF0837BD4680BD90B599B000AF0346E7
:108DC800FB800B467B7113467B8045F6A523A7F8ED
:108DD8005430FB88A7F856307B799BB21B029BB2B4
:108DE80002339BB2A7F858300223A7F85A3007F18C
:108DF80054030822B021184600F074FB322007F013
:108E080059F807F134032022002118460DF0ACFF71
:108E180007F134032022B4211846FFF711FC07F1AB
:108E28000C032822002118460DF09EFF45F6A523C5
:108E3800BB81FB88FB817B799BB21B029BB202330F
:108E48009BB23B8203237B820023FB651BE0FB6D07
:108E58005B0060333B4413F82C2CFB6D5B00013343
:108E680060333B4413F82C1CFB6D1C1D1046FFF7A8
:108E780005F903461A46630060333B4423F8542C33
:108E8800FB6D0133FB65FB6D0F2BE0D97B88FB8500
:108E980007F10C032822B021184600F023FB3220EA
:108EA80007F008F800BF6437BD4690BD90B5A9B07B
:108EB80000AF0446084611461A462346FB8003467F
:108EC8007B710B463B711346FB7045F6A523A7F84B
:108ED8009430FB88A7F896307B799BB21B029BB233
:108EE80006339BB2A7F898300223A7F89A3007F107
:108EF80094030822B021184600F0F4FA322006F054
:108F0800D9FF07F154034022002118460DF02CFF29
:108F180007F154034022B4211846FFF791FB45F6A8
:108F2800A523BB81FB88FB817B799BB21B029BB28B
:108F380006339BB23B8203237B820023C7F89C3015
:108F480020E0D7F89C305B00A0333B4413F84C2C4E
:108F5800D7F89C305B000133A0333B4413F84C1C1A
:108F6800D7F89C301C1D1046FFF788F803461A46B0
:108F78006300A0333B4423F8942CD7F89C3001338A
:108F8800C7F89C30D7F89C301F2BDAD93B8D1BB221
:108F980023F0FF031AB23B791BB213431BB29BB2F7
:108FA8003B85FB789BB21B029AB297F8B0309BB214
:108FB80013439BB27B857B8F1BB223F0FF031AB24E
:108FC80097F8B4301BB213431BB29BB27B8707F1EF
:108FD8000C034822B021184600F084FA322006F02B
:108FE80069FF00BFA437BD4690BD80B584B002AF0D
:108FF8000346FB80FB88022B1AD1352301934623B5
:10900800009332230B2200211920FFF74FFF642021
:1090180006F050FF352301934623009332230B2299
:1090280001213220FFF742FF642006F043FF37E0BA
:10903800FB88032B1AD01A2301934623009323237A
:109048000F2200211920FFF731FF642006F032FFBC
:109058001A230193342300931A230F22012132206B
:10906800FFF724FF642006F025FF19E03823019359
:109078004623009332230A2200211920FFF716FF06
:10908800642006F017FF3823019346230093322308
:109098000A2201213220FFF709FF642006F00AFFA7
:1090A80000BF0837BD4680BD80B5A6B000AF0346F7
:1090B800FB80FB88032B00F2D88101A252F823F031
:1090C800D9900008C1910008A79200088993000868
:1090D8000023C7F894301AE0AB4B1B687B61D7F8C4
:1090E80094309BB21A4652001A44920013449BB221
:1090F80003F58043093399B207F114030422184693
:1091080000F0F0F9D7F894300133C7F89430D7F865
:109118009430632BE0DD9C4B1B68C7F8843007F163
:109128008403042244F21D51184600F0DBF90023A1
:10913800A7F8803007F18003022244F2155118463F
:1091480000F0D0F94FF48043A7F87C3007F17C0396
:10915800022244F21F51184600F0C4F98A4B1B68DA
:10916800BB6707F17803042244F22A51184600F03D
:10917800B9F90023A7F8743007F17403022244F206
:109188002251184600F0AEF94FF48043A7F870302A
:1091980007F17003022244F22C51184600F0A2F99C
:1091A8007A4B1B68FB6607F16C03042244F23751C3
:1091B800184600F097F958E10023C7F890301AE0F4
:1091C800714B1B683B61D7F890309BB21A4652002E
:1091D8001A44920013449BB203F58043093399B2B1
:1091E80007F110030422184600F07CF9D7F89030F4
:1091F8000133C7F89030D7F89030632BE0DD624B2D
:109208001B68BB6607F16803042244F21D51184627
:1092180000F068F90023A7F8643007F1640302221C
:1092280044F21551184600F05DF94FF48043A7F851
:10923800603007F16003022244F21F51184600F023
:1092480051F9514B1B68FB6507F15C03042244F29A
:109258002A51184600F046F90023A7F8583007F1BC
:109268005803022244F22251184600F03BF94FF409
:109278008043A7F8543007F15403022244F22C51DA
:10928800184600F02FF9414B1B683B6507F1500366
:10929800042244F23751184600F024F9E5E000238F
:1092A800C7F88C301AE03A4B1B68FB60D7F88C3053
:1092B8009BB21A4652001A44920013449BB203F51B
:1092C8008043093399B207F10C030422184600F0D1
:1092D80009F9D7F88C300133C7F88C30D7F88C30BF
:1092E800632BE0DD2A4B1B68FB6407F14C03042267
:1092F80044F21D51184600F0F5F82023A7F848302D
:1093080007F14803022244F21551184600F0EAF822
:109318004FF40043A7F8443007F14403022244F213
:109328001F51184600F0DEF8194B1B683B6407F123
:109338004003042244F22A51184600F0D3F82023AF
:10934800BB8707F13C03022244F22251184600F081
:10935800C9F84FF400433B8707F13803022244F26F
:109368002C51184600F0BEF8094B1B687B6307F1C7
:109378003403042244F23751184600F0B3F874E07D
:109388000023C7F8883020E080850108848501081B
:1093980088850108374B1B68BB60D7F888309BB2BB
:1093A8001A4652001A44920013449BB203F58043B4
:1093B800093399B207F108030422184600F092F81D
:1093C800D7F888300133C7F88830D7F88830632B4E
:1093D800E0DD284B1B683B6307F13003042244F2AD
:1093E8001D51184600F07EF82023BB8507F12C0399
:1093F800022244F21551184600F074F84FF4004365
:109408003B8507F12803022244F21F51184600F059
:1094180069F8184B1B687B6207F12403042244F2A5
:109428002A51184600F05EF820233B8407F12003F8
:10943800022244F22251184600F054F84FF4004337
:10944800BB8307F11C03022244F22C51184600F09A
:1094580049F8084B1B68BB6107F11803042244F262
:109468003751184600F03EF800BF00BF9837BD4698
:1094780080BD00BF8C85010880B582B000AF184B55
:1094880003F50053B3F85A3FFB80BB1D022248F294
:109498003A41184600F026F8114B03F50053B3F88B
:1094A8005A3F1846FFF762FA0D4B03F50053B3F81D
:1094B8005A3F1846FFF7A4FA094B03F50053B3F8CF
:1094C8005A3F1846FFF7F0FD054B03F50053B3F874
:1094D8005A3F1846FFF789FD00BF0837BD4680BDD3
:1094E8009C0300202DE9F04F93B000AF78610B4644
:1094F8007B8213467B746B467B60002387F847307A
:109508007B7C5B0887F83A3097F83A3004335E0082
:10951800731E7B6332460023BA60FB604FF0000283
:109528004FF00003F968CB00D7E90201844643EA0B
:109538005C730146CA003246002392469B464FF0B0
:1095480000024FF000034FEACB0343EA5A734FEA95
:10955800CA0233460733DB08DB00ADEB030D6B466D
:1095680000333B633B6B5A221A703B6BA5225A703F
:1095780097F83A305B00DBB20533DAB23B6B9A708E
:109588003B6B8222DA707B8A1B0A9BB287F82F30EA
:109598007B8A87F82E303B6B97F82F201A713B6B2C
:1095A80097F82E205A7100233B641AE03B6C5B004D
:1095B8007A6913441B887B837B8B1B0A9BB27B765F
:1095C8007B8B3B763B6C03335B003A6B797ED154E3
:1095D8003B6C5B0007333A6B397ED1543B6C0133EB
:1095E8003B6497F83A303A6C9A42DFDB97F83A30A6
:1095F8005B00D91C4B1EBB620A4600239046994665
:109608004FF000024FF000034FEAC90343EA5873D2
:109618004FEAC8020A46002314461D464FF00002CE
:109628004FF00003EB0043EA5473E2000B460733A4
:10963800DB08DB00ADEB030D6B4600337B620323D5
:10964800FB630AE0FB6B033B396BFA6B0A44117846
:109658007A6AD154FB6B0133FB6397F83A300333D2
:109668005B00FA6B9A42EDDB97F83A309BB25B00ED
:109678009BB203339BB21946786AFEF791FD034605
:109688007B8497F83A3003335B007A8CD1B23A6B1B
:10969800D1547B8C1B0A9AB297F83A30013B5B0095
:1096A8000933D1B23A6BD154002387F83B30374B9A
:1096B8001B78012B61D0364B1B681B6803F0100325
:1096C800102B19D0324B93F84130DBB2202B13D139
:1096D800642200212F480DF047FB2C4B00221A7002
:1096E8002D4B1B68B2B2396B18460CF03FFB97F84C
:1096F8003B30013387F83B3006F0D2FBF86100BFFE
:10970800224B1B78012B06D006F0CAFB0246FB69E8
:10971800D31A0A2BF4D906F0C3FB0246FB69D31A05
:109728000A2B19D897F83B30032B15D8FEF724FEDF
:10973800034687F8473097F84730022B03D1134B7D
:1097480000221A7018E097F84730032B14D01349F9
:10975800002003F0B7FEAAE797F83B30032B04D8A4
:109768000F49002003F0AEFEA1E7084B00225A7013
:10977800064B00221A7000E000BF97F84730D7F870
:1097880004D018464C37BD46BDE8F08F70710020F4
:109798000C740020906E00205C71002090850108F8
:1097A8006C85010880B58CB000AF0346FB710023BF
:1097B80087F82F305A233B74A5237B740923BB7485
:1097C8008223FB7400233B7584237B755A23BB7566
:1097D8000123FB75002387F82630FB7987F82530AD
:1097E80097F826303B7697F825307B760323BB62C3
:1097F8000DE0BB6A033B07F11001BA6A0A4412780C
:1098080030333B4403F8282CBB6A0133BB62BB6A84
:10981800092BEEDD07F1080307211846FEF7C0FC07
:1098280003467B847B8CDBB2BB767B8C1B0A9BB2AA
:10983800DBB2FB76002387F82730642200212D480D
:109848000DF092FA2C4B00221A702C4B186807F175
:10985800100164230C220CF0FEF997F8273001332D
:1098680087F8273006F01CFBF86100BF224B1B78F5
:10987800012B06D006F014FB0246FB69D31A0A2B0B
:10988800F4D906F00DFB0246FB69D31A0A2B19D846
:1098980097F82730032B15D8FEF76EFD034687F897
:1098A8002F3097F82F30022B03D1134B00221A7058
:1098B80018E097F82F30032B14D01149002003F03B
:1098C80001FEBAE797F82730032B04D80D4900208A
:1098D80003F0F8FDB1E7084B00225A70064B00224E
:1098E8001A7000E000BF97F82F3018463037BD4691
:1098F80080BD00BF906E0020707100205C71002058
:10990800908501086C85010890B587B000AF0446C2
:10991800084611461A462346FB800346BB800B4681
:10992800FB701346BB700023FB7545F6A523BB816E
:10993800BB88FB81FB789BB21B029AB2BB789BB2B7
:1099480013449BB23B82FB887B8207F10C030822FD
:10995800B0211846FFF7C6FD0346FB75FB7D184688
:109968001C37BD4690BD80B582B000AF0023FB71A7
:1099780000233B600EE03B68DAB20523002101209A
:10998800FFF7C2FF0346FB71322006F093FA3B68EB
:1099980001333B603B68022BEDDDFB791846083745
:1099A800BD4680BD80B58CB000AF06F079FA02469E
:1099B800774B9B68D31AB3F57A7FC0F0DD8006F049
:1099C8006FFA0346724A93604FF40051714808F0E9
:1099D800B2FA03F0D7FFFEF71FFC6F4B5B78012B41
:1099E80040F0CA806D4B9B699AB26D4B03F50053EA
:1099F800DA816A4B9B689AB2694B03F500539A81E6
:109A0800664B9B689BB2BB83644B9B699BB2FB8391
:109A180007F11C03042241F206011846FFF762FD14
:109A28005F4B03F580431B88012B05D05C4B03F586
:109A380080431B88032B06D102F0D0FF01F0C2FE41
:109A480001F0DEFE8FE0564B03F580431B88062BA2
:109A580040F08980002387F82F30002387F82E30C4
:109A68004FF480614F4808F037FA034687F82730EB
:109A78004FF400614B4808F02FFA034687F8263068
:109A88004FF48051474808F027FA034687F82530F5
:109A98004FF40051434808F01FFA034687F8243072
:109AA8004FF480413F4808F017FA034687F82330FF
:109AB8004FF400413B4808F00FFA034687F822307C
:109AC8000023BB6219E04021324808F005FA03463A
:109AD800012B02D1012387F82F3080212D4808F06F
:109AE800FBF90346012B02D1012387F82E30002011
:109AF80006F0E0F9BB6A0133BB62BB6A182BE2DDF2
:109B0800264B1B689BB2BB80244B5B689BB2FB80D7
:109B1800224B9B689BB23B8197F827309BB27B8195
:109B280097F826309BB2BB8197F825309BB2FB8112
:109B380097F824309BB23B8297F823309BB27B8204
:109B480097F822309BB2BB8297F82F309BB2FB82EA
:109B580097F82E309BB23B833B1D16224FF42451BD
:109B68001846FFF7BFFC0E4BB3F8A430012B01D009
:109B780000F020FB00F072FB02F024FF00F014F864
:109B880000F062F901F092FF00BF3037BD4680BD9A
:109B98005C03002000100140707100205C6E002002
:109BA8009C030020000C0140B0B58CB004AF06F057
:109BB80077F90246954B5B68D31AB3F5FA7FC0F084
:109BC8002181934B5B78012B00F01781914B1B7817
:109BD800042B00F2128107F1180302220F21184604
:109BE800FEF72EFD0346032B40F0CE80894B002262
:109BF8001A703B7E1A467B7E8749002003F062FC80
:109C08003B7E7A7E11461846FEF738FA03461A4616
:109C1800824BDA83814B03F580430222A3F8402666
:109C280007F1130407F1150207F1160107F11700F0
:109C380007F11103029307F11203019307F11403CB
:109C48000093234601F0B3FF787DB97DFA7D3C7D12
:109C5800BB7C7D7C01950093234605F063FB0023C4
:109C6800BB8107F10C03022247F695111846FEF74F
:109C7800E7FC7B7B022B09D000233B8107F108031B
:109C8800022247F695111846FFF72CFCFEF7D0FA8A
:109C98000023FB6114E0624AFB6932F813301A466C
:109CA8005E4B33F81230FB805D4AFB6932F81310C3
:109CB800BB1D02221846FFF715FCFB690133FB6147
:109CC800FB690E2BE7DD554B03F50053DB8ADBB24E
:109CD800013BDBB219464FF4003002F03DFE4F4B1A
:109CE80003F50053B3F85A3F002B01D0FFF7C4FB2C
:109CF8004A4B03F50053B3F8663F1A460021032088
:109D0800FFF75AF8454B03F50053B3F8663F1A4678
:109D180001210320FFF750F801F05AFC3F4B03F5EF
:109D280000539B881A4613461B019B1A9B001A4630
:109D38003A4B03F500531B891344184601F0A8FF5A
:109D48000346384A1360354B03F50053B3F8523FC6
:109D5800012B03D1012001F00FFC02E0002001F0EB
:109D68000BFCFFF700FE00237B8107F10A030222A8
:109D78004FF471411846FFF7B5FB0020FFF712FDBD
:109D8800234B01225A7033E0274B1B6818460CF00E
:109D980047F826480BF02DFF0346002B05D0244931
:109DA800002003F08FFB04F075FF002006F082F816
:109DB8001E480BF0CEFE0346002B05D01D4900209F
:109DC80003F080FB04F066FF1B4A1C491748FEF7A6
:109DD80001FC0346002B05D01949002003F072FB53
:109DE80004F058FF0B4B1B780133DAB2094B1A7099
:109DF80000220421134808F086F806F051F80346BB
:109E0800024A536000BF2037BD46B0BD5C03002046
:109E1800707100205C690020A48501089C03002063
:109E280004000020486900205C7100200C740020A8
:109E3800C0850108D48501089874002000480040B6
:109E4800E88501080010014080B500AF164B5B782B
:109E5800002B27D0144B1B78012B23D1124B002247
:109E68001A70FEF789FA0346032B1BD100F054FA47
:109E78000E4B03F580431B88012B05D00B4B03F5D4
:109E880080431B88032B02D100F0BAFD0AE0074B80
:109E980003F580431B88062B02D100F009F801E086
:109EA80001F0A0F800BF80BD707100209C03002065
:109EB800B0B59AB000AFB74B1B79B64A5279114684
:109EC8001846FEF7DBF80346A7F86630B14BDB7996
:109ED800B04A127A11461846FEF7D0F80346A7F89A
:109EE8006430B7F8663042F60A1293421ED9B7F8C2
:109EF800663042F61C12934218D8A74A3B1D1146F9
:109F0800482218460CF064FFB7F86630A3F52453CE
:109F18000B3B9B0068333B4453F8643CB7F8642020
:109F2800D2B21146184602F017FD5EE0B7F8663067
:109F380042F62912934233D042F62912934254DC56
:109F480042F61D12934204D042F61E12934215D0D7
:109F58004BE00121914802F0FFFC914B3C1D1D464E
:109F68000FCD0FC40FCD0FC42B6823803B1D2222B9
:109F780042F60B111846FFF7B5FA36E0002189487A
:109F880002F0EAFC3B1D2622002118460CF0ECFEEC
:109F98003B1D262242F60B111846FFF7A3FA24E0D0
:109FA800814B03F5804300221A8000217D4802F08E
:109FB800D3FC3221002001F099FE00214FF000006F
:109FC800FEF76CF910214FF00000FEF767F93B1D12
:109FD8003C22002118460CF0C7FE3B1D3C2242F6ED
:109FE8000B111846FFF77EFA00BFB7F8663042F645
:109FF8001E12934230D9B7F8663042F622129342C5
:10A008002AD807F15C0300221A605A60B7F8663054
:10A01800A3F524531F3B5B0068333B44B7F8642027
:10A0280023F80C2CB7F86630A3F524531E3BB7F879
:10A03800642002FB03F34FF47A7202FB03F332212C
:10A04800184601F053FE07F15C03082242F61F117F
:10A058001846FFF747FA99E0B7F8663042F6221239
:10A06800934246D9B7F8663042F62512934240D853
:10A0780007F1540300221A609A80B7F86630A3F5F6
:10A088002453223B1846FBF71DFA4FF00002474BBA
:10A09800FBF782FA02460B4614461D46B7F86430B1
:10A0A8001846FBF70FFA02460B4620462946FBF7EF
:10A0B80073FA02460B4610461946FBF727FD03467E
:10A0C80010211846FEF7EAF8B7F86630A3F52453CE
:10A0D800233B5B0068333B44B7F8642023F8142C17
:10A0E80007F15403062242F623111846FFF7FAF93E
:10A0F8004CE0B7F8663042F62512934246D9B7F8D5
:10A10800663042F62812934240D807F14C030022E9
:10A118001A609A80B7F86630A3F52453253B184691
:10A12800FBF7D0F94FF00002214BFBF735FA024656
:10A138000B4614461D46B7F864301846FBF7C2F9BB
:10A1480002460B4620462946FBF726FA02460B46EE
:10A1580010461946FBF7DAFC034600211846FEF7BD
:10A168009DF8B7F86630A3F52453263B5B006833A7
:10A178003B44B7F8642023F81C2C07F14C03062253
:10A1880042F626111846FFF7ADF9FFE700BF68371A
:10A19800BD46B0BD906E00200C86010878FE7E009A
:10A1A80054860108F8FE7E009C0300200000084049
:10A1B8000000144080B582B000AF274B03F5005370
:10A1C8001B8A012B44D1244B03F500539A89224B57
:10A1D80003F500531B889A4217D91F4B03F5005308
:10A1E8001B8C012B32D11C4B03F5005300221A841F
:10A1F800194B03F500531B8CFB80BB1D022241F257
:10A2080010011846FFF76EF920E0134B03F50053D1
:10A218009A89114B03F500531B889A4216D80E4BA6
:10A2280003F500531B8C002B10D10B4B03F5005387
:10A2380001221A84084B03F500531B8CBB803B1D7D
:10A24800022241F210011846FFF74CF903F0BAFE5A
:10A2580000BF0837BD4680BD9C03002080B500AF15
:10A268002B4B03F500531B8A002B32D1284B03F5E7
:10A2780080431B88062B2CD0254BB3F8A430012B28
:10A2880027D04FF48041234807F026FE0346002BD1
:10A298001FD01F4B03F500539B89322B0CD94FF469
:10A2A800007002F023FB0346002B2DD101214FF44F
:10A2B800007002F051FB27E04FF4007002F016FB2B
:10A2C8000346012B20D100214FF4007002F044FB1B
:10A2D8001AE04FF4007002F009FB0346012B14D179
:10A2E8004FF480410B4807F0F7FD0346002B0CD1D3
:10A2F800074B03F580431B88062B06D000214FF43B
:10A30800007002F029FB00E000BF00BF80BD00BF65
:10A318009C030020000C0140F0B58FB004AFD84B6F
:10A328001B79D74A527911461846FDF7A7FE03460E
:10A33800FB84D34BDB79D24A127A11461846FDF7D3
:10A348009DFE0346BB84FB8CB3F5145F00F0F182DD
:10A35800B3F5145F00F34F83B3F5005F00F0FC80A2
:10A36800B3F5005F00F347839C2B00F008839C2B18
:10A37800C0F2418341F60302934200F33C8341F269
:10A3880095729342C0F23783A3F5BC53153B6E2BED
:10A3980000F2318301A252F823F000BFA5A80008FB
:10A3A800FFA90008FFA90008FFA90008FFA90008E5
:10A3B800FFA90008FFA90008FFA90008FFA90008D5
:10A3C800FFA90008FFA90008FFA90008FFA90008C5
:10A3D800FFA90008FFA90008FFA90008FFA90008B5
:10A3E800FFA90008FFA9000899A500086DA60008A4
:10A3F800FFA90008C3A60008FFA90008FFA90008D4
:10A40800FFA90008F5A60008FFA9000827A700086B
:10A41800FFA9000859A70008FFA90008B3A700086A
:10A42800FFA90008E5A70008FFA9000841A800083F
:10A43800FFA9000873A80008FFA90008FFA90008E1
:10A44800FFA90008CBA80008FFA90008FFA9000879
:10A45800FFA90008FFA90008FFA90008FFA9000834
:10A46800FFA90008FFA90008FFA90008FFA9000824
:10A47800FFA90008FFA90008FFA90008FFA9000814
:10A48800FFA90008FFA90008FFA90008FFA9000804
:10A49800FFA90008FFA90008FFA90008FFA90008F4
:10A4A800FFA90008FFA90008FFA90008FFA90008E4
:10A4B800FFA90008FFA90008FFA90008FFA90008D4
:10A4C800FFA90008FFA90008FFA90008FFA90008C4
:10A4D800FFA90008FFA90008FFA90008FFA90008B4
:10A4E800FFA90008FFA90008FFA90008FFA90008A4
:10A4F800FFA90008FFA90008FFA90008FFA9000894
:10A50800FFA90008FFA90008FFA90008FFA9000883
:10A51800FFA90008FFA90008FFA90008FFA9000873
:10A52800FFA90008FFA90008FFA90008FFA9000863
:10A53800E5A50008FFA90008FFA90008FFA9000871
:10A54800FFA90008FFA90008FFA90008FFA9000843
:10A55800FFA900080BA90008BB8C002B07D1494BA9
:10A5680003F5804300221A8001F032F82EE2BB8CFA
:10A57800012B40F02B82434B03F5804301221A80C4
:10A58800BB8CDBB219464FF4806002F0E5F91DE29E
:10A598003C4B03F50053B3F85E3FBA8C9A4204D0A3
:10A5A800BB8C42F2A832934203D12820FFF7FAF875
:10A5B80021E2BB8C42F2B16293420BD1324B0022B2
:10A5C8001A605520FFF7EEF82E4B03F5804306225C
:10A5D8001A8010E20620FFF7E5F80CE207F11C03E9
:10A5E800022241F2AD711846FEF72AF87B7F1A461F
:10A5F800244B03F50053B3F85A3F9A4200F0E88120
:10A608007B7F1A461F4B03F50053A3F85A2F07F117
:10A618001C02022341F2AD711C4801F033FC5120A9
:10A62800FFF7C0F801237B8307F11A0302224FF4D6
:10A6380071411846FEF756FFFEF71EFF134801F05A
:10A64800A9FE124801F0C8FF00237B8307F11A0313
:10A6580002224FF471411846FEF744FF0020FFF72D
:10A66800A1F8B5E1074B03F500531A46BB8CA2F8D5
:10A67800523FBB8C012B0BD1012000F07DFF0AE07B
:10A68800906E00209C03002060690020B0720020BA
:10A69800002000F071FF07F120035A1C07F1200188
:10A6A800BB8C1846FDF700FD07F12002022341F29A
:10A6B800A971CA4801F0E6FB9DE1C94B03F50053B7
:10A6C8001A46BB8CA2F8563F07F120035A1C07F123
:10A6D8002001BB8C1846FDF7E7FC07F12002022396
:10A6E80041F2AB71BD4801F0CDFB84E1BC4B03F5F1
:10A6F80000531A46BB8CA2F85E3F07F120035A1C90
:10A7080007F12001BB8C1846FDF7CEFC07F12002AB
:10A71800022341F2AF71B14801F0B4FB6BE1B04BD9
:10A7280003F500531A46BB8CA2F8623F07F12003D9
:10A738005A1C07F12001BB8C1846FDF7B5FC07F140
:10A748002002022341F2B171A44801F09BFB52E1BF
:10A75800A34B03F500531A46BB8CA2F8663F07F1DA
:10A7680020035A1C07F12001BB8C1846FDF79CFCFE
:10A7780007F12002022341F2B371984801F082FBED
:10A78800974B03F50053B3F8663F1A4600210320A0
:10A79800FEF712FB924B03F50053B3F8663F1A46D7
:10A7A80001210320FEF708FB25E18D4B03F500533B
:10A7B8001A46BB8CA2F86A3F07F120035A1C07F11E
:10A7C8002001BB8C1846FDF76FFC07F1200202231D
:10A7D80041F2B571814801F055FB0CE1804B03F55E
:10A7E80000531A46BB8CA2F86E3F07F120035A1C8F
:10A7F80007F12001BB8C1846FDF756FC07F1200233
:10A80800022341F2B771754801F03CFB744B03F524
:10A8180000539B881A4613461B019B1A9B001A4635
:10A828006F4B03F500531B891344184601F030FAA7
:10A8380003466C4A1360DEE0694B03F500531A4681
:10A84800BB8CA2F8723F07F120035A1C07F12001C4
:10A85800BB8C1846FDF728FC07F12002022341F2C1
:10A86800B9715E4801F00EFBC5E05D4B03F500537E
:10A878001A46BB8CA2F8763F07F120035A1C07F151
:10A888002001BB8C1846FDF70FFC07F120020223BC
:10A8980041F2BB71514801F0F5FAACE00123BB84E9
:10A8A8004F4B03F500530122A3F82A2F4E4B0022E9
:10A8B8001A704E4B00221A700021802002F04CF8CA
:10A8C80099E0BB8C012B40F0858000237B7607F153
:10A8D800190201230021414801F0D4FA002005F0B3
:10A8E800E9FA434B1B687B6107F114030422042136
:10A8F8001846FEF7F7FD4FF47A7005F0DBFAFDF71E
:10A90800A7FB374B03F540531A46BB8CD38007F19E
:10A9180020035A1C07F12001BB8C1846FDF7C4FB25
:10A9280007F12002022341F603012C4801F0AAFA9C
:10A9380061E0BB8C012B4FD107F10F0407F1110225
:10A9480007F1120107F1130007F10D03029307F154
:10A958000E03019307F110030093234601F027F932
:10A96800F87CB97C7C7C3D7CBB7B7A7B002602969C
:10A97800019200932B46224601F0C8F82CE0BB8CCC
:10A9880045F6A522934235D14FF47A7005F092FA34
:10A9980007F1080407F10A0207F10B0107F10C009F
:10A9A800BB1D0293FB1D019307F109030093234686
:10A9B80001F0FDF8B87AF97A3A7B7C7AFB79BD79AF
:10A9C80001950093234604F0ADFC13E000BF12E0AC
:10A9D80000BF10E000BF0EE000BF0CE0B072002026
:10A9E8009C030020486900202C6900202D69002064
:10A9F8007886010800BF00BF2C37BD46F0BD00BFF8
:10AA0800B0B582B000AFBC4B1B79BB4A5279114636
:10AA18001846FDF733FB0346FB80B74BDB79B64A94
:10AA2800127A11461846FDF729FB0346BB8000231E
:10AA38003B80FB8841F29672934200F0A38241F278
:10AA48009672934200F3BD8241F26B52934200F03A
:10AA5800DC8041F26B52934200F3B38241F26A52B6
:10AA6800934200F08A8041F26A52934200F3A9822D
:10AA780041F26952934219D041F26952934200F36C
:10AA8800A08241F20B02934200F0288241F20B02AD
:10AA9800934200F3968241F20802934200F0FD804F
:10AAA80041F20A02934200F0A1818AE2BB88012B9D
:10AAB80040F07E823B46022241F25B511846FDF788
:10AAC800BFFD3B787A7811461846FDF7D7FA03465A
